:020000040800F2
:10000000C00B0020C50000084D1A00083514000878
:1000100000000000000000000000000000000000E0
:10002000000000000000000000000000811F000828
:100030000000000000000000C11A00088120000834
:10004000F5000008F5000008F5000008F5000008BC
:10005000F5000008F5000008F5000008F5000008AC
:1000600000000000C10D0008F5000008F5000008C0
:10007000F5000008C1210008F50000081922000859
:100080009522000800000000000000006121000827
:1000900000000000F5000008F5000008F500000869
:1000A00000000000F500000800000000F500000856
:1000B0000348854600F0A6F90048004739260008A5
:1000C000C00B00200C4880F308880C480168090E1A
:1000D0000B4A914205D10B480B4901600B480C4972
:1000E00001600C4880470C480047FEE7FEE7FEE74A
:1000F000FEE7FEE7FEE70000C00B00200400000062
:100100001F00000018100240010000000000014024
:100110000000000085200008B100000830B50B4643
:10012000014600202022012409E00D46D5409D42D1
:1001300005D31D469540491B254695404019154657
:10014000521E002DF1DC30BDF8B502464A40D40FF6
:1001500042004B0052085B089A4202D2024608460F
:1001600011464A0023D0C30D4A00DDB2120EAD1A6B
:10017000202D35DA49020126490AF6058A19002C94
:1001800000D0524220214F1B1146B9402A4110187D
:10019000C20D9A4221D0002C17D0012D08DCDA05BF
:1001A000801AD20F8019D207DBB200F0F1F8F8BD47
:1001B000DA05801A012340001B06C01880185A4235
:1001C0008018CA0F1043490007E04908C2071143CD
:1001D000DA05801A80194008801800F0D1F8F8BDBF
:1001E00061000122511A001BF7E70122D20751409A
:1001F000AAE70122D2075040A6E7024670B54A405E
:10020000D30FDB0740002DD04A002AD0010E140E78
:10021000000212020919400A520A8418E501044634
:100220005443000A120A2E045043A4194219200C08
:10023000C543AA18120C0125AD03521C5219120411
:100240007F39240400D0521C104301D44000491EC1
:10025000C2B20C06C0092018401C4008802A02D0F7
:1002600003E0002070BD40084000002900DA0020B3
:10027000184370BD70B502464A40D50F40004A0091
:10028000ED0740085208002814D0002A12D0C40DEF
:10029000D30D41020120C0055202490A520AE41A54
:1002A000091812187D34914201D3641C00E0490002
:1002B000002C01DA002070BD0023914201D3891A7D
:1002C0000343400849000028F7D100290AD0914291
:1002D00002D10121C90705E0914201D2012101E0CB
:1002E0000121C943E005C018401900F049F870BD6C
:1002F00010B500229623114600F04AF810BDC20F37
:10030000410040020123400ADB05D207090EC01854
:100310007F2901DA00207047962903DC9623591AB9
:10032000C84001E096398840002AF4D04042704726
:10033000410040020122400AD205090E80187F299F
:1003400001DA00207047962903DC9622511AC84032
:1003500070479639884070470122D207002800DB99
:10036000101A002900DB511A814270470122D2077E
:10037000002800DB101A002900DB511A8842704760
:10038000002904DA401C490001D1400840007047B0
:1003900070B40024050C05D11024000402D10029FA
:1003A00021D01124050E01D100020834050F01D11E
:1003B0000001241D850F01D18000A41C002801DB51
:1003C0004000641C002908D020252E1B0D46F54056
:1003D000A14000D001212943084301061B1B000A4C
:1003E000DB1D02D5002070BC7047DB051818801893
:1003F0000029F8DA401C4900F5D170BC40084000E3
:1004000070470000064C0125064E05E0E36807CC66
:100410002B430C3C98471034B442F7D3FFF74CFE03
:10042000542700087427000810B50B460021846A81
:100430001C43846200BF0C4614432146416110BD39
:10044000002904D0826801231A43826003E0826895
:1004500002231A4382607047002904D0C268012336
:100460001A43C26003E0C26852085200C26070477B
:10047000C26802239A43C260C2680A43C2607047DE
:1004800010B504460548844207D10121401501F00A
:1004900075FB0021601501F071FB10BD00240140C7
:1004A00030B501460020002200238C680125ED07AD
:1004B0002C438C6000BF8C68E30FDB07521C0F24B9
:1004C0002403A24201D0002BF5D18C68E40FE4078D
:1004D000002C01D1086C00E0002030BD30B5024690
:1004E00000200023012424060C40002C05D0946831
:1004F00001252D06AC43234600E013681C460C4042
:10050000002C01D0012000E0002030BD10B50022F9
:10051000C268084B1A400C7964030B6823438C684B
:100520002343CC6823430C6923434C6923431A4378
:10053000C26010BD03D2FFFF002905D0C2680123AD
:100540001B031A43C26004E0C26801231B039A43E1
:10055000C2607047816804221143816070470021A6
:10056000016001718160C16001614161704710B536
:1005700002F04AF801F0C6FF02F000F801F0C0FDF9
:1005800001F056FE00F002FF00F05EFE10BD00001C
:1005900070B500F0A3FBDC4801780078401CDA4A13
:1005A00010704800D949085ED94909788900D94AAC
:1005B0005050D54801780078401CD34A107048004C
:1005C000D249085ED24909788900D34A5050CE48B2
:1005D00001780078401CCC4A10704800CB49085E76
:1005E000CB4909788900CD4A5050C9480078401C51
:1005F000C749087008460078042806DA00BFC848D2
:1006000001F0ECFE7828FAD37DE1C1480078032898
:10061000FADD0020C3490870BD490870BA49087066
:10062000BC490968BB4A52688918BA4A9268891855
:10063000B84AD26889188808FFF75AFEBA49086094
:10064000B5490968B44A52688918B34A926889184A
:10065000B14AD26889188808FFF74AFEB349086092
:10066000AE490968AD4A52688918AC4A926889183F
:10067000AA4AD26889188808FFF73AFEAC49086090
:10068000AA480168A8480068FFF75EFD0446A8482C
:1006900001682046FFF758FDA6490860A248016896
:1006A0008920C005FFF7A9FD0546A2480168284634
:1006B000FFF7E0FD0446FFF722FE9F4908609B48D4
:1006C00001688920C005FFF798FD05469948016833
:1006D0002846FFF7CFFD0446FFF711FE9749086053
:1006E000934801688920C005FFF787FD05469148BA
:1006F00001682846FFF7BEFD0446FFF700FE90495B
:10070000086090490868FFF7F3FD044689480168CE
:100710002046FFF721FE0FD28A490868FFF7E8FD5F
:100720000546844801682846FFF763FD0446FFF745
:10073000E6FD854908600EE082490868FFF7D8FDAC
:1007400005467C4801682846FFF74FFD0446FFF741
:10075000D6FD7D4908607D48006877490968884270
:1007600007D27A48006874490968081A784908600D
:1007700006E07648006870490968401A74490860C4
:10078000744800686D490968884207D2714800685A
:100790006A490968081A7049086006E06D480068EF
:1007A00066490968401A6C4908606C4800686449E9
:1007B0000968884207D26948006861490968081ACF
:1007C0006749086006E0654800685D490968401AA5
:1007D000634908605E4800685F49096840186049DD
:1007E000096840185F490860574800680968401860
:1007F0007D21C900081A5C49086008460068002885
:1008000002DC0020086008E0574800687D21C9002C
:10081000884202DB0846544908605348006853493F
:1008200009788900524A505050480078800011469B
:100830000858504900228A5E904207DD4B480078F4
:1008400080004B49085A00B24A490880474800785E
:10085000800047490858484900228A5E904207DADA
:100860004248007880004249085A00B24249088054
:100870003E480078401C3D4908700846007805282D
:1008800013DD002008703B4A115E3B4A135EC81A14
:10089000C117890F09188910384A1160002035499D
:1008A00008807D20C00034490880354800683349FD
:1008B00009684018334908603148006864382F4996
:1008C0000968401A30490860084600680A2801DAB9
:1008D0000A200860244800682A490968884203DB26
:1008E00001202A49087008E01F4800682649096865
:1008F000884202DC00202549087000BF084801F04A
:100900006DFD7828FAD370BD100100205C0700202F
:1009100011010020740700208407002094070020A4
:10092000000400400E000020C0000020C400002091
:10093000C8000020CC000020E4000020E8000020D7
:10094000EC000020A0000020DC0000208800002037
:10095000D000002090000020D4000020980000204B
:10096000D8000020E0000020F0000020040100205A
:10097000A40700200001002002010020080100203F
:1009800074000020FC000020F80000202800002057
:1009900070B536E000F0A2F9B94801780078401C43
:1009A000B74A10704800B749085EB749097889000E
:1009B000B64A5050B24801780078401CB04A1070D6
:1009C0004800B049085EB04909788900B04A5050E3
:1009D000AB4801780078401CA94A10704800A9492A
:1009E000085EA94909788900AA4A5050A6480078AB
:1009F000401CA549087000BFA74801F0EFFC78280B
:100A0000FAD3A14800780428C4DB0020A349087069
:100A10009D4908709A4908709C4909689B4A526828
:100A200089189A4A92688918984AD2688918880859
:100A3000FFF75EFC9A49097889009A4A5050944918
:100A40000968934A52688918914A92688918904AAD
:100A5000D26889188808FFF74BFC9149097889000A
:100A6000914A50508B4909688A4A52688918894AC4
:100A700092688918874AD26889188808FFF738FC75
:100A8000874909788900894A5050854A127892002E
:100A9000854B9958824A12789200824B9858FFF7FA
:100AA00053FB05467E4800788000804A115828464E
:100AB000FFF74AFB0446FFF73BFC794909788900B8
:100AC0007B4A50507649097889005058FFF710FC4E
:100AD0000546734800788000724A11588920C00585
:100AE000FFF78BFB06462946FFF7C4FB0446FFF7DA
:100AF0001FFC6B49097889006E4A50506849097893
:100B000089006B4A5058FFF7F3FB054664480078AC
:100B10008000654A11588920C005FFF76EFB064624
:100B20002946FFF7A7FB0446FFF702FC5C4909785A
:100B30008900614A50505A49097889005C4A5058E6
:100B4000FFF7D6FB0546564800788000574A1158F3
:100B50008920C005FFF751FB06462946FFF78AFBAF
:100B60000446FFF7E5FB4E4909788900534A505087
:100B70004B480078401C4A49087008460078022813
:100B800079DB002008704B4840684A490968884270
:100B900007D94848406847490968401A48490860E9
:100BA00006E04448006843494968401A44490860DF
:100BB0004148406840490968884207D93E48406832
:100BC0003D490968401A3F49086006E03A48006814
:100BD00039494968401A3B490860384840683749F4
:100BE0000968884207D93548406834490968401A7D
:100BF0003549086006E03148006830494968401AC4
:100C0000314908602A48406829490968884207D95B
:100C10002748406826490968401A2C49086006E0C0
:100C20002348006822494968401A28490860244836
:100C30000068244909684018234909684018244974
:100C40000860224800680968401840087D21C900F2
:100C5000081A2049086008460068C82802DCC82035
:100C6000086008E01B4800687D21C900884202DB5B
:100C700008461849086000201749087070BD000038
:100C8000130100205C0700201201002074070020DF
:100C90008407002094070020000400400E0000207C
:100CA000860000202C000020340000203C000020A2
:100CB000A000002088000020900000209800002064
:100CC000AC000020B0000020B4000020B8000020DC
:100CD000BC000020740000208000002010B500211E
:100CE000344801F09BFB012204210920C00600F0DA
:100CF0009BFB012211020920C00600F095FB00BFFA
:100D00002C4801F06BFB0028FAD00022FF210131B2
:100D10000920C00600F088FB2748FFF71BFC00BF36
:100D2000264800780028FBD00020244908700122C2
:100D300051020920C00600F077FB00BF1D4801F0FA
:100D40004DFB0228FAD30022012149020920C006E6
:100D500000F06AFB1848FFF7FDFB00BF174800785A
:100D60000028FBD0002015490870012291020920BB
:100D7000C00600F059FB00BF0E4801F02FFB03280E
:100D8000FAD30022012189020920C00600F04CFBA1
:100D90000948FFF7DFFB00BF084800780028FBD0B8
:100DA000002006490870002204210920C00600F036
:100DB0003BFB10BD00040040002401401000002057
:100DC00010B5022000F0F2F8002813D00A4800887D
:100DD0000A49081A01B20A4802780078401C084BF8
:100DE00018705000074A115201200749087002206C
:100DF00000F00CF810BD000028010020FF0F0000DB
:100E00000E0000205C0700201000002001210907CF
:100E10000140002902D00349486001E002494860CE
:100E2000704700000004024000000240002904D086
:100E3000026801231A43026003E00268014B1A4072
:100E400002607047FEFF00000168554A11400160D2
:100E50000021016041608160C1605249884208D12F
:100E60005049083949680F2211434E4A083A5160E7
:100E700094E04C491431884208D14A4908394968FC
:100E8000F0221143474A083A516087E0454928312A
:100E9000884209D14349083949680F221202114397
:100EA000404A083A516079E03E493C31884209D1D4
:100EB0003C49083949680F2212031143394A083A5C
:100EC00051606BE037495031884209D135490839C2
:100ED00049680F2212041143324A083A51605DE01A
:100EE00030496431884209D12E49083949680F22B6
:100EF000120511432B4A083A51604FE029497831D5
:100F0000884209D12749083949680F22120611433E
:100F1000244A083A516041E02349884208D12249D5
:100F2000083949680F2211431F4A083A516035E0D9
:100F30001D491431884208D11B4908394968F022FB
:100F40001143194A083A516028E01749283188426C
:100F500009D11549083949680F2212021143124A72
:100F6000083A51601AE010493C31884209D10E49D3
:100F7000083949680F22120311430B4A083A51609D
:100F80000CE009495031884208D1074908394968BD
:100F90000F2212041143044A083A516070470000BE
:100FA000FEFF000008000240080402400146002045
:100FB000002201231B070B40002B02D0064B1A68AE
:100FC00001E0064B1A6813460B40002B01D00120AC
:100FD00000E00020704700000004024000000240D2
:100FE000002A03D003680B43036002E003688B43CD
:100FF0000360704710B5002202680D4B1A400C6A5E
:101000008B6823430C6923434C6923438C69234336
:10101000CC6923434C6A23438C6A23431A430260FE
:10102000CB6843600B6883604B68C36010BD0000F1
:101030000F80FFFF0021016041608160C16001619C
:1010400041618161C161016241628162704700005A
:1010500001F008FB002400E0641C0A2CFCDB2FE0FC
:1010600018480078012810DA17480078012802D1C2
:10107000FFF78EFA05E014480078002801D100F04F
:10108000DBF91248007800F07CFF11480078002856
:1010900016DD012109030920C00600F0A5F9054667
:1010A0002A46012109030920C00600F0BDF90648BF
:1010B0000078002802D0FFF76BFC01E000F056FB3F
:1010C000CEE7000086000020A800002028000020B5
:1010D0008000002004E0411E08B2002800DC00E08F
:1010E000F9E700BF704700000149C8607047000081
:1010F0000020024030B5044604250B20000400F017
:101100008FF80546042D17D10C48006902210843C9
:101110000A490861084644610069402108430749BB
:1011200008610B20000400F07BF8054603480069C5
:101130000221884301490861284630BD0020024051
:1011400004200D49C968C907C90F002901D0012031
:1011500010E00949C96810221140002901D002207D
:1011600008E00549C96804221140002901D0032084
:1011700000E004207047000000200240034800699E
:1011800080210843014908617047000000200240A7
:1011900078B506460C460425002000900B2000047C
:1011A00000F03EF80546042D24D1134800690121C2
:1011B00008431149086134800B20000400F030F826
:1011C0000546042D10D1B01C0090200C0099088019
:1011D0000B20000400F024F8054607480069400889
:1011E00040000549086105E00348006940084000E7
:1011F00001490861284678BD002002400548006981
:1012000080210840002804D0034802494860034870
:10121000486070470020024023016745AB89EFCD4D
:1012200010B503460424FFF78BFF044603E0FFF7E5
:1012300087FF04465B1E012C01D1002BF7D1002B48
:1012400000D10524204610BD1CB5012123204004F7
:1012500000F054FC684600F0DBF88020009001218B
:10126000684601710021817141710221C171694695
:101270000920C00600F042F81CBD1CB50121232046
:10128000400400F03BFC684600F0C2F80120000377
:101290000090012168460171002181714171C17185
:1012A00069460920C00600F029F80120C00200901C
:1012B00000216846017141710221C171694609200E
:1012C000C00600F01BF8082000900021684601715C
:1012D00041710221C17169460920C00600F00EF873
:1012E0001020009000216846017141710221C171F6
:1012F00069460920C00600F001F81CBDF0B50A4699
:1013000000210023002400BF3DE001258D402B4635
:1013100015681D402C469C4234D11579012D02D010
:101320001579022D16D185684F000326BE40B543BE
:10133000856055794E00B54086683543856085885F
:1013400001268E40B5438580858896798E40B6B259
:101350003543858005684F000326BE40B5430560D0
:1013600015794E00B540066835430560C5684F00E5
:101370000326BE40B543C560D5794E00B540C6686A
:101380003543C560491C1029BFD3F0BD1CB50121F0
:10139000480400F0B3FBFF200130009001216846B3
:1013A0000171002181710121C171032141716946DF
:1013B0000920C006FFF7A2FF012040020090694605
:1013C0000920C006FFF79AFF0120800200906946BD
:1013D0000920C006FFF792FF04200090694609200B
:1013E000C006FFF78BFF1CBD02460020138A0B408E
:1013F000002B01D0012000E00020704702460020B1
:10140000938A0B40002B01D0012000E000207047A0
:1014100004490160002101710121417100218171A4
:10142000C1717047FFFF0000002A01D0816100E018
:101430000185704700BFFEE7F8B50025AC4800689D
:10144000401CAB49086008460068012809D8A94833
:10145000007800F045FDA849086008460068A749E3
:101460000860A448007800F03BFDA3490860A44848
:10147000007800287ED0A34800780028FAD0002504
:1014800000241CE02846691CCDB240009E49085E3D
:10149000A1009E4A50502846691CCDB240009A498E
:1014A000085EA1009A4A50502846691CCDB24000FF
:1014B0009549085EA100974A5050601CC4B2042CA4
:1014C000E0DB92490968914A526889188F4A92680C
:1014D00089188E4AD26889188808FEF709FF8E4954
:1014E00008608B4909688A4A52688918884A926854
:1014F0008918874AD26889188808FEF7F9FE874953
:10150000086084490968834A52688918814A926848
:101510008918804AD26889188808FEF7E9FE804950
:1015200008607E4801687C480068FEF70DFE0646AC
:101530007B4801683046FEF707FE7A490860764826
:1015400001688920C005FEF758FE07467548016806
:101550003846FEF78FFE0646FEF7D1FE7249086058
:101560006E4801688920C005FEF747FE07466D48B2
:10157000016800E0A4E03846FEF77CFE0646FEF770
:10158000BEFE6A490860664801688920C005FEF70A
:1015900034FE0746634801683846FEF76BFE064690
:1015A000FEF7ADFE6249086062490868FEF7A0FEDA
:1015B00006465C4801683046FEF7CEFE0FD25D4914
:1015C0000868FEF795FE0746564801683846FEF75C
:1015D00010FE0646FEF793FE574908600EE0554997
:1015E0000868FEF785FE07464E4801683846FEF754
:1015F000FCFD0646FEF783FE4F4908604F48006831
:1016000049490968884207D24C4800684649096838
:10161000081A4B49086006E04848006842490968D2
:10162000401A4749086047480068404909688842AD
:1016300007D2444800683D490968081A42490860D1
:1016400006E04048006839490968401A3E49086088
:101650003E48006836490968884207D23B4800681E
:1016600033490968081A3A49086006E037480068B3
:101670002F490968401A36490860314800683249E4
:1016800009684018324909684018324908602A48F8
:101690000068096840187D21C900081A2E490860B1
:1016A00008460068002802DC0020086008E02A489C
:1016B00000687D21C900884202DB0846264908608F
:1016C0002648006826490968884203D30120254935
:1016D00008700BE02248006823490968401A1F4936
:1016E0000968884202D300201E490870F8BD000036
:1016F0007C000020600000206800002064000020C2
:1017000000000020A80000205C07002074070020D3
:101710008407002094070020C0000020C40000209F
:10172000C8000020CC000020E4000020E8000020D9
:10173000EC000020A0000020DC0000208800002039
:10174000D000002090000020D4000020980000204D
:10175000D8000020E0000020F400002070000020ED
:10176000740000202800002078000020F8B5002533
:1017700000240120A24908700020A2490870FF201F
:10178000F530FFF7A7FCA048007800285DD00020C6
:101790009D49087000BF00BF1CE02846691CCDB2FF
:1017A00040009A49085EA100994A50502846691C99
:1017B000CDB240009549085EA100964A5050284697
:1017C000691CCDB240009149085EA100924A505078
:1017D000601CC4B2042CE0DB8D4909688C4A526855
:1017E00089188B4A92688918894AD26889188808AA
:1017F000FEF77EFD894909788900894A505085495C
:101800000968844A52688918824A92688918814A0C
:10181000D26889188808FEF76BFD8049097889002D
:10182000804A50507C4909687B4A526889187A4A34
:1018300092688918784AD26889188808FEF758FD96
:10184000764909788900784A505074480078401CDD
:10185000724908700846007802287DDB0020087075
:101860006F4A51681068FEF781FD07D86C4A5168CD
:101870001068FEF7BAFC6D49086006E0684A116816
:101880005068FEF7B2FC69490860664A5168106802
:10189000FEF76CFD07D8634A51681068FEF7A5FC97
:1018A0006349086006E05F4A11685068FEF79DFCD6
:1018B0005F4908605C4A51681068FEF757FD07D819
:1018C000594A51681068FEF790FC5A49086006E0D2
:1018D000554A11685068FEF788FC5649086054481C
:1018E000016852480068FEF741FD02D24F48006887
:1018F00001E04F480068504908604E4801684E4872
:101900000068FEF733FD02D24B48006801E0494809
:101910000068494908600020484908604348016858
:1019200045480068FEF718FD1ED13D4A1168506811
:10193000FEF70AFC074601218907FEF79BFC0646D5
:10194000FEF7DDFC3E49086000203E4908703B4838
:1019500000683B49096800E04EE040180121090792
:101960004018364908603FE0314801683248006855
:10197000FEF7F2FC1CD12B4A11685068FEF7E4FB1D
:10198000074601218907FEF775FC0646FEF7B7FCFE
:101990002B49086001202B49087028480068284915
:1019A00009684018012149074018244908601BE0D4
:1019B0001D4A11685068FEF7C7FB074601218907D9
:1019C000FEF758FC0646FEF79AFC1D490860022007
:1019D0001C49087019480068194909684018012114
:1019E000890740181549086014480168002000F074
:1019F0005FFD002002490870002013490870F8BDFF
:101A0000870000200F000020580000205C07002005
:101A1000740700208407002094070020860000201F
:101A20002C000020340000203C0000204400002056
:101A3000480000204C000020500000200C01002035
:101A4000740000206000002080000020704700002B
:101A500000218278002A27D0184A03231B02D218BB
:101A600003789B109B00D15802789207D30EFF2277
:101A70009A400B469343194642789207120E037818
:101A80009B07DB0E9A4011430C4A03231B02D2181A
:101A900003789B109B00D1500278D306DB0E012205
:101AA0009A40064B1A6007E00278D306DB0E01224B
:101AB0009A40024B80331A607047000000E100E05A
:101AC000704700000C4949680122920391430A4A79
:101AD00051601146496882B21143074A516011466C
:101AE000096B92159143044A11631146096B020C6C
:101AF0001143014A1163704700100240002905D0CC
:101B0000054A52690243044B5A6104E0024A526991
:101B10008243014B5A61704700100240002905D0F2
:101B2000054AD2690243044BDA6104E0024AD269F1
:101B30008243014BDA61704700100240002905D052
:101B4000054A12690243044B1A6104E0024A126911
:101B50008243014B1A61704700100240002905D0F2
:101B6000054A92690243044B9A6104E0024A926971
:101B70008243014B9A61704700100240002905D052
:101B8000054AD2680243044BDA6004E0024AD26894
:101B90008243014BDA6070470010024010B5052106
:101BA000C9040120C00300F07BF9012000F064F9B2
:101BB0000848FFF787FF00BF192000F031F900281F
:101BC000FAD0022000F07EF900BF00F04DF908289D
:101BD000FBD110BD00400001FEB5044600250026E3
:101BE00000200290019000900027864840680C2158
:101BF00008400546002D06D0042D07D0082D08D03A
:101C00000C2D2CD128E0804820602BE07E482060FD
:101C100028E07C4840680F2189040840064679483E
:101C200040680321C90308400290B00C861C02984A
:101C3000002803D17548374647430BE07148C06A16
:101C40000007000F401C01906F480199FEF766FAEB
:101C500070430746276005E06D48206002E06A484F
:101C6000206000BF00BF67484068F021084005467B
:101C70002D096848405D009020680099C840606068
:101C80006048406807210902084005462D0A61485E
:101C9000405D009061680098C140A1605948006BA8
:101CA000FF2101310840884202D05B48E0600DE02E
:101CB00054484068012189030840884203D0A06845
:101CC0004008E06002E0A0688008E0604D48006BDA
:101CD00040210840402802D05048206102E0012005
:101CE000C00320614748006B10210840102802D033
:101CF0004548606101E0206860614248006B8007F0
:101D0000800F002802D1A068A06119E03D48006B57
:101D10008007800F012802D12068A06110E03948B7
:101D2000006B8007800F022802D18003A06107E0CA
:101D30003448006B8007800F032801D13248A0612E
:101D40003048006B032109040840002802D1A06834
:101D5000E06120E02B48006B0321090408400121C9
:101D60000904884202D12068E06114E02548006B34
:101D700003210904084001214904884202D180104E
:101D8000E06108E01F48006B032109040840884215
:101D900001D11D48E0611B48006B03218904084004
:101DA000002802D1A068206220E01648006B0321C1
:101DB0008904084001218904884202D120682062F8
:101DC00014E01048006B0321890408400121C90474
:101DD000884202D10011206208E00A48006B03210A
:101DE00089040840884201D1074820620548006BF9
:101DF00080210840802802D00548606200E06762C8
:101E0000FEBD00000010024000127A0000093D00F3
:101E1000006CDC0218010020809FD50012800000B9
:101E200010B502460021002300205111002902D1E3
:101E30000C4C23680BE0012902D10A4C236A06E00E
:101E4000022902D1074C636A01E0064C636BD1069C
:101E5000C90E01248C401C40002C01D0012000E060
:101E6000002010BD00100240024840680C210840CC
:101E70007047000000100240002807D00749096899
:101E8000012212061143054A116006E00349096860
:101E9000012212069143014A11607047001002406E
:101EA000074A52687B23DB039A43054B5A601A4664
:101EB000526803460B431A43014B5A6070470000B7
:101EC0000010024001460020044A5068800880004B
:101ED00002460A431046014A506070470010024013
:101EE00010B50446002C04D0012C17D0022C3FD191
:101EF00029E0012211020920C006FFF795FA00220D
:101F0000012149020920C006FFF78EFA00220121B3
:101F100089020920C006FFF787FA2AE00022FF2184
:101F200001310920C006FFF77FFA01225102092082
:101F3000C006FFF779FA0022012189020920C006B4
:101F4000FFF772FA15E00022FF2101310920C006D7
:101F5000FFF76AFA0022012149020920C006FFF7B3
:101F600063FA012291020920C006FFF75DFA00E042
:101F700000BF00BF0148006810BD00001400002031
:101F8000704710B50446012C06D101220103092037
:101F9000C006FFF749FA06E00022012109030920E3
:101FA000C006FFF741FA10BD0CB50020019000906B
:101FB000314800680121090408432F49086000BF27
:101FC0002D48006801214904084000900198401CF8
:101FD00001900098002804D1052109030198884246
:101FE000EED125480068012149040840002802D0AC
:101FF0000120009001E0002000900098012839D1D4
:1020000011201E4908601C4840681B49486008466A
:1020100040684860084640687F21C90388431649E4
:102020004860084640681121090408431249486085
:10203000084600680121090608430F49086000BFEF
:102040000D4800680121490608400028F8D00A48D8
:1020500040688008800008494860084640680221BE
:1020600008430549486000BF034840680C21084008
:102070000828F9D10CBD00000010024000200240E9
:102080007047000010B51B4800680121084319493A
:1020900008600846406818490840164948600846E4
:1020A0000068164908401349086008460068012185
:1020B000890488430F490860084640683F210904A5
:1020C00088430C4948600846C06A00090001C8629C
:1020D0000846006BFF2154318843064908630846CF
:1020E000406B40084000486300208860FFF75CFFB9
:1020F00010BD0000001002400CB8FF08FFFFF6FE04
:102100001FB501210802FFF709FD144800F0E4F8AB
:10211000132168460170012181704170FFF798FC1E
:1021200001A800F0BBF9002168468181C1807D20B3
:10213000C00002902F21684681800021817301A98F
:10214000064800F06DF901221146044800F05CF9E0
:102150000121024800F0B2F81FBD0000002000403D
:1021600010B50121144800F03CF9002822D0134892
:102170000088401C1149088080210920C006FFF713
:102180003DF9002801D1012000E00020044622464C
:1021900080210920C006FFF747F9084800880A286F
:1021A00004DB00200549088000F096FA012102486E
:1021B00000F081F810BD00000020004084000020E5
:1021C00010B50121134800F00CF9012803D10121B9
:1021D000104800F06DF802210E4800F002F90028C6
:1021E00003D002210B4800F063F80421094800F0F5
:1021F000F8F8002803D00421064800F059F8082117
:10220000044800F0EEF8002803D00821014800F04F
:102210004FF810BD002C014010B50121880700F0D7
:10222000E0F8002803D00121880700F041F810BD34
:102230001FB501210220FFF771FC102168460170D3
:102240000121817004214170FFF702FC0F4800F06A
:1022500043F801A800F022F9002168468181C1807D
:102260000B4802902F21684681800021817301A9CB
:10227000064800F0D5F801221146044800F0C4F8E1
:102280000121024800F01AF81FBD000000040040C0
:10229000C604000010B50121044800F0A2F800288F
:1022A00003D00121014800F006F810BD00040040F1
:1022B000CA4302827047CA4302827047002904D091
:1022C000028801231A43028003E00288014B1A406E
:1022D00002807047FEFF000010B504463748844274
:1022E00008D10121C014FFF749FC0021E014FFF7D9
:1022F00045FC62E001208007844208D101210846A4
:10230000FFF71CFC00210120FFF718FC55E02C48CA
:10231000844208D101210220FFF710FC0021022095
:10232000FFF70CFC49E02748844208D10121102026
:10233000FFF704FC00211020FFF700FC3DE02248DD
:10234000844208D101212020FFF7F8FB0021202042
:10235000FFF7F4FB31E01D48844208D101218015CC
:10236000FFF7ECFB0021A015FFF7E8FB25E018487C
:10237000844209D101210804FFF700FC002101205B
:102380000004FFF7FBFB18E01248844209D1012149
:102390004804FFF7F3FB002101204004FFF7EEFBA8
:1023A0000BE00D48844208D101218804FFF7E6FBC9
:1023B000002101208004FFF7E1FB10BD002C01404B
:1023C00000040040001000400014004000200040C5
:1023D0000040014000440140004801400146486A75
:1023E000704730B50246002000230024158A0D40B6
:1023F0002B4695890D402C46002B03D0002C01D094
:10240000012000E0002030BD002A03D083890B4367
:10241000838102E083898B438381704741627047E7
:1024200000220288154B984206D001239B07984250
:1024300002D0134B984203D1124B1A404B881A43D7
:10244000114B984203D0114B1A400B891A4302805A
:102450004B68C3620B880385084B984208D00C4B2D
:10246000984205D00B4B984202D00B4B984201D1B9
:102470008B7A03860123838270470000002C014081
:10248000000400408FFF000000100040FFFC00002F
:102490000040014000440140004801400021C94380
:1024A00041600021018001814180817270470000FC
:1024B00070B504460D46FEF7A1FE3520FEF714FE6A
:1024C0000748FEF717FEA100054A88182946FEF7BF
:1024D0005FFE3520FEF708FEFEF750FE70BD0000DF
:1024E0000070000802E008C8121F08C1002AFAD1D3
:1024F00070477047002001E001C1121F002AFBD184
:102500007047000000B587B001214802FFF726FBA5
:102510001848FDF7B5FF01A8FEF721F8002069462D
:10252000087205900190069001A91248FDF7EEFF90
:1025300001211048FEF700F8012211460D48FDF771
:1025400073FF0C48FDF7ACFF01210A48FDF778FF47
:1025500000BF09490748FDF7C1FF0028F9D0012154
:102560000448FDF779FF02210248FDF781FF07B01B
:1025700000BD0000002401400100000100B58DB045
:1025800001210846FFF7BAFA0921684601710121C5
:1025900081710021417101A8FFF75AFA1748FEF72F
:1025A00053FC02A8FEF746FD012005900020049090
:1025B0000C9013480390012080020990802007901E
:1025C00020200A900F480290801508900020069065
:1025D000012040030B9002A90848FEF70BFD0122E1
:1025E00002210648FEF7FCFC0220FEF70FFC012149
:1025F0000248FEF71BFC0DB000BD000008000240C1
:1026000028010020402401401CB501214804FFF7A7
:1026100075FA6846FEF7FCFE01200090032168462B
:1026200001710021817141710121C1716946092047
:10263000C006FEF763FE1CBD10B5FFF7AFFAFEF74C
:102640001CFEFDF794FF0548FFF7C6FA0448FEF7A5
:1026500041FDFEF7FDFC002010BD00003407002006
:1026600088130000002017490968174A11601146B5
:102670000968080F00070F2109074118002909D030
:102680000F2212078918002908D052008918002942
:102690000CD107E000210D4A117008E001210B4A1E
:1026A000117004E00221094A117000E000BF00BF70
:1026B0005021074A1160044909680802000A0549C7
:1026C00008607047007000081401002060000020BE
:1026D000780000207400002010B510210920C006E9
:1026E000FEF782FE012805D118480088401C1749D2
:1026F00008802AE015480088642807DD1348007820
:10270000134908700020114908801EE00F48008816
:1027100064280BDA0D480088322807DD0B48007862
:102720000B4908700020094908800EE0074800881E
:1027300032280ADA05480088022806DD03480078B6
:102740000349087000200149088010BD8200002064
:1027500080000020742700080000002028010000ED
:10276000E42400089C28000828010020980A0000A2
:10277000F424000800000000000000000000000039
:102780000000000000000000000000000000000049
:102790000000000000000000000000000000000039
:1027A0000000000000000000000000000000000029
:1027B0000000000000000000000000000000000019
:1027C0000000000000000000000000000000000009
:1027D00000000000000000000000000000000000F9
:1027E0000000000000000000F401000050000000A4
:1027F00000000000000000000000000000000000D9
:1028000000000000000000000000000000000000C8
:1028100000000000000000000000000001000000B7
:1028200000000000000000000000000000000000A8
:102830000000000000000000000000000000000098
:102840000000000000000000000000000000000088
:102850000000000000000000000000000000000078
:102860000000000000000000000000000000000068
:10287000000000000000E80300000000000000006D
:102880003200001200000000000000000000000004
:0C2890000102030401020304060708090A
:04000005080000B13E
:00000001FF
