:020000040800F2
:10000000500C0020C5000008411F000875160008AC
:1000100000000000000000000000000000000000E0
:100020000000000000000000000000001926000889
:100030000000000000000000B51F0008192700089C
:10004000F5000008F5000008F5000008F5000008BC
:10005000F5000008F5000008F5000008F5000008AC
:10006000000000002D0E0008F5000008F500000853
:10007000F50000084D280008F5000008A528000834
:10008000152900080000000000000000ED2700080E
:1000900000000000F5000008F5000008F500000869
:1000A00000000000F500000800000000F500000856
:1000B0000348854600F0A6F900480047D52C000803
:1000C000500C00200C4880F308880C480168090E89
:1000D0000B4A914205D10B480B4901600B480C4972
:1000E00001600C4880470C480047FEE7FEE7FEE74A
:1000F000FEE7FEE7FEE70000500C002004000000D1
:100100001F00000018100240010000000000014024
:10011000000000001D270008B100000830B50B46A4
:10012000014600202022012409E00D46D5409D42D1
:1001300005D31D469540491B254695404019154657
:10014000521E002DF1DC30BDF8B502464A40D40FF6
:1001500042004B0052085B089A4202D2024608460F
:1001600011464A0023D0C30D4A00DDB2120EAD1A6B
:10017000202D35DA49020126490AF6058A19002C94
:1001800000D0524220214F1B1146B9402A4110187D
:10019000C20D9A4221D0002C17D0012D08DCDA05BF
:1001A000801AD20F8019D207DBB200F0F1F8F8BD47
:1001B000DA05801A012340001B06C01880185A4235
:1001C0008018CA0F1043490007E04908C2071143CD
:1001D000DA05801A80194008801800F0D1F8F8BDBF
:1001E00061000122511A001BF7E70122D20751409A
:1001F000AAE70122D2075040A6E7024670B54A405E
:10020000D30FDB0740002DD04A002AD0010E140E78
:10021000000212020919400A520A8418E501044634
:100220005443000A120A2E045043A4194219200C08
:10023000C543AA18120C0125AD03521C5219120411
:100240007F39240400D0521C104301D44000491EC1
:10025000C2B20C06C0092018401C4008802A02D0F7
:1002600003E0002070BD40084000002900DA0020B3
:10027000184370BD70B502464A40D50F40004A0091
:10028000ED0740085208002814D0002A12D0C40DEF
:10029000D30D41020120C0055202490A520AE41A54
:1002A000091812187D34914201D3641C00E0490002
:1002B000002C01DA002070BD0023914201D3891A7D
:1002C0000343400849000028F7D100290AD0914291
:1002D00002D10121C90705E0914201D2012101E0CB
:1002E0000121C943E005C018401900F049F870BD6C
:1002F00010B500229623114600F04AF810BDC20F37
:10030000410040020123400ADB05D207090EC01854
:100310007F2901DA00207047962903DC9623591AB9
:10032000C84001E096398840002AF4D04042704726
:10033000410040020122400AD205090E80187F299F
:1003400001DA00207047962903DC9622511AC84032
:1003500070479639884070470122D207002800DB99
:10036000101A002900DB511A814270470122D2077E
:10037000002800DB101A002900DB511A8842704760
:10038000002904DA401C490001D1400840007047B0
:1003900070B40024050C05D11024000402D10029FA
:1003A00021D01124050E01D100020834050F01D11E
:1003B0000001241D850F01D18000A41C002801DB51
:1003C0004000641C002908D020252E1B0D46F54056
:1003D000A14000D001212943084301061B1B000A4C
:1003E000DB1D02D5002070BC7047DB051818801893
:1003F0000029F8DA401C4900F5D170BC40084000E3
:1004000070470000064C0125064E05E0E36807CC66
:100410002B430C3C98471034B442F7D3FFF74CFE03
:100420008C2D0008AC2D000830B58C180278401CCB
:1004300013071B0F01D10378401C120906D1027863
:10044000401C03E005780D70401C491C5B1EF9D16F
:1004500001E00B70491C521EFBD1A142E6D30020E3
:1004600030BD10B50B460021846A1C43846200BF76
:100470000C4614432146416110BD002904D0826816
:1004800001231A43826003E0826802231A438260D8
:100490007047002904D0C26801231A43C26003E0F8
:1004A000C26852085200C2607047C26802239A4371
:1004B000C260C2680A43C2607047000010B50446BB
:1004C0000548844207D10121401501F0FFFD0021BC
:1004D000601501F0FBFD10BD0024014030B5014660
:1004E0000020002200238C680125ED072C438C603E
:1004F00000BF8C68E30FDB07521C0F242403A242C9
:1005000001D0002BF5D18C68E40FE407002C01D159
:10051000086C00E0002030BD30B50246002000230A
:10052000012424060C40002C05D0946801252D06DA
:10053000AC43234600E013681C460C40002C01D05D
:10054000012000E0002030BD10B50022C268084B39
:100550001A400C7964030B6823438C682343CC68EE
:1005600023430C6923434C6923431A43C26010BDE3
:1005700003D2FFFF002905D0C26801231B031A43E1
:10058000C26004E0C26801231B039A43C260704743
:10059000816804221143816070470021016001716C
:1005A0008160C16001614161704710B502F07AFB62
:1005B00002F0F6FA02F030FB02F0EEF802F07EF9FB
:1005C00000F0B9FF00F014FF10BD000070B500F09E
:1005D000B1FBDD4801780078401CDB4A1070480010
:1005E000DA49085EDA4909788900DA4A5050D64873
:1005F00001780078401CD44A10704800D349085E46
:10060000D34909788900D44A5050CF4801780078FE
:10061000401CCD4A10704800CC49085ECC4909788E
:100620008900CE4A5050CA480078401CC84908701A
:1006300008460078042806DA00BFC94802F00EFA1E
:100640005528FAD37FE1C24800780328FADD00205C
:10065000C4490870BE490870BB490870BD490968A3
:10066000BC4A52688918BB4A92688918B94AD2684C
:1006700089188808FFF73CFEBB490860B64909683D
:10068000B54A52688918B44A92688918B24AD26841
:1006900089188808FFF72CFEB4490860AF4909683B
:1006A000AE4A52688918AD4A92688918AB4AD26836
:1006B00089188808FFF71CFEAD490860AB4801683F
:1006C000A9480068FFF740FD0446A9480168204694
:1006D000FFF73AFDA7490860A34801688920C005D3
:1006E000FFF78BFD0546A34801682846FFF7C2FDCA
:1006F0000446FFF704FEA04908609C480168892071
:10070000C005FFF77AFD05469A4801682846FFF7BD
:10071000B1FD0446FFF7F3FD98490860944801686D
:100720008920C005FFF769FD054692480168284603
:10073000FFF7A0FD0446FFF7E2FD914908609149EB
:100740000868FFF7D5FD04468A4801682046FFF790
:1007500003FE0FD28B490868FFF7CAFD054685489E
:1007600001682846FFF745FD0446FFF7C8FD8649A6
:1007700008600EE083490868FFF7BAFD05467D482A
:1007800001682846FFF731FD0446FFF7B8FD7E49B2
:1007900008607E48006878490968884207D27B482B
:1007A000006875490968081A7949086006E07748C1
:1007B000006871490968401A754908607548006801
:1007C0006E490968884207D2724800686B49096817
:1007D000081A7149086006E06E48006867490968B0
:1007E000401A6D4908606D4800686549096888428B
:1007F00007D26A48006862490968081A68490860AF
:1008000006E0664800685E490968401A6449086065
:100810005F480068604909684018614909684018E4
:100820006049086058480068096840187D21C9007F
:10083000081A5D49086008460068002802DC0020AC
:10084000086008E0584800687D21C900884202DB42
:100850000846554908605448006854490978890099
:10086000534A505051480078800011460858514969
:1008700000228A5E904207DD4C48007880004C4997
:10088000085A00B24B49088048480078800048491F
:100890000858494900228A5E904207DA43480078A6
:1008A00080004349085A00B2434908803F48007815
:1008B000401C3E49087008460078052812DD0020DB
:1008C00008703C4A115E3C4A135EC81AC117890F72
:1008D00009188910394A11600020364908803848C3
:1008E0003549088035490868C10F09184910354A4B
:1008F00012688918344A1160324800682F49096823
:10090000401A643831490860084600680A2801DA4C
:100910000A200860244800682B490968884203DBE4
:1009200001202B49087008E01F4800682749096822
:10093000884202DC00202649087000BF084802F007
:100940008DF85528FAD370BD34010020D807002057
:1009500035010020FC0700200C0800201C080020A6
:10096000000400400E000020E0000020E400002011
:10097000E8000020EC000020040100200801002015
:100980000C010020C0000020FC000020A800002076
:10099000F0000020B0000020F4000020B80000208B
:1009A000F800002000010020100100202401002098
:1009B0002C08002020010020220100202801002016
:1009C000FF0F0000940000201C01002018010020EF
:1009D00048000020F8B50024002524E000F0AAF922
:1009E0002846691CCDB24000B849085EA100B84A4B
:1009F00050502846691CCDB24000B449085EA100A1
:100A0000B44A50502846691CCDB24000AF49085E38
:100A1000A100B14A5050601CC4B200BFAF4802F000
:100A20001DF85528FAD3042CD8DB0020AC490870F7
:100A3000A7490968A64A52688918A54A9268891880
:100A4000A34AD26889188808FFF752FCA54909789B
:100A50008900A54A50509F4909689E4A52688918E2
:100A60009C4A926889189B4AD26889188808FFF7BF
:100A70003FFC9C49097889009C4A50509649096876
:100A8000954A52688918944A92688918924AD2689D
:100A900089188808FFF72CFC924909788900944A44
:100AA0005050904A12789200904B99588D4A127883
:100AB00092008D4B9858FFF747FB0746894800780E
:100AC00080008B4A11583846FFF73EFB0646FFF779
:100AD0002FFC844909788900864A50508149097859
:100AE00089005058FFF704FC07467E4800788000D4
:100AF0007D4A11588920C005FFF77FFB39460090D9
:100B0000FFF7B8FB0646FFF713FC76490978890022
:100B1000794A5050734909788900764A5058FFF74E
:100B2000E7FB07466F4800788000704A115889201B
:100B3000C005FFF762FB39460090FFF79BFB0646B6
:100B4000FFF7F6FB6749097889006C4A5050654900
:100B500009788900674A5058FFF7CAFB0746614881
:100B600000788000624A11588920C005FFF745FBD4
:100B700039460090FFF77EFB0646FFF7D9FB59493F
:100B8000097889005E4A505056480078401C554903
:100B9000087008460078022870DB0020087056486C
:100BA000406855490968884207D953484068524906
:100BB0000968401A5349086006E04F4800684E49EA
:100BC0004968401A4F4908604C4840684B490968D9
:100BD000884207D94948406848490968401A4A4943
:100BE000086006E04548006844494968401A46499B
:100BF00008604348406842490968884207D940482C
:100C000040683F490968401A4049086006E03C488E
:100C100000683B494968401A3C49086035484068CB
:100C200034490968884207D932484068314909681F
:100C3000401A3749086006E02E4800682D49496887
:100C4000401A334908602F4800682F490968401846
:100C50002E49096840182F4908602D480068096826
:100C6000401840087D21C900081A2B490860084631
:100C70000068C82803DCC820086009E021E0264895
:100C800000687D21C900884202DB084622490860CD
:100C900018480168214801F041FF174801682048C1
:100CA00001F03CFF154801681E4801F037FF144869
:100CB00001681D4801F032FF174801681B4801F028
:100CC0002DFF00201A490870F8BD0000D807002049
:100CD000FC0700200C0800201C0800200004004035
:100CE0000E000020A60000204C0000205400002030
:100CF0005C000020C0000020A8000020B000002000
:100D0000B8000020CC000020D0000020D40000203B
:100D1000D8000020DC0000209400002000600008C3
:100D20000064000800680008006C0008005C00080F
:100D3000A000002010B50021394801F0A5FE0122D5
:100D400004210920C00600F045FC012211020920FF
:100D5000C00600F03FFC00BF314801F07FFE0028D4
:100D6000FAD00022FF2101310920C00600F032FC38
:100D700000202C4908702C48FFF70AFC00BF2948C6
:100D800000780028FBD0002026490870012251027B
:100D90000920C00600F01EFC00BF214801F05EFEE5
:100DA0000228FAD30022012149020920C00600F0DE
:100DB00011FC00201B4908701B48FFF7E9FB00BF2E
:100DC000184800780028FBD000201649087001223E
:100DD00091020920C00600F0FDFB00BF104801F0A1
:100DE0003DFE0328FAD30022012189020920C00612
:100DF00000F0F0FB00200B4908700B48FFF7C8FB20
:100E000000BF084800780028FBD000200549087082
:100E1000002204210920C00600F0DCFB10BD000008
:100E200000040040100000200024014010B5022002
:100E300000F0F2F8002813D00A4800880A49081A7E
:100E400001B20A4802780078401C084B1870500024
:100E5000074A1152012007490870022000F00CF8DF
:100E600010BD0000A4010020FF0F00000E000020B4
:100E7000D8070020100000200121090701400029A7
:100E800002D00349486001E0024948607047000011
:100E90000004024000000240002904D0026801233F
:100EA0001A43026003E00268014B1A400260704777
:100EB000FEFF00000168554A1140016000210160F9
:100EC00041608160C1605249884208D15049083967
:100ED00049680F2211434E4A083A516094E04C4948
:100EE0001431884208D14A4908394968F02211432F
:100EF000474A083A516087E045492831884209D17C
:100F00004349083949680F2212021143404A083AFE
:100F1000516079E03E493C31884209D13C49083969
:100F200049680F2212031143394A083A51606BE0B5
:100F300037495031884209D13549083949680F226B
:100F400012041143324A083A51605DE0304964317D
:100F5000884209D12E49083949680F2212051143E8
:100F60002B4A083A51604FE029497831884209D12B
:100F70002749083949680F2212061143244A083AC2
:100F8000516041E02349884208D122490839496823
:100F90000F2211431F4A083A516035E01D491431B0
:100FA000884208D11B4908394968F0221143194A7F
:100FB000083A516028E017492831884209D115497B
:100FC000083949680F2212021143124A083A516047
:100FD0001AE010493C31884209D10E490839496864
:100FE0000F22120311430B4A083A51600CE00949E1
:100FF0005031884208D10749083949680F22120444
:101000001143044A083A516070470000FEFF000097
:10101000080002400804024001460020002201238B
:101020001B070B40002B02D0064B1A6801E0064B51
:101030001A6813460B40002B01D0012000E000206D
:10104000704700000004024000000240002A03D064
:1010500003680B43036002E003688B43036070473F
:1010600010B5002202680D4B1A400C6A8B682343AE
:101070000C6923434C6923438C692343CC69234384
:101080004C6A23438C6A23431A430260CB68436053
:101090000B6883604B68C36010BD00000F80FFFFCA
:1010A0000021016041608160C16001614161816135
:1010B000C1610162416281627047000000F090FAF4
:1010C000002400E0641C0A2CFCDB43E0224800788A
:1010D000012811DA21480078012804D1FFF776FAB7
:1010E00001F014FA10E01D48007800280CD100F03F
:1010F000D3FA01F00BFA07E0FFF71CFE00BF184817
:1011000001F0ACFC5528FAD316480078002816DD0B
:10111000012109030920C00600F03BFA05462A46D2
:10112000012109030920C00600F054FA0B48007899
:10113000002802D0FFF74EFC01E000F0B5FA00F005
:1011400091FA0649087001F0E3FD07480088401C49
:1011500005490880BAE70000A6000020C80000206A
:1011600000040040A00000202C01002004E0411EEB
:1011700008B2002800DC00E0F9E700BF704700007B
:101180000149C860704700000020024030B50446A5
:1011900004250B20000400F08FF80546042D17D11C
:1011A0000C480069022108430A4908610846446165
:1011B000006940210843074908610B20000400F042
:1011C0007BF805460348006902218843014908610C
:1011D000284630BD0020024004200D49C968C907D7
:1011E000C90F002901D0012010E00949C968102267
:1011F0001140002901D0022008E00549C9680422F5
:101200001140002901D0032000E0042070470000B5
:101210000020024003480069802108430149086119
:10122000704700000020024078B506460C460425B1
:10123000002000900B20000400F03EF80546042D2D
:1012400024D1134800690121084311490861348001
:101250000B20000400F030F80546042D10D1B01C1E
:101260000090200C009908800B20000400F024F866
:10127000054607480069400840000549086105E047
:10128000034800694008400001490861284678BDCC
:10129000002002400548006980210840002804D051
:1012A00003480249486003484860704700200240F4
:1012B00023016745AB89EFCD10B503460424FFF742
:1012C0008BFF044603E0FFF787FF04465B1E012CFB
:1012D00001D1002BF7D1002B00D10524204610BDF1
:1012E00010B51149114800F029F80F4800780E494F
:1012F0004978090240180C498978090440180A49BC
:10130000C978090640180A4908600A4800680A496D
:1013100008600846006806490968884201D101242E
:1013200000E00024204610BD20000020F00700202F
:101330002400002000700008280000202A4A1268BB
:1013400012790270284A1268127A4270264A12688C
:1013500052788270244A1268D278C270224A126887
:1013600012780271204A1268527942711E4A12683C
:10137000927A82711C4A1268D279C2711A4A126832
:10138000527A0272184A126892784272164A1268A9
:10139000D27A8272144A12689279C272134A12681F
:1013A000127803785A400A70104A1268527883798A
:1013B0005A40C3795A40037A5A40437A5A40837A52
:1013C0005A40C37A5A404A70084A126892780379A0
:1013D0005A408A70054A1268D27883785A40437816
:1013E0005A40CA7070470000140000201C00002002
:1013F0001CB501212320400400F028FE684600F0BF
:10140000DDF8802000900121684601710021817182
:1014100041710221C17169460920C00600F043F8FC
:101420001CBD1CB501212320400400F00FFE6846BE
:1014300000F0C4F80120000300900121684601710A
:10144000002181714171C17169460920C00600F017
:101450002AF80120C0020090002168460171417104
:101460000221C17169460920C00600F01CF808205D
:101470000090012168460171002141710221C17172
:1014800069460920C00600F00EF8102000900021E7
:101490006846017141710221C17169460920C00687
:1014A00000F001F81CBDF0B50A460021002300241D
:1014B00000BF3DE001258D402B4615681D402C46A0
:1014C0009C4234D11579012D02D01579022D16D107
:1014D00085684F000326BE40B543856055794E00B0
:1014E000B540866835438560858801268E40B543C2
:1014F0008580858896798E40B6B2354385800568AB
:101500004F000326BE40B543056015794E00B54037
:10151000066835430560C5684F000326BE40B543E5
:10152000C560D5794E00B540C6683543C560491CD5
:101530001029BFD3F0BD1CB50121480400F086FD81
:10154000FF20013000900121684601710021817166
:101550000121C1710321417169460920C006FFF7CD
:10156000A2FF01204002009069460920C006FFF753
:101570009AFF01208002009069460920C006FFF70B
:1015800092FF0420009069460920C006FFF78BFFF8
:101590001CBD02460020138A0B40002B01D0012005
:1015A00000E00020704702460020938A0B40002B89
:1015B00001D0012000E000207047000004490160D4
:1015C000002101710121417100218171C1717047B8
:1015D000FFFF0000002A01D0816100E00185704713
:1015E00010B5124800F024FF11490860114800F0BE
:1015F0001FFF11490870114800F01AFF10490860D8
:10160000104800F015FF10490860104800F010FF66
:101610000F4908600F4800F00BFF0F4908600F48A2
:1016200000F006FF0E49086010BD000000540008DD
:10163000980000200058000880000020005C00088E
:101640009400002000600008C00000200064000832
:10165000A800002000680008B0000020006C00080E
:10166000B800002010B50121C9020920C006FFF70B
:1016700090FF10BD00BFFEE710B50446FFF70AFE5D
:101680003520FFF77DFD2046FFF780FD3520FFF771
:1016900077FDFFF7BFFD10BD10B50248007800F0E0
:1016A0004DF910BD8000002070B50024002524E015
:1016B000FFF740FB2846691CCDB240008C49085E0C
:1016C000A1008C4A50502846691CCDB24000884980
:1016D000085EA100884A50502846691CCDB24000DF
:1016E0008349085EA100854A5050601CC4B200BF07
:1016F000834801F0B3F95528FAD3042CD8DB002035
:1017000080490870002400257A490968794A52689E
:101710008918784A92688918764AD26889188808A0
:10172000FEF7E6FD784909788900784A50507249F9
:101730000968714A526889186F4A926889186E4A16
:10174000D26889188808FEF7D3FD6F4909788900A7
:101750006F4A505069490968684A52688918674A4F
:1017600092688918654AD26889188808FEF7C0FD12
:10177000654909788900674A505063480078401CE1
:101780006149087008460078022876DB002008705E
:101790005E4A51681068FEF7E9FD07D85B4A516858
:1017A0001068FEF722FD5C49086006E0574A1168A0
:1017B0005068FEF71AFD58490860554A516810688C
:1017C000FEF7D4FD07D8524A51681068FEF70DFDA8
:1017D0005249086006E04E4A11685068FEF705FD60
:1017E0004E4908604B4A51681068FEF7BFFD07D8A4
:1017F000484A51681068FEF7F8FC4949086006E05D
:10180000444A11685068FEF7F0FC454908604348B7
:10181000016841480068FEF7A9FD02D23E48006811
:1018200001E03E4800683F4908603D4801683D4886
:101830000068FEF79BFD02D23A48006801E0384894
:101840000068384908603448016836480068FEF787
:1018500083FD13D12D490868FEF751FD3249086018
:1018600000203249087030480168314801F056F9CB
:101870002E4801782F4801F051F934E027480168DB
:1018800028480068FEF768FD13D121490868FEF773
:1018900036FD254908600120244908702248016866
:1018A000234801F03BF921480178224801F036F93C
:1018B00019E01A4801681B480068FEF74DFD12D177
:1018C00014490868FEF71BFD1749086002201749F4
:1018D000087015480168164801F020F9134801788E
:1018E000144801F01BF900201349087070BD000076
:1018F000D8070020FC0700200C0800201C0800204E
:10190000000400400E000020A60000204C00002033
:10191000540000205C0000206400002068000020CB
:101920006C00002070000020980000208000002043
:101930000054000800580008A000002010B504461C
:10194000002C7DD10021FE4801F09EF801220421E7
:101950000920C006FFF73EFE0022012149020920AE
:10196000C006FFF737FE0022012189020920C006C8
:10197000FFF730FE012211020920C006FFF72AFE00
:1019800000BFEF4801F06AF80028FAD00022FF21DA
:1019900001310920C006FFF71DFE0020E94908704B
:1019A000E948FEF7F5FD00BFE64800780028FBD0C7
:1019B0000020E449087000BFE14801F04FF8142806
:1019C000FAD3002204210920C006FFF703FEDF48F6
:1019D00001780078401CDD4A10704800DC49085E40
:1019E000DC4909788900DC4A5050DA480078401C0C
:1019F000D849087000BFD24801F030F85528FAD312
:101A0000D4480078032877DD0020D4490870D149F4
:101A10000870CE490870D0480068CF49496840181E
:101A2000CD4989684018CC49C96840188008CC491C
:101A30000860084600680A2801DA0A20086000E009
:101A400069E0C7480068C749884202DB0846C449C4
:101A50000860C3480068C44909788900C34A5050E7
:101A6000C1480078800011460858C14900228A5EAA
:101A7000904207DDBC4800788000BC49085A00B29B
:101A8000BB490880B84800788000B8490858B9496F
:101A900000228A5E904207DAB34800788000B3499A
:101AA000085A00B2B3490880AF480078401CAE49DC
:101AB00008700846007807280FDD00200870AC4940
:101AC000085EAC4900228A5E801AAB49086000209B
:101AD000A7490880A348A7490880A7490868C10FFB
:101AE00009184910A54A126889189D4A126891423E
:101AF00003DA0120A2490870FFE1A04800689E496E
:101B00000968401A9638964909688842F4DD002031
:101B10009B490870F1E1012C7ED10021884800F03A
:101B2000B3FF012204210920C006FFF753FD002264
:101B300021020920C006FFF74DFD0022A102092065
:101B4000C006FFF747FD012251020920C006FFF73A
:101B500041FD00BF7A4800F081FF0028FAD0002242
:101B6000012149020920C006FFF734FD0020754914
:101B700008707548FEF70CFD00BF72480078002819
:101B8000FBD000206F49087000BF6D4800F066FF71
:101B90001428FAD3002204210920C006FFF71AFDF9
:101BA0006A4801780078401C684A1070480068490B
:101BB000085E684909788900674A5050654800788E
:101BC000401C6449087000BF5D4800F047FF55287D
:101BD000FAD36048007803288EDD00205F49087042
:101BE0005C490870594908705B4800685A4949685F
:101BF00040185949896840185749C96840188008F1
:101C000057490860084600680A2801DA0A20086077
:101C100053480068534900E066E0884202DB08460A
:101C20004F4908604E4800684F49097889004F4A7B
:101C300050504D4800788000114608584C49002209
:101C40008A5E904207DD4848007880004749085A7C
:101C500000B247490880444800788000434908584A
:101C6000444900228A5E904207DA3F4800788000AB
:101C70003E49085A00B23F4908803B480078401C62
:101C8000394908700846007807280FDD00200870E1
:101C90003749085E374900228A5E801A3649086053
:101CA0000020334908802F483249088032490868AB
:101CB000C10F09184910314A12688918284A126858
:101CC000914203DA01202E49087016E12B48006882
:101CD00029490968401A9638214909688842F4DD83
:101CE00000202749087008E1022CEED10021144899
:101CF00000F0CAFE012204210920C006FFF76AFC99
:101D00000022E1010920C006FFF764FC0022210245
:101D10000920C006FFF75EFC012291020920C006DF
:101D2000FFF758FC00BF064800F098FE0028FAD0E4
:101D30000022012189020920C006FFF74BFC21E0A7
:101D40000004004010000020002401403601002063
:101D5000D807002037010020FC0700200E000020DB
:101D600014010020FF0F0000240100202C08002097
:101D700020010020220100202801002098000020DE
:101D80004800002000205D4908705D48FEF700FC17
:101D900000BF5A4800780028FBD00020574908703F
:101DA00000BF584800F05AFE1428FAD3002204213C
:101DB0000920C006FFF70EFC534801780078401C4C
:101DC000514A107048005149085E5149097889000C
:101DD000504A50504E480078401C4D49087000BF92
:101DE000484800F03BFE5528FAD3494800780328BC
:101DF00075DD00204849087045490870424908705F
:101E00004448006843494968401842498968401875
:101E10004049C96840188008404908600846006881
:101E20000A2801DA0A2008603C4800683C498842D8
:101E300002DB0846394908603848006839490978A2
:101E40008900394A505037480078800011460858B8
:101E5000364900228A5E904207DD324800788000D1
:101E60003149085A00B2314908802E480078800074
:101E70002D4908582E4900228A5E904207DA2948E7
:101E8000007880002849085A00B22949088025486E
:101E90000078401C234908700846007807280FDDA9
:101EA000002008702149085E214900228A5E801ABC
:101EB0002049086000201D49088019481C490880F5
:101EC0001C490868C10F091849101B4A1268891873
:101ED000124A1268914203DA0120184908700CE096
:101EE0001548006813490968401A96380B49096873
:101EF000884202DD00201149087010BD100000204A
:101F0000002401400004004036010020D8070020D2
:101F100037010020FC0700200E00002014010020E3
:101F2000FF0F0000240100202C08002020010020C9
:101F300022010020280100209800002048000020F5
:101F40007047000000218278002A27D0184A032316
:101F50001B02D21803789B109B00D158027892077D
:101F6000D30EFF229A400B469343194642789207BC
:101F7000120E03789B07DB0E9A4011430C4A032391
:101F80001B02D21803789B109B00D1500278D30615
:101F9000DB0E01229A40064B1A6007E00278D30656
:101FA000DB0E01229A40024B80331A60704700001A
:101FB00000E100E07047000010B5134800F038FA67
:101FC00012490860084600681149884203DC0F483E
:101FD0000068002804DA00200C49086000F040FA8C
:101FE0000A480068401C094908600846016806481C
:101FF00000F094FD3220FFF7B9F80448006801288A
:1020000001DC00F02DFA10BD005000083000002067
:10201000FFFF00000C4949680122920391430A4ADC
:1020200051601146496882B21143074A5160114616
:10203000096B92159143044A11631146096B020C16
:102040001143014A1163704700100240002905D076
:10205000054A52690243044B5A6104E0024A52693C
:102060008243014B5A61704700100240002905D09D
:10207000054AD2690243044BDA6104E0024AD2699C
:102080008243014BDA61704700100240002905D0FD
:10209000054A12690243044B1A6104E0024A1269BC
:1020A0008243014B1A61704700100240002905D09D
:1020B000054A92690243044B9A6104E0024A92691C
:1020C0008243014B9A61704700100240002905D0FD
:1020D000054AD2680243044BDA6004E0024AD2683F
:1020E0008243014BDA6070470010024010B50521B1
:1020F000C9040120C00300F07BF9012000F064F95D
:102100000848FFF787FF00BF192000F031F90028C9
:10211000FAD0022000F07EF900BF00F04DF9082847
:10212000FBD110BD00400001FEB50446002500268D
:1021300000200290019000900027864840680C2102
:1021400008400546002D06D0042D07D0082D08D0E4
:102150000C2D2CD128E0804820602BE07E482060A8
:1021600028E07C4840680F218904084006467948E9
:1021700040680321C90308400290B00C861C0298F5
:10218000002803D17548374647430BE07148C06AC1
:102190000007000F401C01906F480199FDF7BEFF3A
:1021A00070430746276005E06D48206002E06A48FA
:1021B000206000BF00BF67484068F0210840054626
:1021C0002D096848405D009020680099C840606013
:1021D0006048406807210902084005462D0A614809
:1021E000405D009061680098C140A1605948006B53
:1021F000FF2101310840884202D05B48E0600DE0D9
:1022000054484068012189030840884203D0A068EF
:102210004008E06002E0A0688008E0604D48006B84
:1022200040210840402802D05048206102E00120AF
:10223000C00320614748006B10210840102802D0DD
:102240004548606101E0206860614248006B80079A
:10225000800F002802D1A068A06119E03D48006B02
:102260008007800F012802D12068A06110E0394862
:10227000006B8007800F022802D18003A06107E075
:102280003448006B8007800F032801D13248A061D9
:102290003048006B032109040840002802D1A068DF
:1022A000E06120E02B48006B032109040840012174
:1022B0000904884202D12068E06114E02548006BDF
:1022C00003210904084001214904884202D18010F9
:1022D000E06108E01F48006B0321090408408842C0
:1022E00001D11D48E0611B48006B032189040840AF
:1022F000002802D1A068206220E01648006B03216C
:102300008904084001218904884202D120682062A2
:1023100014E01048006B0321890408400121C9041E
:10232000884202D10011206208E00A48006B0321B4
:1023300089040840884201D1074820620548006BA3
:1023400080210840802802D00548606200E0676272
:10235000FEBD00000010024000127A0000093D009E
:10236000006CDC0294010020809FD50012800000E8
:1023700010B502460021002300205111002902D18E
:102380000C4C23680BE0012902D10A4C236A06E0B9
:10239000022902D1074C636A01E0064C636BD10647
:1023A000C90E01248C401C40002C01D0012000E00B
:1023B000002010BD00100240024840680C21084077
:1023C0007047000000100240002807D00749096844
:1023D000012212061143054A116006E0034909680B
:1023E000012212069143014A116070470010024019
:1023F000074A52687B23DB039A43054B5A601A460F
:10240000526803460B431A43014B5A607047000061
:102410000010024001460020044A506880088000F5
:1024200002460A431046014A5060704700100240BD
:1024300010B501460B460A460868084C206004E0C7
:102440000A46091D0868054C206004480068401CC5
:102450000028F5D11068014C206010BD90010020CB
:1024600010B5FF20F5301B49086000201A4908709C
:10247000FF20F53019490860002019490860194902
:10248000086019490860194908601248016818482D
:1024900000F044FB10480178164800F03FFB0F485D
:1024A0000168154800F03AFB0D480168134800F038
:1024B00035FB0C480168124800F030FB0A480168FF
:1024C000104800F02BFB094801680F4800F026FB7C
:1024D00010BD000098000020800000209400002023
:1024E000C0000020A8000020B0000020B80000209C
:1024F0000054000800580008005C00080060000854
:102500000064000800680008006C000810B53D4831
:102510000078002838D03C480068FF212D318842DF
:102520000AD33A48007800F078F8012208210920FF
:10253000C006FFF74FF863E033480068FF212D31F4
:1025400088425DD232480088FF21F531884213DB92
:1025500000202F49088008210920C006FFF723F832
:10256000002801D1012000E0002004462246082175
:102570000920C006FFF72EF80022012109030920D7
:10258000C006FFF727F83BE01E480078002837D147
:1025900020480068FF212D3188420ADD1B48007861
:1025A00000F03BF8012208210920C006FFF712F8CD
:1025B00026E018480068FF212D31884220DC1448AD
:1025C0000088FF21F531884213DB00201049088084
:1025D00008210920C006FEF7E6FF002801D10120EE
:1025E00000E000200446224608210920C006FEF72C
:1025F000F1FF0022012109030920C006FEF7EAFFCE
:1026000010BD0000C8000020C000002048000020CD
:102610002C01002014010020704710B50446012C45
:1026200006D1012201030920C006FEF7D3FF06E010
:102630000022012109030920C006FEF7CBFF10BDCF
:102640000CB5002001900090314800680121090478
:1026500008432F49086000BF2D4800680121490444
:10266000084000900198401C01900098002804D177
:102670000521090301988842EED12548006801210F
:1026800049040840002802D00120009001E0002009
:1026900000900098012839D111201E4908601C487B
:1026A00040681B49486008464068486008464068E2
:1026B0007F21C903884316494860084640681121B4
:1026C00009040843124948600846006801210906C8
:1026D00008430F49086000BF0D4800680121490602
:1026E00008400028F8D00A4840688008800008495F
:1026F000486008464068022108430549486000BF19
:10270000034840680C2108400828F9D10CBD00009E
:1027100000100240002002407047000010B51B4826
:1027200000680121084319490860084640681849B3
:102730000840164948600846006816490840134991
:102740000860084600680121890488430F49086031
:10275000084640683F21090488430C494860084600
:10276000C06A00090001C8620846006BFF215431AD
:102770008843064908630846406B400840004863A8
:1027800000208860FFF75CFF10BD000000100240D1
:102790000CB8FF08FFFFF6FE1FB501210802FFF786
:1027A00065FC114800F0D8F813216846017001213A
:1027B00081704170FFF7C6FB01A800F0A5F9002168
:1027C00068468181C1807D20C00002902F2168462B
:1027D00081800021817301A9034800F057F901218C
:1027E000014800F0ABF81FBD0020004010B50121EA
:1027F000144800F036F9002822D013480088401C05
:102800001149088080210920C006FEF7CCFE00286F
:1028100001D1012000E00020044622468021092049
:10282000C006FEF7D7FE084800880A2804DB00200F
:102830000549088000F06CFA0121024800F07BF89D
:1028400010BD000000200040A400002010B50121B0
:10285000134800F006F9012803D10121104800F0C7
:1028600067F802210E4800F0FCF8002803D002218E
:102870000B4800F05DF80421094800F0F2F8002848
:1028800003D00421064800F053F80821044800F062
:10289000E8F8002803D00821014800F049F810BDED
:1028A000002C014010B50121880700F0DAF800285B
:1028B00003D00121880700F03BF810BD1FB50121AE
:1028C0000220FFF7D3FB10216846017001218170BF
:1028D00004214170FFF736FB0D4800F03DF801A8D8
:1028E00000F012F9002168468181C1807D20C0007E
:1028F00002902F21684681800021817301A904483C
:1029000000F0C4F80121024800F018F81FBD0000D3
:102910000004004010B50121044800F0A2F800288E
:1029200003D00121014800F006F810BD000400406A
:10293000CA4302827047CA4302827047002904D00A
:10294000028801231A43028003E00288014B1A40E7
:1029500002807047FEFF000010B5044637488442ED
:1029600008D10121C014FFF7B1FB0021E014FFF7EB
:10297000ADFB62E001208007844208D101210846B6
:10298000FFF784FB00210120FFF780FB55E02C4876
:10299000844208D101210220FFF778FB00210220A8
:1029A000FFF774FB49E02748844208D10121102039
:1029B000FFF76CFB00211020FFF768FB3DE0224889
:1029C000844208D101212020FFF760FB0021202054
:1029D000FFF75CFB31E01D48844208D101218015DE
:1029E000FFF754FB0021A015FFF750FB25E0184826
:1029F000844209D101210804FFF768FB002101206E
:102A00000004FFF763FB18E01248844209D101215A
:102A10004804FFF75BFB002101204004FFF756FB51
:102A20000BE00D48844208D101218804FFF74EFBDA
:102A3000002101208004FFF749FB10BD002C01405C
:102A4000000400400010004000140040002000403E
:102A50000040014000440140004801400146486AEE
:102A6000704730B50246002000230024158A0D402F
:102A70002B4695890D402C46002B03D0002C01D00D
:102A8000012000E0002030BD416270470022028832
:102A9000154B984206D001239B07984202D0134B56
:102AA000984203D1124B1A404B881A43114B98425B
:102AB00003D0114B1A400B891A4302804B68C36242
:102AC0000B880385084B984208D00C4B984205D0E0
:102AD0000B4B984202D00B4B984201D18B7A038664
:102AE0000123838270470000002C01400004004055
:102AF0008FFF000000100040FFFC0000004001407C
:102B000000440140004801400021C94341600021C8
:102B100001800181418081727047000070B50446D8
:102B20000E46254620680C4908600BE0241D601BFA
:102B300001218902884202D92846FEF79DFD2068BE
:102B40000549086004480068401C0028EED1314661
:102B5000204600F003F870BD9001002070B50446D7
:102B60000D46FEF797FB3520FEF70AFB2946204667
:102B7000FEF75AFB3520FEF703FBFEF74BFB70BD5B
:102B800002E008C8121F08C1002AFAD17047704736
:102B9000002001E001C1121F002AFBD17047000094
:102BA00000B587B001214802FFF780FA1848FDF709
:102BB00085FC01A8FDF7F1FC00206946087205902C
:102BC0000190069001A91248FDF7BEFC01211048B2
:102BD000FDF7D0FC012211460D48FDF742FC0C48E0
:102BE000FDF77CFC01210A48FDF747FC00BF0949BD
:102BF0000748FDF791FC0028F9D001210448FDF7B2
:102C000048FC02210248FDF750FC07B000BD00005F
:102C1000002401400100000100B58DB001210846EB
:102C2000FFF714FA09216846017101218171002121
:102C3000417101A8FFF786F91748FEF73BF902A892
:102C4000FEF72EFA01200590002004900C90134806
:102C500003900120800209908020079020200A9094
:102C60000F48029080150890002006900120400334
:102C70000B9002A90848FEF7F3F901220221064849
:102C8000FEF7E4F90220FEF7F7F801210248FEF70B
:102C900003F90DB000BD000008000240A4010020AF
:102CA000402401401CB501214804FFF7CFF96846D4
:102CB000FEF784FC01200090032168460171002189
:102CC000817141710121C17169460920C006FEF779
:102CD000EAFB1CBD10B5FFF709FAFEF7A2FBFDF7F2
:102CE00064FC0848FFF720FA0748FEF73FFAFEF7B2
:102CF000F7FA06490870FFF75FF9FEF7DFF90020E1
:102D000010BD0000B0070020881300001100002053
:102D100010B510210920C006FEF73BFC012805D1A3
:102D200018480088401C174908802AE01548008888
:102D3000642807DD13480078134908700020114902
:102D400008801EE00F48008864280BDA0D480088D0
:102D5000322807DD0B4800780B490870002009492C
:102D600008800EE00748008832280ADA0548008803
:102D7000022806DD03480078034908700020014955
:102D8000088010BDA2000020A0000020AC2D00088B
:102D900000000020A401000028040008DC2D000829
:102DA000A4010020AC0A0000902B000801153AACE9
:102DB000F7FF1F431910191802752033F401032F70
:102DC000F401025A01D3E80332320265121D0102F6
:0C2DD000030401020304060708090000C8
:04000005080000B13E
:00000001FF
