:020000040800F2
:10000000700C0020C500000891290008F91B0008A9
:1000100000000000000000000000000000000000E0
:10002000000000000000000000000000393000085F
:100030000000000000000000052A000881310008CF
:10004000F5000008F5000008F5000008F5000008BC
:10005000F5000008F5000008F5000008F5000008AC
:1000600000000000B9130008F5000008F5000008C2
:10007000F5000008B5320008F50000080D3300084F
:100080007D33000800000000000000005532000829
:1000900000000000F5000008F5000008F500000869
:1000A00000000000F500000800000000F500000856
:1000B0000348854600F08CFB00480047693700087C
:1000C000700C00200C4880F308880C480168090E69
:1000D0000B4A914205D10B480B4901600B480C4972
:1000E00001600C4880470C480047FEE7FEE7FEE74A
:1000F000FEE7FEE7FEE70000700C002004000000B1
:100100001F00000018100240010000000000014024
:100110000000000085310008B100000830B50B4632
:10012000014600202022012409E00D46D5409D42D1
:1001300005D31D469540491B254695404019154657
:10014000521E002DF1DC30BDF8B502464A40D40FF6
:1001500042004B0052085B089A4202D2024608460F
:1001600011464A0023D0C30D4A00DDB2120EAD1A6B
:10017000202D35DA49020126490AF6058A19002C94
:1001800000D0524220214F1B1146B9402A4110187D
:10019000C20D9A4221D0002C17D0012D08DCDA05BF
:1001A000801AD20F8019D207DBB200F079FAF8BDBD
:1001B000DA05801A012340001B06C01880185A4235
:1001C0008018CA0F1043490007E04908C2071143CD
:1001D000DA05801A80194008801800F059FAF8BD35
:1001E00061000122511A001BF7E70122D20751409A
:1001F000AAE70122D2075040A6E7024670B54A405E
:10020000D30FDB0740002DD04A002AD0010E140E78
:10021000000212020919400A520A8418E501044634
:100220005443000A120A2E045043A4194219200C08
:10023000C543AA18120C0125AD03521C5219120411
:100240007F39240400D0521C104301D44000491EC1
:10025000C2B20C06C0092018401C4008802A02D0F7
:1002600003E0002070BD40084000002900DA0020B3
:10027000184370BD70B502464A40D50F40004A0091
:10028000ED0740085208002814D0002A12D0C40DEF
:10029000D30D41020120C0055202490A520AE41A54
:1002A000091812187D34914201D3641C00E0490002
:1002B000002C01DA002070BD0023914201D3891A7D
:1002C0000343400849000028F7D100290AD0914291
:1002D00002D10121C90705E0914201D2012101E0CB
:1002E0000121C943E005C018401900F0D1F970BDE3
:1002F000F0B507460846584087B0C00F0490480044
:100300000E46590040084908BC1A884105D23846B3
:1003100031461E4617460B46024658004008104319
:100320004CD0300D039040055900400D490D05900B
:10033000401A0290402872DA18030121000B0905C7
:100340000843019004980092002805D00199524278
:100350000020884100920190029840210A1A0199D8
:10036000009800F061F905460C466B4607CB00F09B
:100370007CF9C0197141039A0E0D0023D71756401E
:100380001A467A40164344D0049A002A2DD0029A85
:10039000012A039A15DC1205C01A9141012636057F
:1003A000001C7141D20F059ED20700930192029664
:1003B0002A46234600F0BAF907B0F0BD3846314668
:1003C000FAE71605224A0F46B218C01AB7410121B2
:1003D0000905001C4F4100187F411146181879414A
:1003E000E20F10436D19644113E0E2076D081543F5
:1003F0006408C2071443039A01261205C01A9141EA
:100400003605001C7141CE07400830434908C0182A
:1004100051412A46234600F07CF9CDE7FFE70498D6
:1004200001224000C117121A00238B410498314663
:10043000C417381AA141EEE730B40124E407634041
:1004400030BC55E730B40124E407614030BC4FE7CD
:100450000000E0FFF0B51FB488B00B9909980024A4
:1004600048400999C00F490049080991C0070B99F4
:100470000090490049080B9109990898A64608433D
:100480001CD00B990A98084318D009980124400001
:10049000420D4800410D099824050003000B20433C
:1004A00009900B980003000B20430B9050181C4937
:1004B0004018002201901446104605E00020014635
:1004C0000DB0F0BD032801DA034600E003239C468B
:1004D000C11A0AAE0AE05F0008ADED5B4F00F75BA2
:1004E0007D430027AA187C41491C5B1E6145F2DD53
:1004F000410004AB5A522104120C0A43240C401C44
:100500000828DFDB01980290009970460191009065
:10051000059B049A0799069800F008F9D0E70000B7
:100520000DFCFFFF10B500229623114600F0B8F82D
:1005300010BD00000EB5C217C10F5040CA074018C9
:100540000021054B0293019200910A460B4600F0F0
:10055000EDF803B000BD000033040000C20F4100FD
:1005600040020123400ADB05D207090EC0187F298B
:1005700001DA00207047962903DC9623591AC840F7
:1005800001E096398840002AF4D04042704741008B
:1005900040020122400AD205090E80187F2901DAA3
:1005A00000207047962903DC9622511AC8407047F4
:1005B000963988407047000070B5CD0F4A00090396
:1005C0000123090B1B0519430B4BED070024520DAA
:1005D0009A4201DA002070BD074B34339A4203DCA3
:1005E0009A1A00F031F802E00449511888402C436F
:1005F000F1D0404270BD0000FF030000CDFBFFFFC3
:100600000122D207002800DB101A002900DB511A52
:10061000814270470122D207002800DB101A00290E
:1006200000DB511A8842704710B5202A04DB0146CE
:10063000203A9140002010BD914020239C1A03468F
:10064000E3401943904010BD10B5202A04DB084652
:10065000203AD040002110BD0B46D340D04020248A
:10066000A21A91400843194610BD10B5202A06DB96
:10067000CB170846203A1041C1170B4306E00B4642
:100680001341D0402024A21A91400843194610BDBE
:10069000002904DA401C490001D14008400070479D
:1006A00070B40024050C05D11024000402D10029E7
:1006B00021D01124050E01D100020834050F01D10B
:1006C0000001241D850F01D18000A41C002801DB3E
:1006D0004000641C002908D020252E1B0D46F54043
:1006E000A14000D001212943084301061B1B000A39
:1006F000DB1D02D5002070BC7047DB051818801880
:100700000029F8DA401C4900F5D170BC40084000CF
:10071000704710B5002B08DA0024401C6141921884
:100720005B411A4301D14008400010BDF0B51FB431
:1007300082B005460C0003D0084602F055FF02E0E7
:1007400002F052FF20300246009021462846FFF773
:100750006BFF049B059A04460F4618431143084358
:1007600014D0184610431BD0009840210A1A18468E
:100770000599FFF769FF05460E46009A059904980A
:10078000FFF752FF084305D0012004E02046394618
:1007900007B0F0BD0020C11705430E432C4337437B
:1007A00000990E986305401A7905E40A00220C436B
:1007B000FD0A0A3002D500200146E9E701051019BB
:1007C00069410C9C0D9D00196941FFF7A2FFDFE70D
:1007D000064C0125064E05E0E36807CC2B430C3C94
:1007E00098471034B442F7D3FFF766FC343800085A
:1007F0005438000830B58C180278401C13071B0FC2
:1008000001D10378401C120906D10278401C03E094
:1008100005780D70401C491C5B1EF9D101E00B707E
:10082000491C521EFBD1A142E6D3002030BD10B5B9
:100830000B460021846A1C43846200BF0C461443AB
:100840002146416110BD002904D0826801231A436A
:10085000826003E0826802231A43826070470029A5
:1008600004D0C26801231A43C26003E0C268520880
:100870005200C2607047C26802239A43C260C268D5
:100880000A43C2607047000010B504460548844220
:1008900007D10121401502F041F90021601502F055
:1008A0003DF910BD0024014030B501460020002272
:1008B00000238C680125ED072C438C6000BF8C68F9
:1008C000E30FDB07521C0F242403A24201D0002BAC
:1008D000F5D18C68E40FE407002C01D1086C00E02E
:1008E000002030BD30B5024600200023012424063C
:1008F0000C40002C05D0946801252D06AC432346FE
:1009000000E013681C460C40002C01D0012000E0E0
:10091000002030BD10B50022C268084B1A400C7987
:1009200064030B6823438C682343CC6823430C691E
:1009300023434C6923431A43C26010BD03D2FFFF17
:10094000002905D0C26801231B031A43C26004E0DA
:10095000C26801231B039A43C26070478168042266
:100960001143816070470021016001718160C160A5
:1009700001614161704710B502F0DEFE02F05AFEDF
:1009800002F094FE02F03CFC02F0CCFC01F093F883
:1009900000F0EEFF10BD0000F0B585B000F08AFC5D
:1009A000FE4801780078401CFC4A10704800FC4961
:1009B000085EFC4909788900FB4A5050F7480178E5
:1009C0000078401CF54A10704800F549085EF5496A
:1009D00009788900F54A5050F04801780078401CA9
:1009E000EE4A10704800EE49085EEE490978890029
:1009F000EF4A5050EB480078401CEA49087008461E
:100A00000078042806DA00BFEA4802F05BFD64289B
:100A1000FAD354E2E34800780328FADD0020E649DF
:100A20000870E0490870DD490870DF490968DE4A4E
:100A300052688918DC4A92688918DB4AD26889189A
:100A40008808FFF76FFDDD490860D8490968D74A73
:100A500052688918D54A92688918D44AD268891888
:100A60008808FFF75FFDD6490860D1490968D04A78
:100A700052688918CE4A92688918CD4AD268891876
:100A80008808FFF74FFDCF490860CD480168CB4883
:100A90000068FFF759FB0446CA4801682046FFF783
:100AA00053FBC9490860C548016823204006FFF789
:100AB000A4FB0546C44801682846FFF7DBFB044653
:100AC000FFF74CFDC1490860BD480168232040067E
:100AD000FFF793FB0546BC4801682846FFF7CAFBB1
:100AE0000446FFF73BFDBA490860B6480168232079
:100AF0004006FFF782FB0546B34801682846FFF72A
:100B0000B9FB0446FFF72AFDB2490860B2490868FC
:100B1000FFF708FD0446AC4801682046FFF770FD6A
:100B20000FD2AD490868FFF7FDFC0546A6480168ED
:100B30002846FFF75EFB0446FFF710FDA749086053
:100B40000EE0A5490868FFF7EDFC05469E480168E0
:100B50002846FFF74AFB0446FFF700FD9F4908605F
:100B60009F48006899490968884207D29C480068F4
:100B700096490968081A9B49086006E09848006889
:100B800092490968401A9749086097480068904957
:100B90000968884207D2944800688D490968081A94
:100BA0009249086006E09048006889490968401A3F
:100BB0008E4908608E48006886490968884207D2D5
:100BC0008B48006883490968081A8A49086006E06A
:100BD000874800687F490968401A864908607F494C
:100BE0000868C10F091849107C4A11607D490968DD
:100BF0007E4A126889187F4A126889188A00881804
:100C0000C117890F091889107B4A11607348006861
:100C10001146096840187D21C900081A7749086003
:100C200008460068002802DC0020086008E07348DD
:100C300000687D21C900884202DB08466F490860D0
:100C40006E4800686E49097889006E4A50506C48B9
:100C500000788000114608586B4900228A5E904255
:100C600007DD6748007880006649085A00B2664987
:100C70000880634800788000624908586349002270
:100C80008A5E904207DA5E48007880005D49085A23
:100C900000B25E4908805A480078401C58490870E4
:100CA0000846007807280FDD002008705649085EC6
:100CB000564900228A5E801A554908600020524930
:100CC00008805448514908804C48006852490978C6
:100CD0008900524A50505048007880001146085808
:100CE0004F4900228A5E904207DD4B480078800021
:100CF0004A49085A00B24A490880474800788000AB
:100D000046490858474900228A5E904207DA42481D
:100D1000007880004149085A00B2424908803E48A4
:100D20000078401C3C4908700846007803280FDD15
:100D3000002008703A49085E3A4900228A5E801A0B
:100D40003949086000203649088032483549088012
:100D50002F480068FFF7EEFB04460022334BFFF7F5
:100D600079FB0191009032480068FFF7E3FB0646EB
:100D7000019B009AFFF7BCFA03910290FFF71CFC5D
:100D80002C4908602A48006821490968401A32380D
:100D900029490860084600680A284FE04001002001
:100DA000E8070020410100200C0800201C0800205A
:100DB0002C080020000400400E000020E00000206D
:100DC000E4000020E8000020EC00002004010020E6
:100DD000080100200C010020C0000020FC000020C1
:100DE000A8000020F0000020B0000020F400002047
:100DF000B8000020F80000200001002010010020B1
:100E0000240100203C0800202001002022010020B5
:100E100028010020FF0F0000300100205C080020A6
:100E20002C0100202E010020340100200000D03FC2
:100E3000940000201C0100201801002001DA0A2083
:100E400008602048006820490968884211DB0020BA
:100E50001E4908701E480078401C1D49087008464D
:100E6000007804281BDB0020087001201949087055
:100E700015E0144800681849096888420FDC002012
:100E80001349087011480078401C10490870084642
:100E90000078042803DB002008700E49087000F079
:100EA000CFFE02F065F800F09DFE0C49087002F0DC
:100EB00083FC00BF0A4802F005FB6428FAD305B0A2
:100EC000F0BD0000100100201C01002043010020A3
:100ED000420100204800002018010020C800002026
:100EE00000040040F8B50024002524E000F0E2F9F9
:100EF0002846691CCDB24000D449085EA100D44AFE
:100F000050502846691CCDB24000D049085EA1006F
:100F1000D04A50502846691CCDB24000CB49085EEB
:100F2000A100CD4A5050601CC4B200BFCB4802F0B3
:100F3000C9FA6428FAD3032CD8DB00F0BBF92846A1
:100F4000691CCDB24000C149085EA100C04A5050A2
:100F50002846691CCDB24000BC49085EA100BD4ACC
:100F600050502846691CCDB24000B849085EA10027
:100F7000B94A5050601CC4B200BFB84802F0A2FA8F
:100F80006428FAD30020B649087000240025B0492F
:100F90000968AF4A52688918AD4A92688918AC4A04
:100FA000D26889188808FFF7BDFAAE490978890028
:100FB000AD4A5050A7490968A64A52688918A54AFF
:100FC00092688918A34AD26889188808FFF7AAFA94
:100FD000A44909788900A54A50509F4909689E4A4A
:100FE000526889189C4A926889189B4AD268891865
:100FF0008808FFF797FA9B49097889009C4A505066
:10100000984A12789200994B9958964A1278920011
:10101000954B9858FFF798F807469248007880005B
:10102000934A11583846FFF78FF80646FFF7AFFA94
:101030008C49097889008F4A50508A49097889007B
:101040005058FFF76FFA0746864800788000864AB6
:10105000115823204006FFF7D0F839460090FFF7DB
:1010600009F90646FFF793FA7E4909788900824A12
:1010700050507C49097889007E4A5058FFF752FA4F
:101080000746784800788000784A115823204006A7
:10109000FFF7B3F839460090FFF7ECF80646FFF784
:1010A00076FA704909788900744A50506D49097878
:1010B0008900704A5058FFF735FA074669480078AA
:1010C00080006B4A115823204006FFF796F83946F6
:1010D0000090FFF7CFF80646FFF759FA6149097803
:1010E0008900674A50505F480078401C5D4908708D
:1010F00008460078022879DB002008705E484068C6
:101100005D490968884207D95B4840685A490968BF
:10111000401A5C49086006E057480068564949682B
:10112000401A58490860554840685449096888423F
:1011300007D95248406851490968401A5249086025
:1011400006E04E4800684D494968401A4E4908601B
:101150004B4840684A490968884207D9484840686E
:1011600047490968401A4949086006E04448006850
:1011700043494968401A454908603E4840683D492E
:101180000968884207D93B4840683A490968401ACB
:101190003F49086006E03748006836494968401A08
:1011A0003B4908603A4800684008394908603548BA
:1011B00000683549096840183449096840188100B9
:1011C00040188008334908603148006809684018B1
:1011D00040087D21C900081A64382F490860084674
:1011E0000068642803DC6420086009E021E02A48E4
:1011F00000687D21C900884202DB08462649086054
:101200001C480168254802F0BDF91B4801682448C4
:1012100002F0B8F919480168224802F0B3F91848F9
:101220000168214802F0AEF91B4801681F4802F02E
:10123000A9F900201E49087002F0BEFA00BF074855
:1012400002F040F96428FAD3F8BD0000E807002056
:101250000C0800201C0800202C080020000400407E
:101260000E000020A60000204C00002054000020AA
:101270005C000020C0000020A8000020B00000207A
:10128000B8000020CC000020D0000020D4000020B6
:10129000D8000020DC00002094000020006000083E
:1012A0000064000800680008006C0008005C00088A
:1012B000A000002010B500213C4802F019F900BF41
:1012C0003A4802F0FFF80028FAD001220421092050
:1012D000C00600F03FFC012211020920C00600F008
:1012E00039FC00BF314802F0EDF80028FAD00022A6
:1012F000FF2101310920C00600F02CFC00202C4900
:1013000008702C48FFF72AFB00BF29480078002806
:10131000FBD0002026490870012251020920C00696
:1013200000F018FC00BF214802F0CCF80228FAD3E4
:101330000022012149020920C00600F00BFC002018
:101340001B4908701B48FFF709FB00BF18480078CD
:101350000028FBD0002016490870012291020920C4
:10136000C00600F0F7FB00BF104802F0ABF80328FE
:10137000FAD30022012189020920C00600F0EAFB0D
:1013800000200B4908700B48FFF7E8FA00BF084837
:1013900000780028FBD000200549087000220421B5
:1013A0000920C00600F0D6FB10BD0000000400407C
:1013B000100000200024014010B5022000F0F2F8D7
:1013C000002813D00A4800880A49081A01B20A48BE
:1013D00002780078401C084B18705000074A1152E0
:1013E000012007490870022000F00CF810BD000031
:1013F000B4010020FF0F00000E000020E8070020CD
:1014000010000020012109070140002902D00349F2
:10141000486001E002494860704700000004024053
:1014200000000240002904D0026801231A43026030
:1014300003E00268014B1A4002607047FEFF0000A3
:101440000168554A114001600021016041608160DE
:10145000C1605249884208D15049083949680F2271
:1014600011434E4A083A516094E04C491431884285
:1014700008D14A4908394968F0221143474A083AD5
:10148000516087E045492831884209D143490839EC
:1014900049680F2212021143404A083A516079E02C
:1014A0003E493C31884209D13C49083949680F22FC
:1014B00012031143394A083A51606BE03749503101
:1014C000884209D13549083949680F22120411436D
:1014D000324A083A51605DE030496431884209D1AE
:1014E0002E49083949680F22120511432B4A083A40
:1014F00051604FE029497831884209D1274908399C
:1015000049680F2212061143244A083A516041E00B
:101510002349884208D12249083949680F221143DA
:101520001F4A083A516035E01D491431884208D1FC
:101530001B4908394968F0221143194A083A516099
:1015400028E017492831884209D1154908394968E6
:101550000F2212021143124A083A51601AE0104950
:101560003C31884209D10E49083949680F221203DB
:1015700011430B4A083A51600CE009495031884246
:1015800008D10749083949680F2212041143044A57
:10159000083A516070470000FEFF0000080002405A
:1015A0000804024001460020002201231B070B40D3
:1015B000002B02D0064B1A6801E0064B1A6813464E
:1015C0000B40002B01D0012000E0002070470000FC
:1015D0000004024000000240002A03D003680B43CD
:1015E000036002E003688B430360704710B500227C
:1015F00002680D4B1A400C6A8B6823430C69234325
:101600004C6923438C692343CC6923434C6A2343AD
:101610008C6A23431A430260CB6843600B68836083
:101620004B68C36010BD00000F80FFFF0021016008
:1016300041608160C160016141618161C16101629C
:10164000416281627047000000F08AFA002400E0E5
:10165000641C0A2CFCDB3CE01E480078012811DAEF
:101660001D48007800280DDC1C480078012802D1B4
:10167000FFF792F92DE019480078002829D100F0F1
:1016800009FB26E0FFF716FE00F0DAFA02F094F804
:10169000134800881349884213DB00201049088052
:1016A00008210920C00600F03EFA002801D10120DF
:1016B00000E0002005462A4608210920C00600F067
:1016C00049FA00BF084801F0FDFE6428FAD301F092
:1016D000B5FCC1E7A6000020A0000020C800002043
:1016E00038010020041000000004004004E0411E06
:1016F00008B2002800DC00E0F9E700BF70470000F6
:101700000149C860704700000020024030B504461F
:1017100004250B20000400F08FF80546042D17D196
:101720000C480069022108430A49086108464461DF
:10173000006940210843074908610B20000400F0BC
:101740007BF8054603480069022188430149086186
:10175000284630BD0020024004200D49C968C90751
:10176000C90F002901D0012010E00949C9681022E1
:101770001140002901D0022008E00549C96804226F
:101780001140002901D0032000E004207047000030
:101790000020024003480069802108430149086194
:1017A000704700000020024078B506460C4604252C
:1017B000002000900B20000400F03EF80546042DA8
:1017C00024D113480069012108431149086134807C
:1017D0000B20000400F030F80546042D10D1B01C99
:1017E0000090200C009908800B20000400F024F8E1
:1017F000054607480069400840000549086105E0C2
:10180000034800694008400001490861284678BD46
:10181000002002400548006980210840002804D0CB
:10182000034802494860034848607047002002406E
:1018300023016745AB89EFCD10B503460424FFF7BC
:101840008BFF044603E0FFF787FF04465B1E012C75
:1018500001D1002BF7D1002B00D10524204610BD6B
:1018600010B51149114800F029F80F4800780E49C9
:101870004978090240180C498978090440180A4936
:10188000C978090640180A4908600A4800680A49E8
:1018900008600846006806490968884201D10124A9
:1018A00000E00024204610BD200000200008002099
:1018B0002400002000700008280000202A4A126836
:1018C00012790270284A1268127A4270264A126807
:1018D00052788270244A1268D278C270224A126802
:1018E00012780271204A1268527942711E4A1268B7
:1018F000927A82711C4A1268D279C2711A4A1268AD
:10190000527A0272184A126892784272164A126823
:10191000D27A8272144A12689279C272134A126899
:10192000127803785A400A70104A12685278837904
:101930005A40C3795A40037A5A40437A5A40837ACC
:101940005A40C37A5A404A70084A1268927803791A
:101950005A408A70054A1268D27883785A40437890
:101960005A40CA7070470000140000201C0000207C
:101970001CB501212320400401F090F8684600F0D6
:10198000DDF88020009001216846017100218171FD
:1019900041710221C17169460920C00600F043F877
:1019A0001CBD1CB501212320400401F077F86846D6
:1019B00000F0C4F801200003009001216846017185
:1019C000002181714171C17169460920C00600F092
:1019D0002AF80120C002009000216846017141717F
:1019E0000221C17169460920C00600F01CF80820D8
:1019F0000090012168460171002141710221C171ED
:101A000069460920C00600F00EF810200090002161
:101A10006846017141710221C17169460920C00601
:101A200000F001F81CBDF0B50A4600210023002497
:101A300000BF3DE001258D402B4615681D402C461A
:101A40009C4234D11579012D02D01579022D16D181
:101A500085684F000326BE40B543856055794E002A
:101A6000B540866835438560858801268E40B5433C
:101A70008580858896798E40B6B235438580056825
:101A80004F000326BE40B543056015794E00B540B2
:101A9000066835430560C5684F000326BE40B54360
:101AA000C560D5794E00B540C6683543C560491C50
:101AB0001029BFD3F0BD1CB50121480400F0EEFF92
:101AC000FF200130009001216846017100218171E1
:101AD0000121C1710321417169460920C006FFF748
:101AE000A2FF01204002009069460920C006FFF7CE
:101AF0009AFF01208002009069460920C006FFF786
:101B000092FF0420009069460920C006FFF78BFF72
:101B10001CBD02460020138A0B40002B01D001207F
:101B200000E00020704702460020938A0B40002B03
:101B300001D0012000E0002070470000044901604E
:101B4000002101710121417100218171C171704732
:101B5000FFFF0000002A01D0816100E0018570478D
:101B600010B5124801F096F911490860114801F0CA
:101B700091F911490870114801F08CF91049086079
:101B8000104801F087F910490860104801F082F907
:101B90000F4908600F4801F07DF90F4908600F48B0
:101BA00001F078F90E49086010BD000000540008EB
:101BB000980000200058000880000020005C000809
:101BC0009400002000600008C000002000640008AD
:101BD000A800002000680008B0000020006C000889
:101BE000B800002010B50121C9020920C006FFF786
:101BF00090FF0446204610BD00BFFEE710B55D20F3
:101C000001F0E8F8002801D000F098FF074800F044
:101C10002BF8042000F01CF87D20000100F01EF8D5
:101C200000F00EF800F004F810BD0000555500005B
:101C30000148024908607047CCCC000000300040E9
:101C40000148024908607047AAAA0000003000401D
:101C50000149486070470000003000400149886039
:101C600070470000003000400149086070470000E4
:101C70000030004010B50446FFF7CCFD3520FFF7DB
:101C80003FFD2046FFF742FD3520FFF739FDFFF706
:101C900081FD10BD10B50248007800F073F910BD49
:101CA0008000002070B50024002524E0FFF702FB2F
:101CB0002846691CCDB240009F49085EA1009F4A9A
:101CC00050502846691CCDB240009B49085EA100D7
:101CD0009B4A50502846691CCDB240009649085E88
:101CE000A100984A5050601CC4B200BF964801F051
:101CF000E9FB6428FAD3032CD8DBFFF7DBFA28468C
:101D0000691CCDB240008C49085EA1008B4A50503E
:101D10002846691CCDB240008749085EA100884A68
:101D200050502846691CCDB240008349085EA1008E
:101D3000844A5050601CC4B20020844908700024BA
:101D400000257E4909687D4A526889187B4A926855
:101D500089187A4AD26889188808FEF7E3FB7C491B
:101D6000097889007B4A505075490968744A52685D
:101D70008918734A92688918714AD2688918880844
:101D8000FEF7D0FB724909788900734A50506D49BB
:101D900009686C4A526889186A4A92688918694ABF
:101DA000D26889188808FEF7BDFB6949097889005F
:101DB0006A4A505066480078401C654908700846D9
:101DC0000078022875DB00200870624A51681068AC
:101DD000FEF720FC07D85F4A51681068FEF705FA45
:101DE0005F49086006E05B4A11685068FEF7FDF93C
:101DF0005B490860584A51681068FEF70BFC07D829
:101E0000554A51681068FEF7F0F95649086006E037
:101E1000514A11685068FEF7E8F9524908604F4A84
:101E200051681068FEF7F6FB07D84C4A51681068F5
:101E3000FEF7DBF94C49086006E0484A1168506833
:101E4000FEF7D3F9484908604648016844480068ED
:101E5000FEF7E0FB04D8424800684449086003E00C
:101E600040480068414908603F4801683F480068B1
:101E7000FEF7C6FB03D83C4800683C490860384878
:101E800001683A480068FEF7BBFB13D13149086886
:101E9000FEF764FB36490860002036490870344874
:101EA0000168354801F06EFB32480178334801F093
:101EB00069FB34E02B4801682C480068FEF7A0FB62
:101EC00013D125490868FEF749FB2949086001201C
:101ED0002849087026480168274801F053FB254827
:101EE0000178264801F04EFB19E01F4801681F48A1
:101EF0000068FEF785FB12D118490868FEF72EFB33
:101F00001B49086002201B490870194801681A48DB
:101F100001F038FB17480178184801F033FB002026
:101F20001749087001F048FC00BF074801F0CAFAE1
:101F30006428FAD370BD0000E80700200C080020D8
:101F40001C0800202C080020000400400E00002087
:101F5000A60000204C000020540000205C0000205F
:101F600064000020680000206C0000207000002049
:101F7000980000208000002000540008005800084D
:101F8000A000002070B50546002D7DD10021FE483F
:101F900001F0AEFA012204210920C006FFF7DAFDA4
:101FA0000022012149020920C006FFF7D3FD0022CB
:101FB000012189020920C006FFF7CCFD0122110290
:101FC0000920C006FFF7C6FD00BFEF4801F07AFA0E
:101FD0000028FAD00022FF2101310920C006FFF7B6
:101FE000B9FD0020E9490870E948FEF7B7FC00BFD9
:101FF000E64800780028FBD00020E449087000BFC4
:10200000E14801F05FFA1428FAD3002204210920E4
:10201000C006FFF79FFDDF4801780078401CDD4ACD
:1020200010704800DC49085EDC4909788900DC4A08
:102030005050DA480078401CD849087008460078AB
:10204000042806DA00BFD04801F03CFA6428FAD32D
:10205000D0E2D24800780328FADD0020D149087088
:10206000CE490870CB490870CD480068CC49496812
:102070004018CB4989684018C949C9684018800888
:10208000C9490860084600E001E100680A2801DA51
:102090000A200860C4480068C449884202DB084638
:1020A000C1490860C0480068C14909788900C14A2F
:1020B0005050BF480078800011460858BE490022A1
:1020C0008A5E904207DDBA4800788000B949085A14
:1020D00000B2B9490880B64800788000B549085870
:1020E000B64900228A5E904207DAB1480078800043
:1020F000B049085A00B2B1490880AD480078401C88
:10210000AB4908700846007807280FDD00200870EA
:10211000A949085EA94900228A5E801AA849086078
:102120000020A5490880A148A44908809E4800686D
:10213000A44909788900A44A5050A2480078800038
:1021400011460858A14900228A5E904207DD9D4849
:10215000007880009C49085A00B29C490880994840
:102160000078800098490858994900228A5E904278
:1021700007DA9448007880009349085A00B29449DD
:10218000088090480078401C8E4908700846007806
:1021900003280FDD002008708C49085E8C4900225E
:1021A0008A5E801A8B4908600020884908807F4831
:1021B00087490880884909688800C117490F0918AC
:1021C000C9107F4A1268891A0C46283C052C00DA8F
:1021D0000524814A12689100CA17520F5218D21072
:1021E000714B1B689A421DDA7B4A0A2310685843D8
:1021F000C217520F1218D2106B4B1B689A4211DD96
:1022000000207649087076480078401C74490870B0
:1022100008460078042829DB002008700120714955
:10222000087023E060490968A1420FDD6A490A226B
:1022300008685043C117490F0918C910604A12684D
:1022400089182831584A126891420FDC00206449ED
:10225000087062480078401C6049087008460078A1
:10226000042803DB002008705E490870FFF7E8FCD3
:1022700000F07EFEFFF7B6FC5B49087001F09CFAA7
:1022800000BF414801F01EF96428FAD364E3012D30
:1022900078D100213C4801F02BF9012204210920CA
:1022A000C006FFF757FC002229020920C006FFF7ED
:1022B00051FC0022A9020920C006FFF74BFC0122B5
:1022C00051020920C006FFF745FC00BF2E4801F06F
:1022D000F9F80028FAD00022012149020920C0069D
:1022E000FFF738FC0020294908702948FEF736FB23
:1022F00000BF264800780028FBD000202349087042
:1023000000BF214801F0DEF81428FAD3002204218E
:102310000920C006FFF71EFC1E4801780078401C0B
:102320001C4A107048001C49085E1C490978890045
:102330001B4A505019480078401C1849087008463C
:102340000078042806DA00BF0F4801F0BBF86428C3
:10235000FAD301E311480078032897DD00201149E2
:1023600008700E4908700B4908700D4800680C4948
:10237000496840180A49896840180949C9684018DD
:10238000800833E037E10000000400401000002026
:102390000024014044010020E807002045010020FE
:1023A0000C0800200E00002014010020FF0F000088
:1023B000240100203C0800202001002022010020F0
:1023C00028010020300100205C0800202C010020A2
:1023D0002E0100203401002098000020430100203D
:1023E0004201002048000020C8000020FE4908608B
:1023F000084600680A2801DA0A200860FA480068DE
:10240000FA49884202DB0846F7490860F648006846
:10241000F74909788900F74A5050F548007880005C
:1024200011460858F44900228A5E904207DDF048C0
:1024300000788000EF49085A00B2EF490880EC4864
:1024400000788000EB490858EC4900228A5E9042EF
:1024500007DAE74800788000E649085A00B2E74901
:102460000880E3480078401CE1490870084600787D
:1024700007280FDD00200870DF49085EDF490022D1
:102480008A5E801ADE4908600020DB490880D74850
:10249000DA490880D4480068DA4909788900DA4ABC
:1024A0005050D8480078800011460858D74900227B
:1024B0008A5E904207DDD34800788000D249085AEE
:1024C00000B2D2490880CF4800788000CE49085831
:1024D000CF4900228A5E904207DACA48007880001D
:1024E000C949085A00B2CA490880C6480078401C49
:1024F000C44908700846007803280FDD00200870E2
:10250000C249085EC24900228A5E801AC149086039
:102510000020BE490880B548BD490880BE49096809
:102520008800C117490F0918C910B54A1268891ADD
:102530000C46283C052C00DA0524B74A12689100A5
:10254000CA17520F5218D210A74B1B689A421DDAB5
:10255000B14A0A2310685843C217520F1218D210FA
:10256000A14B1B689A4211DD0020AC490870AC48B1
:102570000078401CAA49087008460078042829DB26
:10258000002008700120A749087023E096490968D7
:10259000A1420FDDA0490A2208685043C117490F24
:1025A0000918C910964A1268891828318E4A12688B
:1025B00091420FDC00209A49087098480078401C2E
:1025C0009649087008460078042803DB002008704C
:1025D00094490870FFF734FB00F0CAFCFFF702FBD8
:1025E0009149087001F0E8F800BF904800F06AFFD8
:1025F0006428FAD3B0E1022DFCD100218B4800F011
:1026000077FF012204210920C006FFF7A3FA002268
:10261000E9010920C006FFF79DFA002229020920DE
:10262000C006FFF797FA012291020920C006FFF7C2
:1026300091FA00BF7D4800F045FF0028FAD0002243
:10264000012189020920C006FFF784FA0020784999
:1026500008707848FEF782F900BF754800780028B6
:10266000FBD000207249087000BF704800F02AFFBC
:102670001428FAD3002204210920C006FFF76AFAC1
:102680006D4801780078401C6B4A107048006B4917
:10269000085E6B49097889006A4A5050684800789A
:1026A000401C6749087008460078042806DA00BF15
:1026B0005E4800F007FF6428FAD34DE160480078D7
:1026C000032897DD0020604908705D4908705A4969
:1026D00008705C4800685B49496840185949896836
:1026E00040185849C968401880083F4908600846A2
:1026F00000680A2801DA0A2008603B4800683B4964
:10270000884202DB08463849086037480068384983
:1027100009788900374A50503548007880001146C2
:102720000858354900228A5E904207DD304800781B
:1027300080003049085A00B22F4908802C480078A0
:1027400080002C4908582D4900228A5E904207DA01
:102750002748007880002749085A00B22749088096
:1027600023480078401C2249087008460078072852
:102770000FDD002008702049085E204900228A5E93
:10278000801A1F49086000201B49088017481B4910
:102790000880154800681B49097889001A4A50507A
:1027A00018480078800011460858184900228A5EAF
:1027B000904207DD1348007880001349085A00B2A0
:1027C000124908800F48007880000F4908581049C6
:1027D00000228A5E90423ADA0A48007880000A496C
:1027E000085A00B20A4931E014010020FF0F00002E
:1027F000240100203C0800202001002022010020AC
:1028000028010020300100205C0800202C0100205D
:102810002E010020340100209800002043010020F8
:102820004201002048000020C800002000040040B1
:10283000100000200024014044010020E80700208F
:10284000450100200C0800200E00002008804348AD
:102850000078401C414908700846007803280FDDC5
:10286000002008703E49085E3E4900228A5E801AB8
:102870003D49086000203A4908803C4839490880B1
:102880003B4909688800C117490F0918C910394A1E
:102890001268891A0C46283C052C00DA0524344AB3
:1028A00012689100CA17520F5218D210324B1B688F
:1028B0009A421DDA2E4A0A2310685843C217520F53
:1028C0001218D2102C4B1B689A4211DD00202B49A4
:1028D00008702B480078401C294908700846007889
:1028E000042829DB0020087001202649087023E015
:1028F00021490968A1420FDD1D490A220868504399
:10290000C117490F0918C9101A4A126889182831C5
:10291000194A126891420FDC0020194908701748C3
:102920000078401C1549087008460078042803DB2D
:102930000020087013490870FFF782F900F018FBB7
:10294000FFF750F91049087000F036FF00BF0F483C
:1029500000F0B8FD6428FAD370BD000030010020FB
:102960002C0100202E01002034010020FF0F000068
:1029700098000020280100201401002043010020BD
:102980004201002048000020C80000200004004050
:102990007047000000218278002A27D0184A0323BC
:1029A0001B02D21803789B109B00D1580278920723
:1029B000D30EFF229A400B46934319464278920762
:1029C000120E03789B07DB0E9A4011430C4A032337
:1029D0001B02D21803789B109B00D1500278D306BB
:1029E000DB0E01229A40064B1A6007E00278D306FC
:1029F000DB0E01229A40024B80331A6070470000C0
:102A000000E100E07047000010B5134800F042FA02
:102A100012490860084600681149884203DC0F48E3
:102A20000068002804DA00200C49086000F04AFA27
:102A30000A480068401C09490860084601680648C1
:102A400000F0A0FD3220FEF751FE04480068012886
:102A500001DC00F037FA10BD005000083000002003
:102A6000FFFF00000C4949680122920391430A4A82
:102A700051601146496882B21143074A51601146BC
:102A8000096B92159143044A11631146096B020CBC
:102A90001143014A1163704700100240002905D01C
:102AA000054A52690243044B5A6104E0024A5269E2
:102AB0008243014B5A61704700100240002905D043
:102AC000054AD2690243044BDA6104E0024AD26942
:102AD0008243014BDA61704700100240002905D0A3
:102AE000054A12690243044B1A6104E0024A126962
:102AF0008243014B1A61704700100240002905D043
:102B0000054A92690243044B9A6104E0024A9269C1
:102B10008243014B9A61704700100240002905D0A2
:102B2000054AD2680243044BDA6004E0024AD268E4
:102B30008243014BDA607047001002400348406A4C
:102B4000012109060843014948627047001002400C
:102B500010B50521C9040120C00300F07BF9012054
:102B600000F064F90848FFF77DFF00BF192000F06E
:102B700031F90028FAD0022000F07EF900BF00F001
:102B80004DF90828FBD110BD00400001FEB50446F8
:102B90000025002600200290019000900027864822
:102BA00040680C2108400546002D06D0042D07D0B2
:102BB000082D08D00C2D2CD128E0804820602BE077
:102BC0007E48206028E07C4840680F218904084046
:102BD0000646794840680321C90308400290B00CBA
:102BE000861C0298002803D17548374647430BE0FE
:102BF0007148C06A0007000F401C01906F4801999E
:102C0000FDF78CFA70430746276005E06D482060A9
:102C100002E06A48206000BF00BF67484068F021BA
:102C2000084005462D096848405D009020680099DD
:102C3000C8406060604840680721090208400546B6
:102C40002D0A6148405D009061680098C140A16014
:102C50005948006BFF2101310840884202D05B488F
:102C6000E0600DE054484068012189030840884233
:102C700003D0A0684008E06002E0A0688008E0603F
:102C80004D48006B40210840402802D05048206148
:102C900002E00120C00320614748006B102108407A
:102CA000102802D04548606101E020686061424818
:102CB000006B8007800F002802D1A068A06119E096
:102CC0003D48006B8007800F012802D12068A06179
:102CD00010E03948006B8007800F022802D1800382
:102CE000A06107E03448006B8007800F032801D102
:102CF0003248A0613048006B0321090408400028D5
:102D000002D1A068E06120E02B48006B0321090498
:102D1000084001210904884202D12068E06114E0E2
:102D20002548006B03210904084001214904884219
:102D300002D18010E06108E01F48006B0321090404
:102D40000840884201D11D48E0611B48006B032107
:102D500089040840002802D1A068206220E01648BB
:102D6000006B03218904084001218904884202D1B3
:102D70002068206214E01048006B03218904084099
:102D80000121C904884202D10011206208E00A48EA
:102D9000006B032189040840884201D10748206262
:102DA0000548006B80210840802802D005486062F9
:102DB00000E06762FEBD00000010024000127A00D1
:102DC00000093D00006CDC02A4010020809FD500BA
:102DD0001280000010B5024600210023002051118E
:102DE000002902D10C4C23680BE0012902D10A4CC6
:102DF000236A06E0022902D1074C636A01E0064C0F
:102E0000636BD106C90E01248C401C40002C01D0FC
:102E1000012000E0002010BD001002400248406880
:102E20000C2108407047000000100240002807D025
:102E300007490968012212061143054A116006E09C
:102E400003490968012212069143014A1160704743
:102E500000100240074A52687B23DB039A43054B6C
:102E60005A601A46526803460B431A43014B5A6094
:102E7000704700000010024001460020044A5068DC
:102E80008008800002460A431046014A506070479D
:102E90000010024010B501460B460A460868084C6F
:102EA000206004E00A46091D0868054C20600448BB
:102EB0000068401C0028F5D11068014C206010BD4E
:102EC000A001002010B5FF20F5301B49086000204C
:102ED0001A490870FF20F530194908600020194987
:102EE00008601949086019490860194908601248C2
:102EF0000168184800F046FB10480178164800F0B9
:102F000041FB0F480168154800F03CFB0D48016883
:102F1000134800F037FB0C480168124800F032FB00
:102F20000A480168104800F02DFB094801680F4865
:102F300000F028FB10BD0000980000208000002059
:102F400094000020C0000020A8000020B000002055
:102F5000B80000200054000800580008005C000879
:102F6000006000080064000800680008006C0008A9
:102F700010B52B480078012828D12A48006850282D
:102F80004CDC294929480068FDF744FB0AD228484F
:102F9000007800F075F8012208210920C006FEF72C
:102FA000D9FD3BE0204921480068FDF729FB35D8D1
:102FB000002208210920C006FEF7CCFD00220121D5
:102FC00009030920C006FEF7C5FD27E01448007874
:102FD000002823D11348006850281FDC15480068DA
:102FE0001E280ADD1248007800F04AF80122082164
:102FF0000920C006FEF7AEFD10E00E4800681E284E
:103000000CDC002208210920C006FEF7A3FD0022E7
:10301000012109030920C006FEF79CFD10BD000038
:10302000C8000020340100200000FA43EC0000201A
:1030300048000020140100207047000010B50E4821
:103040000078002816DD012109030920C006FEF7DB
:1030500060FD04462246012109030920C006FEF74F
:1030600079FD06480078002802D0FDF73BFF01E01B
:10307000FEF718FE10BD0000A0000020C8000020D0
:1030800010B50446012C06D1012201030920C00617
:10309000FEF760FD06E00022012109030920C006B9
:1030A000FEF758FD10BD00000CB500200190009007
:1030B000314800680121090408432F49086000BF16
:1030C0002D48006801214904084000900198401CE7
:1030D00001900098002804D1052109030198884235
:1030E000EED125480068012149040840002802D09B
:1030F0000120009001E0002000900098012839D1C3
:1031000011201E4908601C4840681B494860084659
:1031100040684860084640687F21C90388431649D3
:103120004860084640681121090408431249486074
:10313000084600680121090608430F49086000BFDE
:103140000D4800680121490608400028F8D00A48C7
:1031500040688008800008494860084640680221AD
:1031600008430549486000BF034840680C210840F7
:103170000828F9D10CBD00000010024000200240D8
:103180007047000010B51B48006801210843194929
:1031900008600846406818490840164948600846D3
:1031A0000068164908401349086008460068012174
:1031B000890488430F490860084640683F21090494
:1031C00088430C4948600846C06A00090001C8628B
:1031D0000846006BFF2154318843064908630846BE
:1031E000406B40084000486300208860FFF75CFFA8
:1031F00010BD0000001002400CB8FF08FFFFF6FEF3
:103200001FB501210802FFF759FC114800F0D8F85A
:10321000132168460170012181704170FFF7BAFBEC
:1032200001A800F0A5F9002168468181C1807D20B8
:10323000C00002902F21684681800021817301A97E
:10324000034800F057F90121014800F0ABF81FBD19
:103250000020004010B50121144800F036F9002884
:1032600022D013480088401C114908808021092081
:10327000C006FEF758FC002801D1012000E0002024
:103280000446224680210920C006FEF763FC084858
:1032900000880A2804DB00200549088000F08CFA29
:1032A0000121024800F07BF810BD00000020004022
:1032B000A400002010B50121134800F006F90128F0
:1032C00003D10121104800F067F802210E4800F0F8
:1032D000FCF8002803D002210B4800F05DF804211F
:1032E000094800F0F2F8002803D00421064800F055
:1032F00053F80821044800F0E8F8002803D008211A
:10330000014800F049F810BD002C014010B5012122
:10331000880700F0DAF8002803D00121880700F0C0
:103320003BF810BD1FB501210220FFF7C7FB10219C
:10333000684601700121817004214170FFF72AFB6A
:103340000D4800F03DF801A800F012F90021684690
:103350008181C1807D20C00002902F21684681803C
:103360000021817301A9044800F0C4F8012102483A
:1033700000F018F81FBD00000004004010B5012146
:10338000044800F0A2F8002803D00121014800F011
:1033900006F810BD00040040CA4302827047CA43C9
:1033A00002827047002904D0028801231A43028058
:1033B00003E00288014B1A4002807047FEFF0000C4
:1033C00010B504463748844208D10121C014FFF7E4
:1033D000A5FB0021E014FFF7A1FB62E001208007BC
:1033E000844208D101210846FFF778FB0021012023
:1033F000FFF774FB55E02C48844208D101210220DC
:10340000FFF76CFB00210220FFF768FB49E027482B
:10341000844208D101211020FFF760FB0021102019
:10342000FFF75CFB3DE02248844208D101212020C7
:10343000FFF754FB00212020FFF750FB31E01D482F
:10344000844208D101218015FFF748FB0021A01517
:10345000FFF744FB25E01848844209D10121080404
:10346000FFF75CFB002101200004FFF757FB18E089
:103470001248844209D101214804FFF74FFB002183
:1034800001204004FFF74AFB0BE00D48844208D1BD
:1034900001218804FFF742FB002101208004FFF78F
:1034A0003DFB10BD002C0140000400400010004016
:1034B0000014004000200040004001400044014052
:1034C000004801400146486A704730B50246002076
:1034D00000230024158A0D402B4695890D402C466B
:1034E000002B03D0002C01D0012000E0002030BDD3
:1034F0004162704700220288154B984206D0012392
:103500009B07984202D0134B984203D1124B1A40AA
:103510004B881A43114B984203D0114B1A400B8928
:103520001A4302804B68C3620B880385084B98429C
:1035300008D00C4B984205D00B4B984202D00B4B55
:10354000984201D18B7A0386012383827047000061
:10355000002C0140000400408FFF000000100040DC
:10356000FFFC0000004001400044014000480140D1
:103570000021C943416000210180018141808172A5
:103580007047000070B504460E46254620680C4979
:1035900008600BE0241D601B01218902884202D9CA
:1035A0002846FEF767FB2068054908600448006864
:1035B000401C0028EED13146204600F003F870BDD3
:1035C000A001002070B504460D46FEF723F9352012
:1035D000FEF796F829462046FEF7E6F83520FEF776
:1035E0008FF8FEF7D7F870BD2021020C01D0102112
:1035F0001046020A01D010460839020901D01046CF
:10360000091F820801D01046891E420801D0881E79
:103610007047081A704702E008C8121F08C1002A44
:10362000FAD170477047002001E001C1121F002A43
:10363000FBD1704700B587B001214802FFF75EFA61
:103640001848FDF721F901A8FDF78DF9002069461A
:10365000087205900190069001A91248FDF75AF9E9
:1036600001211048FDF76CF9012211460D48FDF7C4
:10367000DEF80C48FDF718F901210A48FDF7E3F8D8
:1036800000BF09490748FDF72DF90028F9D00121AD
:103690000448FDF7E4F802210248FDF7ECF807B012
:1036A00000BD0000002401400100000100B58DB004
:1036B00001210846FFF7F2F909216846017101214D
:1036C00081710021417101A8FFF764F91748FDF7E6
:1036D000B7FE02A8FDF7AAFF012005900020049084
:1036E0000C901348039001208002099080200790DD
:1036F00020200A900F480290801508900020069024
:10370000012040030B9002A90848FDF76FFF01223A
:1037100002210648FDF760FF0220FDF773FE01213C
:103720000248FDF77FFE0DB000BD0000080002401A
:10373000B4010020402401401CB501214804FFF7DA
:10374000ADF96846FEF7FAF90120009003216846BA
:1037500001710021817141710121C1716946092006
:10376000C006FEF760F91CBD10B5FFF7F1F9FEF7D2
:1037700018F9FDF700F90D48FFF708FA0C48FDF7B6
:10378000B5FFFEF73BFAFEF76BF80A4908700846EA
:103790000078002804D0FFF737F9FDF755FF02E065
:1037A00000E000BFFDE7002010BD0000C0070020C2
:1037B000881300001100002010B510210920C00658
:1037C000FEF7A7F9012805D118480088401C1749C1
:1037D00008802AE015480088642807DD134800782F
:1037E000134908700020114908801EE00F48008826
:1037F00064280BDA0D480088322807DD0B48007872
:103800000B4908700020094908800EE0074800882D
:1038100032280ADA05480088022806DD03480078C5
:103820000349087000200149088010BDA200002053
:10383000A00000205438000800000020B40100005F
:10384000F407000888380008B4010020BC0A000012
:103850002636000801153AACF7FF1F431910191856
:1038600002752033F401032FF401025A01B3FF0F54
:10387000D3FF0F32320269121D0102030401020359
:0838800004060708090000001E
:04000005080000B13E
:00000001FF
