:020000040800F2
:10000000500C0020C50000081D210008CD16000876
:1000100000000000000000000000000000000000E0
:10002000000000000000000000000000F1270008B0
:10003000000000000000000091210008F1280008E5
:10004000F5000008F5000008F5000008F5000008BC
:10005000F5000008F5000008F5000008F5000008AC
:1000600000000000950E0008F5000008F5000008EB
:10007000F5000008252A0008F50000087D2A000880
:10008000ED2A00080000000000000000C52900085B
:1000900000000000F5000008F5000008F500000869
:1000A00000000000F500000800000000F500000856
:1000B0000348854600F0A6F900480047AD2E000829
:1000C000500C00200C4880F308880C480168090E89
:1000D0000B4A914205D10B480B4901600B480C4972
:1000E00001600C4880470C480047FEE7FEE7FEE74A
:1000F000FEE7FEE7FEE70000500C002004000000D1
:100100001F00000018100240010000000000014024
:1001100000000000F5280008B100000830B50B46CB
:10012000014600202022012409E00D46D5409D42D1
:1001300005D31D469540491B254695404019154657
:10014000521E002DF1DC30BDF8B502464A40D40FF6
:1001500042004B0052085B089A4202D2024608460F
:1001600011464A0023D0C30D4A00DDB2120EAD1A6B
:10017000202D35DA49020126490AF6058A19002C94
:1001800000D0524220214F1B1146B9402A4110187D
:10019000C20D9A4221D0002C17D0012D08DCDA05BF
:1001A000801AD20F8019D207DBB200F0F1F8F8BD47
:1001B000DA05801A012340001B06C01880185A4235
:1001C0008018CA0F1043490007E04908C2071143CD
:1001D000DA05801A80194008801800F0D1F8F8BDBF
:1001E00061000122511A001BF7E70122D20751409A
:1001F000AAE70122D2075040A6E7024670B54A405E
:10020000D30FDB0740002DD04A002AD0010E140E78
:10021000000212020919400A520A8418E501044634
:100220005443000A120A2E045043A4194219200C08
:10023000C543AA18120C0125AD03521C5219120411
:100240007F39240400D0521C104301D44000491EC1
:10025000C2B20C06C0092018401C4008802A02D0F7
:1002600003E0002070BD40084000002900DA0020B3
:10027000184370BD70B502464A40D50F40004A0091
:10028000ED0740085208002814D0002A12D0C40DEF
:10029000D30D41020120C0055202490A520AE41A54
:1002A000091812187D34914201D3641C00E0490002
:1002B000002C01DA002070BD0023914201D3891A7D
:1002C0000343400849000028F7D100290AD0914291
:1002D00002D10121C90705E0914201D2012101E0CB
:1002E0000121C943E005C018401900F049F870BD6C
:1002F00010B500229623114600F04AF810BDC20F37
:10030000410040020123400ADB05D207090EC01854
:100310007F2901DA00207047962903DC9623591AB9
:10032000C84001E096398840002AF4D04042704726
:10033000410040020122400AD205090E80187F299F
:1003400001DA00207047962903DC9622511AC84032
:1003500070479639884070470122D207002800DB99
:10036000101A002900DB511A814270470122D2077E
:10037000002800DB101A002900DB511A8842704760
:10038000002904DA401C490001D1400840007047B0
:1003900070B40024050C05D11024000402D10029FA
:1003A00021D01124050E01D100020834050F01D11E
:1003B0000001241D850F01D18000A41C002801DB51
:1003C0004000641C002908D020252E1B0D46F54056
:1003D000A14000D001212943084301061B1B000A4C
:1003E000DB1D02D5002070BC7047DB051818801893
:1003F0000029F8DA401C4900F5D170BC40084000E3
:1004000070470000064C0125064E05E0E36807CC66
:100410002B430C3C98471034B442F7D3FFF74CFE03
:10042000642F0008842F000830B58C180278401C17
:1004300013071B0F01D10378401C120906D1027863
:10044000401C03E005780D70401C491C5B1EF9D16F
:1004500001E00B70491C521EFBD1A142E6D30020E3
:1004600030BD10B50B460021846A1C43846200BF76
:100470000C4614432146416110BD002904D0826816
:1004800001231A43826003E0826802231A438260D8
:100490007047002904D0C26801231A43C26003E0F8
:1004A000C26852085200C2607047C26802239A4371
:1004B000C260C2680A43C2607047000010B50446BB
:1004C0000548844207D10121401501F0EDFE0021CD
:1004D000601501F0E9FE10BD0024014030B5014671
:1004E0000020002200238C680125ED072C438C603E
:1004F00000BF8C68E30FDB07521C0F242403A242C9
:1005000001D0002BF5D18C68E40FE407002C01D159
:10051000086C00E0002030BD30B50246002000230A
:10052000012424060C40002C05D0946801252D06DA
:10053000AC43234600E013681C460C40002C01D05D
:10054000012000E0002030BD10B50022C268084B39
:100550001A400C7964030B6823438C682343CC68EE
:1005600023430C6923434C6923431A43C26010BDE3
:1005700003D2FFFF002905D0C26801231B031A43E1
:10058000C26004E0C26801231B039A43C260704743
:10059000816804221143816070470021016001716C
:1005A0008160C16001614161704710B502F066FC75
:1005B00002F0E2FB02F01CFC02F0DAF902F06AFA47
:1005C00000F0E5FF00F040FF10BD000070B500F046
:1005D000E5FBDF4801780078401CDD4A10704800D8
:1005E000DC49085EDC4909788900DC4A5050D8486B
:1005F00001780078401CD64A10704800D549085E42
:10060000D54909788900D64A5050D14801780078F8
:10061000401CCF4A10704800CE49085ECE49097888
:100620008900D04A5050CC480078401CCA49087014
:1006300008460078042806DA00BFCB4802F0FAFA30
:100640005528FAD382E1C44800780328FADD002057
:10065000C6490870C0490870BD490870BF4909689B
:10066000BE4A52688918BD4A92688918BB4AD26846
:1006700089188808FFF73CFEBD490860B849096839
:10068000B74A52688918B64A92688918B44AD2683B
:1006900089188808FFF72CFEB6490860B149096837
:1006A000B04A52688918AF4A92688918AD4AD26830
:1006B00089188808FFF71CFEAF490860AD4801683B
:1006C000AB480068FFF740FD0446AB480168204690
:1006D000FFF73AFDA9490860A54801688920C005CF
:1006E000FFF78BFD0546A54801682846FFF7C2FDC8
:1006F0000446FFF704FEA24908609E48016889206D
:10070000C005FFF77AFD05469C4801682846FFF7BB
:10071000B1FD0446FFF7F3FD9A4908609648016869
:100720008920C005FFF769FD054694480168284601
:10073000FFF7A0FD0446FFF7E2FD934908609349E7
:100740000868FFF7D5FD04468C4801682046FFF78E
:1007500003FE0FD28D490868FFF7CAFD054687489A
:1007600001682846FFF745FD0446FFF7C8FD8849A4
:1007700008600EE085490868FFF7BAFD05467F4826
:1007800001682846FFF731FD0446FFF7B8FD8049B0
:100790000860804800687A490968884207D27D4825
:1007A000006877490968081A7B49086006E07948BB
:1007B000006873490968401A7749086077480068FB
:1007C00070490968884207D2744800686D49096811
:1007D000081A7349086006E07048006869490968AA
:1007E000401A6F4908606F48006867490968884285
:1007F00007D26C48006864490968081A6A490860A9
:1008000006E06848006860490968401A664908605F
:1008100061480068624909684018634909684018DE
:10082000624908605A480068096840187D21C9007B
:10083000081A5F49086008460068002802DC0020AA
:10084000086008E05A4800687D21C900884202DB40
:100850000846574908605748006857490978890091
:10086000564A505054480078800011460858544960
:1008700000228A5E904207DD4F48007880004F4991
:10088000085A00B24E4908804B48007880004B4916
:1008900008584C4900228A5E904207DA46480078A0
:1008A00080004649085A00B246490880424800780C
:1008B000401C414908700846007807280FDD0020D9
:1008C00008703F49085E3F4900228A5E801A3E490F
:1008D000086000203A4908803C483A4908803A4973
:1008E0000868C10F09184910394A12688918394A2D
:1008F00011603748006834490968401A643836493D
:100900000860084600680A2801DA0A2008602848BA
:10091000006830490968884203DB01202F490870CC
:1009200008E0234800682C490968884202DC00205E
:100930002A49087001F0D8FE00F0C0FE284908706E
:1009400000BF094802F076F95528FAD370BD0000BF
:1009500034010020D807002035010020FC070020CA
:100960000C0800201C080020000400400E0000209D
:10097000E0000020E4000020E8000020EC0000205F
:1009800004010020080100200C010020C00000200C
:10099000FC000020A8000020F0000020B000002093
:1009A000F4000020B8000020F80000200001002022
:1009B0001001002014010020240100202C08002038
:1009C000200100202201002028010020FF0F00004C
:1009D000940000201C010020180100204800002085
:1009E000C8000020F8B50024002524E000F0D6F966
:1009F0002846691CCDB24000CE49085EA100CE4A0F
:100A000050502846691CCDB24000CA49085EA1007A
:100A1000CA4A50502846691CCDB24000C549085EFC
:100A2000A100C74A5050601CC4B200BFC54802F0C4
:100A300001F95528FAD3032CD8DB00F0AFF928468A
:100A4000691CCDB24000BB49085EA100BA4A5050B3
:100A50002846691CCDB24000B649085EA100B74ADD
:100A600050502846691CCDB24000B249085EA10032
:100A7000B34A5050601CC4B200BFB24802F0DAF86A
:100A80005528FAD30020B049087000240025AA494F
:100A90000968A94A52688918A74A92688918A64A1B
:100AA000D26889188808FFF723FCA84909788900CB
:100AB000A74A5050A1490968A04A526889189F4A1C
:100AC000926889189D4AD26889188808FFF710FC37
:100AD0009E49097889009F4A505099490968984A67
:100AE00052688918964A92688918954AD268891876
:100AF0008808FFF7FDFB954909788900964A505010
:100B0000924A12789200934B9958904A1278920028
:100B10008F4B9858FFF718FB07468C4800788000E9
:100B20008D4A11583846FFF70FFB0646FFF700FCC9
:100B3000864909788900894A505084490978890092
:100B40005058FFF7D5FB0746804800788000804A60
:100B500011588920C005FFF750FB39460090FFF778
:100B600089FB0646FFF7E4FB7849097889007C4A4F
:100B70005050764909788900784A5058FFF7B8FBF9
:100B80000746724800788000724A11588920C005D3
:100B9000FFF733FB39460090FFF76CFB0646FFF783
:100BA000C7FB6A49097889006E4A5050674909783D
:100BB00089006A4A5058FFF79BFB07466348007854
:100BC0008000654A11588920C005FFF716FB394699
:100BD0000090FFF74FFB0646FFF7AAFB5B49097839
:100BE0008900614A505059480078401C57490870A4
:100BF00008460078022870DB0020087058484068DA
:100C000057490968884207D95548406854490968D6
:100C1000401A5649086006E0514800685049496842
:100C2000401A524908604F4840684E490968884256
:100C300007D94C4840684B490968401A4C4908603C
:100C400006E04848006847494968401A4849086032
:100C50004548406844490968884207D94248406885
:100C600041490968401A4349086006E03E48006867
:100C70003D494968401A3F4908603848406837494B
:100C80000968884207D93548406834490968401ADC
:100C90003949086006E03148006830494968401A1F
:100CA00035490860314800683149096840183149C0
:100CB00009684018314908602F48006809684018E1
:100CC00040087D21C900081A2D49086008460068BF
:100CD000C82803DCC820086009E021E02848006833
:100CE0007D21C900884202DB0846254908601B486F
:100CF0000168244801F0FEFF19480168224801F00C
:100D0000F9FF18480168214801F0F4FF164801680E
:100D10001F4801F0EFFF1A4801681E4801F0EAFF82
:100D200000201D49087000BF064801F083FF5528C8
:100D3000FAD3F8BDD8070020FC0700200C080020DB
:100D40001C080020000400400E000020A600002027
:100D50004C000020540000205C000020C000002057
:100D6000A8000020B0000020B8000020CC00002027
:100D7000D0000020D4000020D8000020DC0000209B
:100D8000940000200060000800640008006800086B
:100D9000006C0008005C0008A000002010B50021D5
:100DA000394801F05DFF012204210920C00600F04E
:100DB0003DFC012211020920C00600F037FC00BFF3
:100DC000314801F037FF0028FAD00022FF2101311D
:100DD0000920C00600F02AFC00202C4908702C488D
:100DE000FFF7D6FB00BF294800780028FBD0002081
:100DF00026490870012251020920C00600F016FCA5
:100E000000BF214801F016FF0228FAD30022012179
:100E100049020920C00600F009FC00201B490870A7
:100E20001B48FFF7B5FB00BF184800780028FBD02F
:100E3000002016490870012291020920C00600F026
:100E4000F5FB00BF104801F0F5FE0328FAD300229D
:100E5000012189020920C00600F0E8FB00200B49AF
:100E600008700B48FFF794FB00BF08480078002883
:100E7000FBD0002005490870002204210920C0068B
:100E800000F0D4FB10BD0000000400401000002062
:100E90000024014010B5022000F0F2F8002813D021
:100EA0000A4800880A49081A01B20A4802780078FC
:100EB000401C084B18705000074A11520120074986
:100EC0000870022000F00CF810BD0000A401002002
:100ED000FF0F00000E000020D807002010000020A7
:100EE000012109070140002902D00349486001E0BF
:100EF00002494860704700000004024000000240C0
:100F0000002904D0026801231A43026003E002684A
:100F1000014B1A4002607047FEFF00000168554A0D
:100F2000114001600021016041608160C16052494F
:100F3000884208D15049083949680F2211434E4A66
:100F4000083A516094E04C491431884208D14A492A
:100F500008394968F0221143474A083A516087E04E
:100F600045492831884209D14349083949680F2247
:100F700012021143404A083A516079E03E493C313F
:100F8000884209D13C49083949680F2212031143AC
:100F9000394A083A51606BE037495031884209D1EB
:100FA0003549083949680F2212041143324A083A78
:100FB00051605DE030496431884209D12E490839D9
:100FC00049680F22120511432B4A083A51604FE03D
:100FD00029497831884209D12749083949680F22BF
:100FE00012061143244A083A516041E023498842DD
:100FF00008D12249083949680F2211431F4A083A8B
:10100000516035E01D491431884208D11B49083927
:101010004968F0221143194A083A516028E01749FB
:101020002831884209D11549083949680F2212022E
:101030001143124A083A51601AE010493C31884283
:1010400009D10E49083949680F22120311430B4A8E
:10105000083A51600CE009495031884208D10749EB
:10106000083949680F2212041143044A083A5160B2
:1010700070470000FEFF0000080002400804024024
:1010800001460020002201231B070B40002B02D049
:10109000064B1A6801E0064B1A6813460B40002BFA
:1010A00001D0012000E00020704700000004024051
:1010B00000000240002A03D003680B43036002E0F3
:1010C00003688B430360704710B5002202680D4B24
:1010D0001A400C6A8B6823430C6923434C692343F1
:1010E0008C692343CC6923434C6A23438C6A234392
:1010F0001A430260CB6843600B6883604B68C3602F
:1011000010BD00000F80FFFF002101604160816081
:10111000C160016141618161C161016241628162BD
:101120007047000000F088FA002400E0641C0A2CDC
:10113000FCDB3BE01E48007801280DDA1D480078F2
:10114000012802D1FFF742FA0EE01A480078002881
:101150000AD100F0CDFA07E0FFF720FE00BF1648E5
:1011600001F068FD5528FAD314480078002816DDF0
:10117000012109030920C00600F037FA05462A4676
:10118000012109030920C00600F050FA094800783F
:10119000002802D0FFF726FC01E000F0B1FA01F0D0
:1011A000A3FE07480088401C05490880C2E70000EC
:1011B000A6000020C800002000040040A00000207D
:1011C0002C01002004E0411E08B2002800DC00E0F1
:1011D000F9E700BF704700000149C8607047000090
:1011E0000020024030B5044604250B20000400F026
:1011F0008FF80546042D17D10C48006902210843D9
:101200000A490861084644610069402108430749CA
:1012100008610B20000400F07BF8054603480069D4
:101220000221884301490861284630BD0020024060
:1012300004200D49C968C907C90F002901D0012040
:1012400010E00949C96810221140002901D002208C
:1012500008E00549C96804221140002901D0032093
:1012600000E00420704700000020024003480069AD
:1012700080210843014908617047000000200240B6
:1012800078B506460C460425002000900B2000048B
:1012900000F03EF80546042D24D1134800690121D1
:1012A00008431149086134800B20000400F030F835
:1012B0000546042D10D1B01C0090200C0099088028
:1012C0000B20000400F024F8054607480069400898
:1012D00040000549086105E00348006940084000F6
:1012E00001490861284678BD002002400548006990
:1012F00080210840002804D0034802494860034880
:10130000486070470020024023016745AB89EFCD5C
:1013100010B503460424FFF78BFF044603E0FFF7F4
:1013200087FF04465B1E012C01D1002BF7D1002B57
:1013300000D10524204610BD10B51149114800F018
:1013400029F80F4800780E494978090240180C49DD
:101350008978090440180A49C978090640180A49D9
:1013600008600A4800680A4908600846006806499B
:101370000968884201D1012400E00024204610BD04
:1013800020000020F007002024000020007000084A
:10139000280000202A4A126812790270284A12682E
:1013A000127A4270264A126852788270244A126871
:1013B000D278C270224A126812780271204A1268EA
:1013C000527942711E4A1268927A82711C4A1268DE
:1013D000D279C2711A4A1268527A0272184A126895
:1013E00092784272164A1268D27A8272144A12684D
:1013F0009279C272134A1268127803785A400A70BE
:10140000104A1268527883795A40C3795A40037A55
:101410005A40437A5A40837A5A40C37A5A404A70B3
:10142000084A1268927803795A408A70054A12680D
:10143000D27883785A4043785A40CA707047000087
:10144000140000201C0000201CB5012123204004B2
:1014500000F0EAFE684600F0DDF8802000900121EF
:10146000684601710021817141710221C171694693
:101470000920C00600F043F81CBD1CB50121232043
:10148000400400F0D1FE684600F0C4F801200003DB
:101490000090012168460171002181714171C17183
:1014A00069460920C00600F02AF80120C002009019
:1014B00000216846017141710221C171694609200C
:1014C000C00600F01CF80820009001216846017158
:1014D000002141710221C17169460920C00600F056
:1014E0000EF8102000900021684601714171022120
:1014F000C17169460920C00600F001F81CBDF0B5B5
:101500000A4600210023002400BF3DE001258D4054
:101510002B4615681D402C469C4234D11579012D6F
:1015200002D01579022D16D185684F000326BE40E2
:10153000B543856055794E00B54086683543856072
:10154000858801268E40B5438580858896798E40B2
:10155000B6B23543858005684F000326BE40B543CB
:10156000056015794E00B540066835430560C568CD
:101570004F000326BE40B543C560D5794E00B54047
:10158000C6683543C560491C1029BFD3F0BD1CB5E2
:101590000121480400F048FEFF20013000900121A5
:1015A00068460171002181710121C17103214171DE
:1015B00069460920C006FFF7A2FF01204002009003
:1015C00069460920C006FFF79AFF012080020090BB
:1015D00069460920C006FFF792FF04200090694683
:1015E0000920C006FFF78BFF1CBD02460020138AAE
:1015F0000B40002B01D0012000E000207047024684
:101600000020938A0B40002B01D0012000E0002035
:1016100070470000044901600021017101214171FE
:1016200000218171C1717047FFFF0000002A01D0C5
:10163000816100E00185704710B5124800F0E6FFB7
:1016400011490860114800F0E1FF11490870114884
:1016500000F0DCFF10490860104800F0D7FF104987
:101660000860104800F0D2FF0F4908600F4800F0F2
:10167000CDFF0F4908600F4800F0C8FF0E49086011
:1016800010BD000000540008980000200058000819
:1016900080000020005C000894000020006000082A
:1016A000C000002000640008A800002000680008B6
:1016B000B0000020006C0008B800002010B5012127
:1016C000C9020920C006FFF790FF10BD00BFFEE76A
:1016D00010B50446FFF70AFE3520FFF77DFD2046D2
:1016E000FFF780FD3520FFF777FDFFF7BFFD10BD49
:1016F00010B50248007800F071F910BD800000209C
:1017000070B50024002524E0FFF748FB2846691C3B
:10171000CDB240009E49085EA1009E4A5050284626
:10172000691CCDB240009A49085EA1009A4A505007
:101730002846691CCDB240009549085EA100974A31
:101740005050601CC4B200BF954801F073FA552890
:10175000FAD3032CD8DBFFF721FB2846691CCDB256
:1017600040008B49085EA1008A4A50502846691CF7
:10177000CDB240008649085EA100874A50502846F5
:10178000691CCDB240008249085EA100834A5050D6
:10179000601CC4B2002083490870002400257D49E4
:1017A00009687C4A526889187A4A92688918794A85
:1017B000D26889188808FEF79BFD7B490978890063
:1017C0007A4A505074490968734A52688918724AB3
:1017D00092688918704AD26889188808FEF788FDCF
:1017E000714909788900724A50506C4909686B4AFE
:1017F00052688918694A92688918684AD2688918B3
:101800008808FEF775FD684909788900694A5050D3
:1018100065480078401C6449087008460078022832
:1018200076DB00200870614A51681068FEF79EFD63
:1018300007D85E4A51681068FEF7D7FC5E49086019
:1018400006E05A4A11685068FEF7CFFC5A49086012
:10185000574A51681068FEF789FD07D8544A516805
:101860001068FEF7C2FC5549086006E0504A11684E
:101870005068FEF7BAFC514908604E4A516810683A
:10188000FEF774FD07D84B4A51681068FEF7ADFCAF
:101890004B49086006E0474A11685068FEF7A5FC0E
:1018A000474908604548016843480068FEF75EFD07
:1018B00002D24148006801E04048006841490860A0
:1018C0003F4801683F480068FEF750FD02D23D489E
:1018D000006801E03A4800683A4908603648016803
:1018E00038480068FEF738FD13D130490868FEF724
:1018F00006FD354908600020344908703248016807
:10190000334801F0F7F931480178324801F0F2F933
:1019100034E02A4801682B480068FEF71DFD13D10A
:1019200023490868FEF7EBFC274908600120274996
:10193000087025480168264801F0DCF92348017841
:10194000244801F0D7F919E01D4801681D480068D6
:10195000FEF702FD12D117490868FEF7D0FC1A49BC
:10196000086002201949087017480168184801F0FA
:10197000C1F916480178174801F0BCF90020164952
:10198000087000BF064801F055F95528FAD370BD1C
:10199000D8070020FC0700200C0800201C080020AD
:1019A000000400400E000020A60000204C00002093
:1019B000540000205C00002064000020680000202B
:1019C0006C000020700000209800002080000020A3
:1019D0000054000800580008A000002010B504467C
:1019E000002C7DD10021FE4801F03AF901220421AA
:1019F0000920C006FFF71AFE002201214902092032
:101A0000C006FFF713FE0022012189020920C0064B
:101A1000FFF70CFE012211020920C006FFF706FEA7
:101A200000BFEF4801F006F90028FAD00022FF219C
:101A300001310920C006FFF7F9FD0020E9490870CF
:101A4000E948FEF7A5FD00BFE64800780028FBD076
:101A50000020E449087000BFE14801F0EBF81428C9
:101A6000FAD3002204210920C006FFF7DFFDDF487A
:101A700001780078401CDD4A10704800DC49085E9F
:101A8000DC4909788900DC4A5050DA480078401C6B
:101A9000D849087008460078042806DA00BFD04804
:101AA00001F0C8F85528FAD312E3D2480078032889
:101AB000FADD0020D1490870CE490870CB49087082
:101AC000CD480068CC4949684018CB49896840181E
:101AD000C949C96840188008C9490860084600E03B
:101AE0009CE000680A2801DA0A200860C4480068FF
:101AF000C449884202DB0846C1490860C048006802
:101B0000C14909788900C14A5050BF480078800017
:101B100011460858BE4900228A5E904207DDBA4845
:101B200000788000B949085A00B2B9490880B6481F
:101B300000788000B5490858B64900228A5E904274
:101B400007DAB14800788000B049085A00B2B149BC
:101B50000880AD480078401CAB4908700846007802
:101B600007280FDD00200870A949085EA949002256
:101B70008A5E801AA84908600020A5490880A1480B
:101B8000A4490880A54A1268D300991ACA17520FAF
:101B90005218D2109A4B1B689A420FDA9F4A126869
:101BA000D300D018C217520F1218D210944B1B68D2
:101BB0009A4203DD01209A49087022E0974A126890
:101BC000D300991ACA17520F5218D210924B1B68A1
:101BD000D21A783A8A4B1B689A420FDA8F4A1268F7
:101BE000D300D018C217520F1218D2108A4B1B689C
:101BF000D2187832824B1B689A4202DC0020884956
:101C0000087000F071FDFFF759FD8649087000BFAC
:101C1000734801F00FF85528FAD359E2012C7DD111
:101C200000216F4801F01CF8012204210920C006A0
:101C3000FFF7FCFC002221020920C006FFF7F6FC9A
:101C40000022A1020920C006FFF7F0FC0122510288
:101C50000920C006FFF7EAFC00BF614800F0EAFF78
:101C60000028FAD00022012149020920C006FFF70E
:101C7000DDFC00205B4908705B48FEF789FC00BF73
:101C8000584800780028FBD000205649087000BF53
:101C9000534800F0CFFF1428FAD300220421092072
:101CA000C006FFF7C3FC514801780078401C4F4A3A
:101CB000107048004E49085E4E49097889004E4A26
:101CC00050504C480078401C4A490870084600783B
:101CD000042806DA00BF424800F0ACFF5528FAD3CA
:101CE000F6E144480078032897DD00204349087056
:101CF000404908703D4908703F4800683E494968BE
:101D000040183D49896840183B49C9684018800817
:101D10003B490860084600680A2800E0BFE001DA95
:101D20000A200860364800683649884202DB0846C7
:101D30003349086032480068334909788900334ADA
:101D40005050314800788000114608583049002230
:101D50008A5E904207DD2C48007880002B49085AA3
:101D600000B22B490880284800788000274908588D
:101D7000284900228A5E904207DA234800788000D2
:101D80002249085A00B2234908801F480078401CA5
:101D90001D4908700846007807280FDD00200870EC
:101DA0001B49085E1B4900228A5E801A1A49086096
:101DB000002017490880134816490880174A1268FE
:101DC000D300991ACA17520F5218D2100C4B1B6825
:101DD0009A4234DA114A1268D300D018C21723E0AD
:101DE00000040040100000200024014036010020C3
:101DF000D807002037010020FC0700200E0000203B
:101E000014010020FF0F0000240100202C080020F6
:101E1000200100202201002028010020980000203D
:101E200048000020C8000020520F1218D210A94B01
:101E30001B689A4203DD0120A749087022E0A74AE7
:101E40001268D300991ACA17520F5218D210A44B15
:101E50001B68D21A783A9F4B1B689A420FDA9F4A46
:101E60001268D300D018C217520F1218D2109C4B10
:101E70001B68D2187832974B1B689A4202DC00200C
:101E80009549087000F030FCFFF718FC9549087080
:101E900000BF954800F0CEFE5528FAD318E1022C79
:101EA000FCD10021904800F0DBFE01220421092032
:101EB000C006FFF7BBFB0022E1010920C006FFF7C7
:101EC000B5FB002221020920C006FFF7AFFB01226B
:101ED00091020920C006FFF7A9FB00BF824800F06D
:101EE000A9FE0028FAD00022012189020920C0069B
:101EF000FFF79CFB00207D4908707D48FEF748FBFA
:101F000000BF7A4800780028FBD00020774908708D
:101F100000BF754800F08EFE1428FAD30022042179
:101F20000920C006FFF782FB724801780078401C48
:101F3000704A107048007049085E7049097889003D
:101F40006F4A50506D480078401C6C490870084634
:101F50000078042806DA00BF634800F06BFE5528BD
:101F6000FAD3B5E065480078032897DD002065497D
:101F70000870624908705F490870614800686049EC
:101F8000496840185E49896840185D49C968401829
:101F9000800850490860084600680A2801DA0A20CB
:101FA00008604C4800685849884202DB08464949A5
:101FB000086048480068554909788900544A5050DB
:101FC00052480078800011460858524900228A5E23
:101FD000904207DD4D48007880004D49085A00B214
:101FE0004C490880494800788000494908584A49C6
:101FF00000228A5E904207DA444800788000444913
:10200000085A00B24449088040480078401C3F49C3
:1020100008700846007807280FDD002008703D4949
:10202000085E3D4900228A5E801A2D490860002022
:1020300038490880344838490880284A1268D30053
:10204000991ACA17520F5218D210224B1B689A4283
:102050000FDA224A1268D300D018C217520F121892
:10206000D2101C4B1B689A4203DD01201A490870EC
:1020700022E01A4A1268D300991ACA17520F52184E
:10208000D210174B1B68D21A783A124B1B689A422F
:102090000FDA124A1268D300D018C217520F121862
:1020A000D2100F4B1B68D21878320A4B1B689A4229
:1020B00002DC00200849087000F016FBFFF7FEFA6A
:1020C0000849087000BF084800F0B4FD5528FAD34D
:1020D00010BD0000140100204800002098000020DE
:1020E00028010020C800002000040040100000204B
:1020F0000024014036010020D807002037010020CD
:10210000FC0700200E000020FF0F0000240100202B
:102110002C08002020010020220100207047000030
:1021200000218278002A27D0184A03231B02D218E4
:1021300003789B109B00D15802789207D30EFF22A0
:102140009A400B469343194642789207120E037841
:102150009B07DB0E9A4011430C4A03231B02D21843
:1021600003789B109B00D1500278D306DB0E01222E
:102170009A40064B1A6007E00278D306DB0E012274
:102180009A40024B80331A607047000000E100E083
:102190007047000010B5134800F038FA1249086083
:1021A000084600681149884203DC0F48006800288F
:1021B00004DA00200C49086000F040FA0A48006880
:1021C000401C0949086008460168064800F092FD75
:1021D0003220FEF7F7FF04480068012801DC00F018
:1021E0002DFA10BD0050000830000020FFFF000055
:1021F0000C4949680122920391430A4A51601146F1
:10220000496882B21143074A51601146096B921521
:102210009143044A11631146096B020C1143014AB0
:102220001163704700100240002905D0054A526929
:102230000243044B5A6104E0024A52698243014B53
:102240005A61704700100240002905D0054AD26942
:102250000243044BDA6104E0024AD2698243014B33
:10226000DA61704700100240002905D0054A126962
:102270000243044B1A6104E0024A12698243014B93
:102280001A61704700100240002905D0054A926982
:102290000243044B9A6104E0024A92698243014B73
:1022A0009A61704700100240002905D0054AD268A3
:1022B0000243044BDA6004E0024AD2688243014BD5
:1022C000DA6070470010024010B50521C9040120F2
:1022D000C00300F07BF9012000F064F90848FFF723
:1022E00087FF00BF192000F031F90028FAD0022042
:1022F00000F07EF900BF00F04DF90828FBD110BDB9
:1023000000400001FEB50446002500260020029092
:10231000019000900027864840680C21084005463F
:10232000002D06D0042D07D0082D08D00C2D2CD15F
:1023300028E0804820602BE07E48206028E07C4830
:1023400040680F2189040840064679484068032107
:10235000C90308400290B00C861C0298002803D1E3
:102360007548374647430BE07148C06A0007000FC5
:10237000401C01906F480199FDF7D0FE704307465D
:10238000276005E06D48206002E06A48206000BFD9
:1023900000BF67484068F021084005462D0968489D
:1023A000405D009020680099C840606060484068C7
:1023B00007210902084005462D0A6148405D00904A
:1023C00061680098C140A1605948006BFF2101314C
:1023D0000840884202D05B48E0600DE05448406805
:1023E000012189030840884203D0A0684008E060CA
:1023F00002E0A0688008E0604D48006B4021084082
:10240000402802D05048206102E00120C003206132
:102410004748006B10210840102802D045486061F1
:1024200001E0206860614248006B8007800F00284F
:1024300002D1A068A06119E03D48006B8007800FC1
:10244000012802D12068A06110E03948006B8007A4
:10245000800F022802D18003A06107E03448006B9E
:102460008007800F032801D13248A0613048006BFB
:10247000032109040840002802D1A068E06120E09F
:102480002B48006B032109040840012109048842FC
:1024900002D12068E06114E02548006B03210904A3
:1024A000084001214904884202D18010E06108E01F
:1024B0001F48006B032109040840884201D11D48D0
:1024C000E0611B48006B032189040840002802D109
:1024D000A068206220E01648006B032189040840B0
:1024E00001218904884202D12068206214E010484A
:1024F000006B0321890408400121C904884202D1EC
:102500000011206208E00A48006B0321890408409A
:10251000884201D1074820620548006B80210840AD
:10252000802802D00548606200E06762FEBD0000BE
:102530000010024000127A0000093D00006CDC022D
:1025400094010020809FD5001280000010B5024643
:102550000021002300205111002902D10C4C2368D6
:102560000BE0012902D10A4C236A06E0022902D1BC
:10257000074C636A01E0064C636BD106C90E012467
:102580008C401C40002C01D0012000E0002010BD38
:1025900000100240024840680C21084070470000CB
:1025A00000100240002807D00749096801221206DE
:1025B0001143054A116006E0034909680122120629
:1025C0009143014A1160704700100240074A526867
:1025D0007B23DB039A43054B5A601A465268034635
:1025E0000B431A43014B5A60704700000010024031
:1025F00001460020044A50688008800002460A43D1
:102600001046014A506070470010024010B5014664
:102610000B460A460868084C206004E00A46091D7B
:102620000868054C206004480068401C0028F5D16B
:102630001068014C206010BD9001002010B5FF20F3
:10264000F5301B49086000201A490870FF20F5305A
:10265000194908600020194908601949086019499A
:1026600008601949086012480168184800F042FBE8
:1026700010480178164800F03DFB0F4801681548E6
:1026800000F038FB0D480168134800F033FB0C489C
:102690000168124800F02EFB0A480168104800F05B
:1026A00029FB094801680F4800F024FB10BD000019
:1026B000980000208000002094000020C00000202E
:1026C000A8000020B0000020B8000020005400083E
:1026D00000580008005C0008006000080064000862
:1026E00000680008006C000810B53C48007801281C
:1026F00036D13B480068FF21F53188420ADB394872
:10270000007800F076F8012208210920C006FEF7C3
:102710008DFF61E032480068FF21F53188425BDAC5
:1027200031480088884213DB00202F4908800821A7
:102730000920C006FEF763FF002801D1012000E058
:1027400000200446224608210920C006FEF76EFF3D
:102750000022012109030920C006FEF767FF3BE0C4
:102760001E480078002837D120480068FF212D310D
:1027700088420ADD1B48007800F03BF8012208215E
:102780000920C006FEF752FF26E018480068FF2126
:102790002D31884220DC14480088FF21F531884221
:1027A00013DB00201049088008210920C006FEF72D
:1027B00026FF002801D1012000E000200446224627
:1027C00008210920C006FEF731FF0022012109037C
:1027D0000920C006FEF72AFF10BD0000C800002037
:1027E00010010020480000202C01002014010020CE
:1027F000704710B50446012C06D1012201030920BF
:10280000C006FEF713FF06E000220121090309209C
:10281000C006FEF70BFF10BD0CB500200190009024
:10282000314800680121090408432F49086000BFAE
:102830002D48006801214904084000900198401C7F
:1028400001900098002804D10521090301988842CD
:10285000EED125480068012149040840002802D033
:102860000120009001E0002000900098012839D15B
:1028700011201E4908601C4840681B4948600846F2
:1028800040684860084640687F21C903884316496C
:10289000486008464068112109040843124948600D
:1028A000084600680121090608430F49086000BF77
:1028B0000D4800680121490608400028F8D00A4860
:1028C0004068800880000849486008464068022146
:1028D00008430549486000BF034840680C21084090
:1028E0000828F9D10CBD0000001002400020024071
:1028F0007047000010B51B480068012108431949C2
:10290000086008464068184908401649486008466B
:10291000006816490840134908600846006801210C
:10292000890488430F490860084640683F2109042C
:1029300088430C4948600846C06A00090001C86223
:102940000846006BFF215431884306490863084656
:10295000406B40084000486300208860FFF75CFF40
:1029600010BD0000001002400CB8FF08FFFFF6FE8B
:102970001FB501210802FFF767FC114800F0D8F8E5
:10298000132168460170012181704170FFF7C8FB77
:1029900001A800F0A5F9002168468181C1807D2051
:1029A000C00002902F21684681800021817301A917
:1029B000034800F057F90121014800F0ABF81FBDB2
:1029C0000020004010B50121144800F036F900281D
:1029D00022D013480088401C11490880802109201A
:1029E000C006FEF70CFE002801D1012000E0002007
:1029F0000446224680210920C006FEF717FE08483B
:102A000000880A2804DB00200549088000F06CFAE1
:102A10000121024800F07BF810BD000000200040BA
:102A2000A400002010B50121134800F006F9012888
:102A300003D10121104800F067F802210E4800F090
:102A4000FCF8002803D002210B4800F05DF80421B7
:102A5000094800F0F2F8002803D00421064800F0ED
:102A600053F80821044800F0E8F8002803D00821B2
:102A7000014800F049F810BD002C014010B50121BB
:102A8000880700F0DAF8002803D00121880700F059
:102A90003BF810BD1FB501210220FFF7D5FB102127
:102AA000684601700121817004214170FFF738FBF5
:102AB0000D4800F03DF801A800F012F90021684629
:102AC0008181C1807D20C00002902F2168468180D5
:102AD0000021817301A9044800F0C4F801210248D3
:102AE00000F018F81FBD00000004004010B50121DF
:102AF000044800F0A2F8002803D00121014800F0AA
:102B000006F810BD00040040CA4302827047CA4361
:102B100002827047002904D0028801231A430280F0
:102B200003E00288014B1A4002807047FEFF00005C
:102B300010B504463748844208D10121C014FFF77C
:102B4000B3FB0021E014FFF7AFFB62E00120800738
:102B5000844208D101210846FFF786FB00210120AD
:102B6000FFF782FB55E02C48844208D10121022066
:102B7000FFF77AFB00210220FFF776FB49E02748A8
:102B8000844208D101211020FFF76EFB00211020A4
:102B9000FFF76AFB3DE02248844208D10121202052
:102BA000FFF762FB00212020FFF75EFB31E01D48AC
:102BB000844208D101218015FFF756FB0021A015A2
:102BC000FFF752FB25E01848844209D1012108048F
:102BD000FFF76AFB002101200004FFF765FB18E006
:102BE0001248844209D101214804FFF75DFB00210E
:102BF00001204004FFF758FB0BE00D48844208D148
:102C000001218804FFF750FB002101208004FFF719
:102C10004BFB10BD002C01400004004000100040A0
:102C200000140040002000400040014000440140EA
:102C3000004801400146486A704730B5024600200E
:102C400000230024158A0D402B4695890D402C4603
:102C5000002B03D0002C01D0012000E0002030BD6B
:102C60004162704700220288154B984206D001232A
:102C70009B07984202D0134B984203D1124B1A4043
:102C80004B881A43114B984203D0114B1A400B89C1
:102C90001A4302804B68C3620B880385084B984235
:102CA00008D00C4B984205D00B4B984202D00B4BEE
:102CB000984201D18B7A03860123838270470000FA
:102CC000002C0140000400408FFF00000010004075
:102CD000FFFC00000040014000440140004801406A
:102CE0000021C9434160002101800181418081723E
:102CF0007047000070B504460E46254620680C4912
:102D000008600BE0241D601B01218902884202D962
:102D10002846FEF7DDFC2068054908600448006885
:102D2000401C0028EED13146204600F003F870BD6B
:102D30009001002070B504460D46FEF7D7FA352005
:102D4000FEF74AFA29462046FEF79AFA3520FEF7A2
:102D500043FAFEF78BFA70BD02E008C8121F08C1E3
:102D6000002AFAD170477047002001E001C1121F0C
:102D7000002AFBD17047000000B587B0012148024E
:102D8000FFF782FA1848FDF799FB01A8FDF705FC4B
:102D900000206946087205900190069001A912482A
:102DA000FDF7D2FB01211048FDF7E4FB012211469B
:102DB0000D48FDF756FB0C48FDF790FB01210A4832
:102DC000FDF75BFB00BF09490748FDF7A5FB00289D
:102DD000F9D001210448FDF75CFB02210248FDF710
:102DE00064FB07B000BD00000024014001000001A9
:102DF00000B58DB001210846FFF716FA0921684693
:102E00000171012181710021417101A8FFF788F949
:102E10001748FEF783F802A8FEF776F9012005901F
:102E2000002004900C901348039001208002099028
:102E30008020079020200A900F480290801508906B
:102E400000200690012040030B9002A90848FEF7DD
:102E50003BF9012202210648FEF72CF90220FEF779
:102E60003FF801210248FEF74BF80DB000BD00000D
:102E700008000240A4010020402401401CB50121AB
:102E80004804FFF7D1F96846FEF7C4FB0120009023
:102E90000321684601710021817141710121C171D5
:102EA00069460920C006FEF72AFB1CBD10B5FFF7D6
:102EB0000BFAFEF7E2FAFDF778FB0848FFF722FA73
:102EC0000748FEF77FF9FEF737FA06490870FFF763
:102ED00061F9FEF727F9002010BD0000B0070020BF
:102EE000881300001100002010B510210920C00631
:102EF000FEF77BFB012805D118480088401C1749C4
:102F000008802AE015480088642807DD1348007807
:102F1000134908700020114908801EE00F480088FE
:102F200064280BDA0D480088322807DD0B4800784A
:102F30000B4908700020094908800EE00748008806
:102F400032280ADA05480088022806DD034800789E
:102F50000349087000200149088010BDA20000202C
:102F6000A0000020842F000800000020A401000021
:102F700028040008B42F0008A4010020AC0A0000B7
:102F8000682D000801153AACF7FF1F4319101918F6
:102F900002752033F401032FF401025A01D3E80330
:102FA00032320265121D0102030401020304060706
:042FB000080900000C
:04000005080000B13E
:00000001FF
