:020000040800F2
:10000000500C0020C5000008A122000811170008AC
:1000100000000000000000000000000000000000E0
:100020000000000000000000000000008929000816
:10003000000000000000000015230008892A0008C5
:10004000F5000008F5000008F5000008F5000008BC
:10005000F5000008F5000008F5000008F5000008AC
:1000600000000000D50E0008F5000008F5000008AB
:10007000F5000008BD2B0008F5000008152C00084D
:10008000852C000800000000000000005D2B000827
:1000900000000000F5000008F5000008F500000869
:1000A00000000000F500000800000000F500000856
:1000B0000348854600F0A6F900480047453000088F
:1000C000500C00200C4880F308880C480168090E89
:1000D0000B4A914205D10B480B4901600B480C4972
:1000E00001600C4880470C480047FEE7FEE7FEE74A
:1000F000FEE7FEE7FEE70000500C002004000000D1
:100100001F00000018100240010000000000014024
:10011000000000008D2A0008B100000830B50B4631
:10012000014600202022012409E00D46D5409D42D1
:1001300005D31D469540491B254695404019154657
:10014000521E002DF1DC30BDF8B502464A40D40FF6
:1001500042004B0052085B089A4202D2024608460F
:1001600011464A0023D0C30D4A00DDB2120EAD1A6B
:10017000202D35DA49020126490AF6058A19002C94
:1001800000D0524220214F1B1146B9402A4110187D
:10019000C20D9A4221D0002C17D0012D08DCDA05BF
:1001A000801AD20F8019D207DBB200F0F1F8F8BD47
:1001B000DA05801A012340001B06C01880185A4235
:1001C0008018CA0F1043490007E04908C2071143CD
:1001D000DA05801A80194008801800F0D1F8F8BDBF
:1001E00061000122511A001BF7E70122D20751409A
:1001F000AAE70122D2075040A6E7024670B54A405E
:10020000D30FDB0740002DD04A002AD0010E140E78
:10021000000212020919400A520A8418E501044634
:100220005443000A120A2E045043A4194219200C08
:10023000C543AA18120C0125AD03521C5219120411
:100240007F39240400D0521C104301D44000491EC1
:10025000C2B20C06C0092018401C4008802A02D0F7
:1002600003E0002070BD40084000002900DA0020B3
:10027000184370BD70B502464A40D50F40004A0091
:10028000ED0740085208002814D0002A12D0C40DEF
:10029000D30D41020120C0055202490A520AE41A54
:1002A000091812187D34914201D3641C00E0490002
:1002B000002C01DA002070BD0023914201D3891A7D
:1002C0000343400849000028F7D100290AD0914291
:1002D00002D10121C90705E0914201D2012101E0CB
:1002E0000121C943E005C018401900F049F870BD6C
:1002F00010B500229623114600F04AF810BDC20F37
:10030000410040020123400ADB05D207090EC01854
:100310007F2901DA00207047962903DC9623591AB9
:10032000C84001E096398840002AF4D04042704726
:10033000410040020122400AD205090E80187F299F
:1003400001DA00207047962903DC9622511AC84032
:1003500070479639884070470122D207002800DB99
:10036000101A002900DB511A814270470122D2077E
:10037000002800DB101A002900DB511A8842704760
:10038000002904DA401C490001D1400840007047B0
:1003900070B40024050C05D11024000402D10029FA
:1003A00021D01124050E01D100020834050F01D11E
:1003B0000001241D850F01D18000A41C002801DB51
:1003C0004000641C002908D020252E1B0D46F54056
:1003D000A14000D001212943084301061B1B000A4C
:1003E000DB1D02D5002070BC7047DB051818801893
:1003F0000029F8DA401C4900F5D170BC40084000E3
:1004000070470000064C0125064E05E0E36807CC66
:100410002B430C3C98471034B442F7D3FFF74CFE03
:10042000103100083031000830B58C180278401CBB
:1004300013071B0F01D10378401C120906D1027863
:10044000401C03E005780D70401C491C5B1EF9D16F
:1004500001E00B70491C521EFBD1A142E6D30020E3
:1004600030BD10B50B460021846A1C43846200BF76
:100470000C4614432146416110BD002904D0826816
:1004800001231A43826003E0826802231A438260D8
:100490007047002904D0C26801231A43C26003E0F8
:1004A000C26852085200C2607047C26802239A4371
:1004B000C260C2680A43C2607047000010B50446BB
:1004C0000548844207D10121401501F0AFFF00210A
:1004D000601501F0ABFF10BD0024014030B50146AE
:1004E0000020002200238C680125ED072C438C603E
:1004F00000BF8C68E30FDB07521C0F242403A242C9
:1005000001D0002BF5D18C68E40FE407002C01D159
:10051000086C00E0002030BD30B50246002000230A
:10052000012424060C40002C05D0946801252D06DA
:10053000AC43234600E013681C460C40002C01D05D
:10054000012000E0002030BD10B50022C268084B39
:100550001A400C7964030B6823438C682343CC68EE
:1005600023430C6923434C6923431A43C26010BDE3
:1005700003D2FFFF002905D0C26801231B031A43E1
:10058000C26004E0C26801231B039A43C260704743
:10059000816804221143816070470021016001716C
:1005A0008160C16001614161704710B502F032FDA8
:1005B00002F0AEFC02F0E8FC02F0A6FA02F036FB14
:1005C00001F007F800F062FF10BD000070B500F008
:1005D00005FCED4801780078401CEB4A107048009B
:1005E000EA49085EEA4909788900EA4A5050E64833
:1005F00001780078401CE44A10704800E349085E26
:10060000E34909788900E44A5050DF4801780078CE
:10061000401CDD4A10704800DC49085EDC4909785E
:100620008900DE4A5050DA480078401CD8490870EA
:1006300008460078042806DA00BFD94802F0C6FB55
:100640005528FAD39FE1D24800780328FADD00202C
:10065000D4490870CE490870CB490870CD49096863
:10066000CC4A52688918CB4A92688918C94AD2681C
:1006700089188808FFF73CFECB490860C64909681D
:10068000C54A52688918C44A92688918C24AD26811
:1006900089188808FFF72CFEC4490860BF4909681B
:1006A000BE4A52688918BD4A92688918BB4AD26806
:1006B00089188808FFF71CFEBD490860BB4801681F
:1006C000B9480068FFF740FD0446B9480168204674
:1006D000FFF73AFDB7490860B34801688920C005B3
:1006E000FFF78BFD0546B34801682846FFF7C2FDBA
:1006F0000446FFF704FEB0490860AC480168892051
:10070000C005FFF77AFD0546AA4801682846FFF7AD
:10071000B1FD0446FFF7F3FDA8490860A44801684D
:100720008920C005FFF769FD0546A24801682846F3
:10073000FFF7A0FD0446FFF7E2FDA1490860A149CB
:100740000868FFF7D5FD04469A4801682046FFF780
:1007500003FE0FD29B490868FFF7CAFD054695487E
:1007600001682846FFF745FD0446FFF7C8FD964996
:1007700008600EE093490868FFF7BAFD05468D480A
:1007800001682846FFF731FD0446FFF7B8FD8E49A2
:1007900008608E48006888490968884207D28B48FB
:1007A000006885490968081A8949086006E0874891
:1007B000006881490968401A8549086085480068D1
:1007C0007E490968884207D2824800687B490968E7
:1007D000081A8149086006E07E4800687749096880
:1007E000401A7D4908607D4800687549096888425B
:1007F00007D27A48006872490968081A784908607F
:1008000006E0764800686E490968401A7449086035
:100810006F480068704909684018714909684018B4
:100820007049086068480068096840187D21C9005F
:10083000081A6D49086008460068002802DC00209C
:10084000086008E0684800687D21C900884202DB32
:100850000846654908606548006865490978890067
:10086000644A505062480078800011460858624936
:1008700000228A5E904207DD5D48007880005D4975
:10088000085A00B25C4908805948007880005949EC
:1008900008585A4900228A5E904207DA5448007884
:1008A00080005449085A00B25449088050480078E2
:1008B000401C4F4908700846007807280FDD0020CB
:1008C00008704D49085E4D4900228A5E801A4C49E5
:1008D00008600020484908804A484849088048493B
:1008E0000868C10F09184910474A12688918474A11
:1008F00011604548006842490968401A78384449FF
:100900000860084600680A2801DA0A2008603648AC
:1009100000683E490968884211DB00203D490870A3
:100920003D480078401C3C4908700846007804287F
:100930001BDB0020087001203849087015E02A48A8
:1009400000683349096888420FDC0020324908708A
:1009500030480078401C2F49087008460078042869
:1009600003DB002008702D49087000F0F5FE01F04F
:1009700087FF00F0C5FE2A49087000BF084802F052
:1009800025FA5528FAD370BD34010020DC07002079
:100990003501002000080020100800202008002059
:1009A000000400400E000020E0000020E4000020D1
:1009B000E8000020EC0000200401002008010020D5
:1009C0000C010020C0000020FC000020A800002036
:1009D000F0000020B0000020F4000020B80000204B
:1009E000F800002000010020100100201401002068
:1009F00024010020300800202001002022010020D6
:100A000028010020FF0F0000940000201C0100209E
:100A10001801002037010020360100204800002086
:100A2000C8000020F8B50024002524E000F0D6F925
:100A30002846691CCDB24000CE49085EA100CE4ACE
:100A400050502846691CCDB24000CA49085EA1003A
:100A5000CA4A50502846691CCDB24000C549085EBC
:100A6000A100C74A5050601CC4B200BFC54802F084
:100A7000ADF95528FAD3032CD8DB00F0AFF928469E
:100A8000691CCDB24000BB49085EA100BA4A505073
:100A90002846691CCDB24000B649085EA100B74A9D
:100AA00050502846691CCDB24000B249085EA100F2
:100AB000B34A5050601CC4B200BFB24802F086F97D
:100AC0005528FAD30020B049087000240025AA490F
:100AD0000968A94A52688918A74A92688918A64ADB
:100AE000D26889188808FFF703FCA84909788900AB
:100AF000A74A5050A1490968A04A526889189F4ADC
:100B0000926889189D4AD26889188808FFF7F0FB17
:100B10009E49097889009F4A505099490968984A26
:100B200052688918964A92688918954AD268891835
:100B30008808FFF7DDFB954909788900964A5050EF
:100B4000924A12789200934B9958904A12789200E8
:100B50008F4B9858FFF7F8FA07468C4800788000CA
:100B60008D4A11583846FFF7EFFA0646FFF7E0FBCB
:100B7000864909788900894A505084490978890052
:100B80005058FFF7B5FB0746804800788000804A40
:100B900011588920C005FFF730FB39460090FFF758
:100BA00069FB0646FFF7C4FB7849097889007C4A4F
:100BB0005050764909788900784A5058FFF798FBD9
:100BC0000746724800788000724A11588920C00593
:100BD000FFF713FB39460090FFF74CFB0646FFF783
:100BE000A7FB6A49097889006E4A5050674909781D
:100BF00089006A4A5058FFF77BFB07466348007834
:100C00008000654A11588920C005FFF7F6FA394679
:100C10000090FFF72FFB0646FFF78AFB5B49097838
:100C20008900614A505059480078401C5749087063
:100C300008460078022870DB002008705848406899
:100C400057490968884207D9554840685449096896
:100C5000401A5649086006E0514800685049496802
:100C6000401A524908604F4840684E490968884216
:100C700007D94C4840684B490968401A4C490860FC
:100C800006E04848006847494968401A48490860F2
:100C90004548406844490968884207D94248406845
:100CA00041490968401A4349086006E03E48006827
:100CB0003D494968401A3F4908603848406837490B
:100CC0000968884207D93548406834490968401A9C
:100CD0003949086006E03148006830494968401ADF
:100CE0003549086031480068314909684018314980
:100CF00009684018314908602F48006809684018A1
:100D000040087D21C900081A2D490860084600687E
:100D1000C82803DCC820086009E021E028480068F2
:100D20007D21C900884202DB0846254908601B482E
:100D30000168244802F0AAF819480168224802F024
:100D4000A5F818480168214802F0A0F81648016883
:100D50001F4802F09BF81A4801681E4802F096F8F6
:100D600000201D49087000BF064802F02FF85528E2
:100D7000FAD3F8BDDC07002000080020100800208E
:100D800020080020000400400E000020A6000020E3
:100D90004C000020540000205C000020C000002017
:100DA000A8000020B0000020B8000020CC000020E7
:100DB000D0000020D4000020D8000020DC0000205B
:100DC000940000200060000800640008006800082B
:100DD000006C0008005C0008A000002010B5002195
:100DE000394802F009F8012204210920C00600F068
:100DF0003FFC012211020920C00600F039FC00BFAF
:100E0000314801F0E3FF0028FAD00022FF21013130
:100E10000920C00600F02CFC00202C4908702C484A
:100E2000FFF7B6FB00BF294800780028FBD0002060
:100E300026490870012251020920C00600F018FC62
:100E400000BF214801F0C2FF0228FAD3002201218D
:100E500049020920C00600F00BFC00201B49087065
:100E60001B48FFF795FB00BF184800780028FBD00F
:100E7000002016490870012291020920C00600F0E6
:100E8000F7FB00BF104801F0A1FF0328FAD30022AE
:100E9000012189020920C00600F0EAFB00200B496D
:100EA00008700B48FFF774FB00BF08480078002863
:100EB000FBD0002005490870002204210920C0064B
:100EC00000F0D6FB10BD0000000400401000002020
:100ED0000024014010B5022000F0F2F8002813D0E1
:100EE0000A4800880A49081A01B20A4802780078BC
:100EF000401C084B18705000074A11520120074946
:100F00000870022000F00CF810BD0000A8010020BD
:100F1000FF0F00000E000020DC0700201000002062
:100F2000012109070140002902D00349486001E07E
:100F3000024948607047000000040240000002407F
:100F4000002904D0026801231A43026003E002680A
:100F5000014B1A4002607047FEFF00000168554ACD
:100F6000114001600021016041608160C16052490F
:100F7000884208D15049083949680F2211434E4A26
:100F8000083A516094E04C491431884208D14A49EA
:100F900008394968F0221143474A083A516087E00E
:100FA00045492831884209D14349083949680F2207
:100FB00012021143404A083A516079E03E493C31FF
:100FC000884209D13C49083949680F22120311436C
:100FD000394A083A51606BE037495031884209D1AB
:100FE0003549083949680F2212041143324A083A38
:100FF00051605DE030496431884209D12E49083999
:1010000049680F22120511432B4A083A51604FE0FC
:1010100029497831884209D12749083949680F227E
:1010200012061143244A083A516041E0234988429C
:1010300008D12249083949680F2211431F4A083A4A
:10104000516035E01D491431884208D11B490839E7
:101050004968F0221143194A083A516028E01749BB
:101060002831884209D11549083949680F221202EE
:101070001143124A083A51601AE010493C31884243
:1010800009D10E49083949680F22120311430B4A4E
:10109000083A51600CE009495031884208D10749AB
:1010A000083949680F2212041143044A083A516072
:1010B00070470000FEFF00000800024008040240E4
:1010C00001460020002201231B070B40002B02D009
:1010D000064B1A6801E0064B1A6813460B40002BBA
:1010E00001D0012000E00020704700000004024011
:1010F00000000240002A03D003680B43036002E0B3
:1011000003688B430360704710B5002202680D4BE3
:101110001A400C6A8B6823430C6923434C692343B0
:101120008C692343CC6923434C6A23438C6A234351
:101130001A430260CB6843600B6883604B68C360EE
:1011400010BD00000F80FFFF002101604160816041
:10115000C160016141618161C1610162416281627D
:101160007047000000F08AFA002400E0641C0A2C9A
:10117000FCDB3DE01F48007801280DDA1E480078AE
:10118000012802D1FFF722FA10E01B48007800285E
:101190000CD100F00BFB09E0FFF720FE00F0DCFAB9
:1011A00000BF164801F012FE5528FAD31448007803
:1011B000002816DD012109030920C00600F037FAD6
:1011C00005462A46012109030920C00600F050FA0D
:1011D00009480078002802D0FFF724FC01E000F065
:1011E000EDFA01F057FF07480088401C05490880C8
:1011F000C0E70000A6000020C80000200004004056
:10120000A00000202C01002004E0411E08B20028AC
:1012100000DC00E0F9E700BF704700000149C8604A
:10122000704700000020024030B5044604250B2022
:10123000000400F08FF80546042D17D10C48006912
:10124000022108430A4908610846446100694021B7
:101250000843074908610B20000400F07BF80546AD
:10126000034800690221884301490861284630BDCE
:101270000020024004200D49C968C907C90F002990
:1012800001D0012010E00949C9681022114000294D
:1012900001D0022008E00549C96804221140002954
:1012A00001D0032000E0042070470000002002402D
:1012B0000348006980210843014908617047000024
:1012C0000020024078B506460C4604250020009018
:1012D0000B20000400F03EF80546042D24D11348ED
:1012E0000069012108431149086134800B20000482
:1012F00000F030F80546042D10D1B01C0090200CF1
:10130000009908800B20000400F024F805460748E7
:101310000069400840000549086105E0034800698C
:101320004008400001490861284678BD002002407D
:101330000548006980210840002804D0034802497C
:101340004860034848607047002002402301674519
:10135000AB89EFCD10B503460424FFF78BFF04469D
:1013600003E0FFF787FF04465B1E012C01D1002B31
:10137000F7D1002B00D10524204610BD10B511492E
:10138000114800F029F80F4800780E494978090201
:1013900040180C498978090440180A49C978090697
:1013A00040180A4908600A4800680A490860084667
:1013B000006806490968884201D1012400E0002440
:1013C000204610BD20000020F4070020240000204B
:1013D00000700008280000202A4A12681279027062
:1013E000284A1268127A4270264A1268527882702D
:1013F000244A1268D278C270224A126812780271A6
:10140000204A1268527942711E4A1268927A827199
:101410001C4A1268D279C2711A4A1268527A027250
:10142000184A126892784272164A1268D27A827208
:10143000144A12689279C272134A126812780378B9
:101440005A400A70104A1268527883795A40C37918
:101450005A40037A5A40437A5A40837A5A40C37AB0
:101460005A404A70084A1268927803795A408A7042
:10147000054A1268D27883785A4043785A40CA7035
:1014800070470000140000201C0000201CB5012142
:101490002320400400F08AFF684600F0DDF8802039
:1014A0000090012168460171002181714171022182
:1014B000C17169460920C00600F043F81CBD1CB587
:1014C00001212320400400F071FF684600F0C4F8B9
:1014D0000120000300900121684601710021817103
:1014E0004171C17169460920C00600F02AF8012047
:1014F000C002009000216846017141710221C17152
:1015000069460920C00600F01CF80820009001215F
:1015100068460171002141710221C17169460920AB
:10152000C00600F00EF810200090002168460171FE
:1015300041710221C17169460920C00600F001F81D
:101540001CBDF0B50A4600210023002400BF3DE089
:1015500001258D402B4615681D402C469C4234D1F8
:101560001579012D02D01579022D16D185684F000D
:101570000326BE40B543856055794E00B540866868
:1015800035438560858801268E40B54385808588F2
:1015900096798E40B6B23543858005684F000326A4
:1015A000BE40B543056015794E00B5400668354329
:1015B0000560C5684F000326BE40B543C560D579B8
:1015C0004E00B540C6683543C560491C1029BFD3DD
:1015D000F0BD1CB50121480400F0E8FEFF200130F9
:1015E0000090012168460171002181710121C171C2
:1015F0000321417169460920C006FFF7A2FF0120BF
:101600004002009069460920C006FFF79AFF0120BA
:101610008002009069460920C006FFF792FF04206F
:10162000009069460920C006FFF78BFF1CBD0246EB
:101630000020138A0B40002B01D0012000E0002085
:10164000704702460020938A0B40002B01D00120F6
:1016500000E0002070470000044901600021017192
:101660000121417100218171C1717047FFFF0000AC
:10167000002A01D0816100E00185704710B5124851
:1016800001F090F811490860114801F08BF81149F8
:101690000870114801F086F810490860104801F000
:1016A00081F810490860104801F07CF80F49086083
:1016B0000F4801F077F80F4908600F4801F072F801
:1016C0000E49086010BD000000540008980000207A
:1016D0000058000880000020005C000894000020F2
:1016E00000600008C000002000640008A80000207E
:1016F00000680008B0000020006C0008B80000205E
:1017000010B50121C9020920C006FFF790FF10BDE6
:1017100000BFFEE710B55D2000F0E4FF002801D017
:1017200000F094FE074800F02BF8042000F01CF8AD
:101730007D20000100F01EF800F00EF800F004F823
:1017400010BD00005555000001480249086070476F
:10175000CCCC0000003000400148024908607047CE
:10176000AAAA00000030004001494860704700000C
:1017700000300040014988607047000000300040A0
:1017800001490860704700000030004010B5044671
:10179000FFF7CEFD3520FFF741FD2046FFF744FD62
:1017A0003520FFF73BFDFFF783FD10BD10B5024864
:1017B000007800F071F910BD8000002070B50024A1
:1017C000002524E0FFF70AFB2846691CCDB2400043
:1017D0009E49085EA1009E4A50502846691CCDB221
:1017E00040009A49085EA1009A4A50502846691C58
:1017F000CDB240009549085EA100974A5050601C48
:10180000C4B200BF954801F0E1FA5528FAD3032C81
:10181000D8DBFFF7E3FA2846691CCDB240008B49BC
:10182000085EA1008A4A50502846691CCDB240008B
:101830008649085EA100874A50502846691CCDB2EF
:1018400040008249085EA100834A5050601CC4B227
:10185000002083490870002400257D4909687C4ADE
:10186000526889187A4A92688918794AD268891820
:101870008808FEF73DFD7B49097889007A4A505077
:1018800074490968734A52688918724A92688918BB
:10189000704AD26889188808FEF72AFD71490978CC
:1018A0008900724A50506C4909686B4A526889181D
:1018B000694A92688918684AD26889188808FEF7C8
:1018C00017FD684909788900694A505065480078D1
:1018D000401C6449087008460078022876DB002026
:1018E0000870614A51681068FEF740FD07D85E4AEB
:1018F00051681068FEF779FC5E49086006E05A4AB4
:1019000011685068FEF771FC5A490860574A5168DF
:101910001068FEF72BFD07D8544A51681068FEF78F
:1019200064FC5549086006E0504A11685068FEF7AB
:101930005CFC514908604E4A51681068FEF716FD7C
:1019400007D84B4A51681068FEF74FFC4B490860B6
:1019500006E0474A11685068FEF747FC47490860AF
:101960004548016843480068FEF700FD02D241483F
:10197000006801E040480068414908603F4801684C
:101980003F480068FEF7F2FC02D23D48006801E0E3
:101990003A4800683A4908603648016838480068A3
:1019A000FEF7DAFC13D130490868FEF7A8FC354988
:1019B000086000203449087032480168334801F05B
:1019C00065FA31480178324801F060FA34E02A487B
:1019D00001682B480068FEF7BFFC13D12349086853
:1019E000FEF78DFC2749086001202749087025482B
:1019F0000168264801F04AFA23480178244801F09A
:101A000045FA19E01D4801681D480068FEF7A4FC6E
:101A100012D117490868FEF772FC1A4908600220C3
:101A20001949087017480168184801F02FFA16483C
:101A30000178174801F02AFA00201649087000BF03
:101A4000064801F0C3F95528FAD370BDDC07002021
:101A5000000800201008002020080020000400409A
:101A60000E000020A60000204C00002054000020A2
:101A70005C00002064000020680000206C00002052
:101A80007000002098000020800000200054000812
:101A900000580008A000002010B50446002C7DD19D
:101AA0000021FE4801F0A8F9012204210920C00606
:101AB000FFF7DEFD0022012149020920C006FFF7E1
:101AC000D7FD0022012189020920C006FFF7D0FDC1
:101AD000012211020920C006FFF7CAFD00BFEF482E
:101AE00001F074F90028FAD00022FF210131092009
:101AF000C006FFF7BDFD0020E9490870E948FEF780
:101B000047FD00BFE64800780028FBD00020E449EC
:101B1000087000BFE14801F059F91428FAD30022F7
:101B200004210920C006FFF7A3FDDF4801780078F3
:101B3000401CDD4A10704800DC49085EDC49097829
:101B40008900DC4A5050DA480078401CD8490870B7
:101B500008460078042806DA00BFD04801F036F9BC
:101B60005528FAD373E3D24800780328FADD002021
:101B7000D1490870CE490870CB490870CD4800683B
:101B8000CC4949684018CB4989684018C949C96897
:101B900040188008C9490860084600E0BBE00068BA
:101BA0000A2801DA0A200860C4480068C44988424B
:101BB00002DB0846C1490860C0480068C14909788D
:101BC0008900C14A5050BF4800788000114608582B
:101BD000BE4900228A5E904207DDBA480078800044
:101BE000B949085A00B2B9490880B648007880005F
:101BF000B5490858B64900228A5E904207DAB148D2
:101C000000788000B049085A00B2B1490880AD4858
:101C10000078401CAB4908700846007807280FDDA3
:101C200000200870A949085EA94900228A5E801A2E
:101C3000A84908600020A5490880A148A449088057
:101C4000A54A126806235A431146D217520F52185A
:101C5000D2109A4B1B689A421DDA9F4A1268D30031
:101C6000D018C217520F1218D210944B1B689A4208
:101C700011DD00209949087099480078401C984966
:101C8000087008460078042836DB00200870012020
:101C90009449087030E0904A126806235A4311466E
:101CA000D217520F5218D2108A4B1B68D21A643ABC
:101CB000824B1B689A420FDA874A1268D300D01809
:101CC000C217520F1218D210824B1B68D2186432FE
:101CD0007A4B1B689A420FDC0020814908707F48CC
:101CE0000078401C7D49087008460078042803DB12
:101CF000002008707B490870FFF72EFD00F0C0FD42
:101D0000FFF7FEFC7849087000BF644801F05EF8F8
:101D10005528FAD39BE2012C7ED100215F4801F0C7
:101D20006BF8012204210920C006FFF7A1FC002264
:101D300021020920C006FFF79BFC0022A102092016
:101D4000C006FFF795FC012251020920C006FFF7EB
:101D50008FFC00BF514801F039F80028FAD000226A
:101D6000012149020920C006FFF782FC00204C49EE
:101D700008704C48FEF70CFC00BF4948007800286A
:101D8000FBD000204649087000BF444801F01EF80F
:101D90001428FAD3002204210920C006FFF768FCAA
:101DA000414801780078401C3F4A107048003F4984
:101DB000085E3F49097889003E4A50503C48007807
:101DC000401C3B49087008460078042806DA00BF2A
:101DD000324800F0FBFF5528FAD338E23448007847
:101DE000032897DD002034490870314908702E49D6
:101DF0000870304800682F49496840182D498968A3
:101E000040182C49C968401880082C4908600846C9
:101E100000680A2803DA00E0E1E00A2008602748A9
:101E200000682749884202DB0846244908602348A5
:101E30000068244909788900234A505021480078D5
:101E4000800011460858214900228A5E904207DD31
:101E50001C48007880001C49085A00B21B490880C1
:101E600018480078800018490858194900228A5EED
:101E7000904207DA1348007880001349085A00B2EC
:101E8000134908800F480078401C0E490870084626
:101E90000078072838DD0020087027E000040040A3
:101EA000100000200024014038010020DC07002041
:101EB00039010020000800200E000020140100203D
:101EC000FF0F000024010020300800202001002026
:101ED0002201002028010020980000203701002066
:101EE0003601002048000020C8000020D849085EC4
:101EF000D84900228A5E801AD74908600020D44958
:101F00000880D648D3490880D54A126806235A4328
:101F10001146D217520F5218D210D24B1B689A4258
:101F20001DDACF4A1268D300D018C217520F121808
:101F3000D210CC4B1B689A4211DD0020CA490870B0
:101F4000CA480078401CC94908700846007804282F
:101F500036DB002008700120C549087030E0C04A17
:101F6000126806235A431146D217520F5218D21044
:101F7000B94B1B68D21A643ABA4B1B689A420FDA03
:101F8000B74A1268D300D018C217520F1218D210D5
:101F9000B14B1B68D2186432B24B1B689A420FDCFB
:101FA0000020B2490870B0480078401CAE49087063
:101FB00008460078042803DB00200870AC4908704C
:101FC000FFF7CAFB00F05CFCFFF79AFBA949087019
:101FD00000BFA94800F0FAFE5528FAD337E1022CD9
:101FE000FCD10021A44800F007FF012204210920B0
:101FF000C006FFF73DFB0022E1010920C006FFF704
:1020000037FB002221020920C006FFF731FB012225
:1020100091020920C006FFF72BFB00BF964800F095
:10202000D5FE0028FAD00022012189020920C0062D
:10203000FFF71EFB0020914908709148FEF7A8FAAF
:1020400000BF8E4800780028FBD000208B49087024
:1020500000BF894800F0BAFE1428FAD300220421F8
:102060000920C006FFF704FB864801780078401C71
:10207000844A107048008449085E844909788900C0
:10208000834A505081480078401C804908700846B7
:102090000078042806DA00BF774800F097FE55283C
:1020A000FAD3D4E079480078032897DD00207949F5
:1020B000087076490870734908707548006874495B
:1020C000496840187249896840187149C9684018C0
:1020D000800864490860084600680A2801DA0A2076
:1020E0000860604800685D49884202DB08465D4937
:1020F00008605C480068684909788900674A505060
:1021000065480078800011460858514900228A5ECF
:10211000904207DD6048007880006049085A00B2AC
:102120004B4908805C48007880005C490858494960
:1021300000228A5E904207DA5748007880005749AB
:10214000085A00B24349088053480078401C52495D
:1021500008700846007807280FDD002008703C4909
:10216000085E3C4900228A5E801A3B4908600020D4
:1021700037490880394837490880394A12680623A8
:102180005A431146D217520F5218D210354B1B68C2
:102190009A421DDA324A1268D300D018C217520F81
:1021A0001218D2102F4B1B689A4211DD00202E49C5
:1021B00008702E480078401C2C49087008460078AA
:1021C000042836DB0020087001202949087030E01F
:1021D000234A126806235A431146D217520F521847
:1021E000D2101D4B1B68D21A643A1E4B1B689A42D0
:1021F0000FDA1B4A1268D300D018C217520F1218F8
:10220000D210154B1B68D2186432164B1B689A42C9
:102210000FDC00201549087013480078401C124953
:10222000087008460078042803DB00200870104975
:102230000870FFF791FA00F023FBFFF761FA0D49F0
:10224000087000BF0C4800F0C1FD5528FAD310BD3E
:10225000200100202201002028010020FF0F0000A3
:1022600098000020140100203701002036010020D2
:1022700048000020C800002000040040100000209A
:102280000024014038010020DC0700203901002033
:10229000000800200E00002024010020300800204B
:1022A0007047000000218278002A27D0184A0323B3
:1022B0001B02D21803789B109B00D158027892071A
:1022C000D30EFF229A400B46934319464278920759
:1022D000120E03789B07DB0E9A4011430C4A03232E
:1022E0001B02D21803789B109B00D1500278D306B2
:1022F000DB0E01229A40064B1A6007E00278D306F3
:10230000DB0E01229A40024B80331A6070470000B6
:1023100000E100E07047000010B5134800F042FAF9
:1023200012490860084600681149884203DC0F48DA
:102330000068002804DA00200C49086000F04AFA1E
:102340000A480068401C09490860084601680648B8
:1023500000F09CFD3220FEF757FF0448006801287A
:1023600001DC00F037FA10BD0050000830000020FA
:10237000FFFF00000C4949680122920391430A4A79
:1023800051601146496882B21143074A51601146B3
:10239000096B92159143044A11631146096B020CB3
:1023A0001143014A1163704700100240002905D013
:1023B000054A52690243044B5A6104E0024A5269D9
:1023C0008243014B5A61704700100240002905D03A
:1023D000054AD2690243044BDA6104E0024AD26939
:1023E0008243014BDA61704700100240002905D09A
:1023F000054A12690243044B1A6104E0024A126959
:102400008243014B1A61704700100240002905D039
:10241000054A92690243044B9A6104E0024A9269B8
:102420008243014B9A61704700100240002905D099
:10243000054AD2680243044BDA6004E0024AD268DB
:102440008243014BDA607047001002400348406A43
:102450000121090608430149486270470010024003
:1024600010B50521C9040120C00300F07BF901204B
:1024700000F064F90848FFF77DFF00BF192000F065
:1024800031F90028FAD0022000F07EF900BF00F0F8
:102490004DF90828FBD110BD00400001FEB50446EF
:1024A0000025002600200290019000900027864819
:1024B00040680C2108400546002D06D0042D07D0A9
:1024C000082D08D00C2D2CD128E0804820602BE06E
:1024D0007E48206028E07C4840680F21890408403D
:1024E0000646794840680321C90308400290B00CB1
:1024F000861C0298002803D17548374647430BE0F5
:102500007148C06A0007000F401C01906F48019994
:10251000FDF704FE70430746276005E06D48206024
:1025200002E06A48206000BF00BF67484068F021B1
:10253000084005462D096848405D009020680099D4
:10254000C8406060604840680721090208400546AD
:102550002D0A6148405D009061680098C140A1600B
:102560005948006BFF2101310840884202D05B4886
:10257000E0600DE05448406801218903084088422A
:1025800003D0A0684008E06002E0A0688008E06036
:102590004D48006B40210840402802D0504820613F
:1025A00002E00120C00320614748006B1021084071
:1025B000102802D04548606101E02068606142480F
:1025C000006B8007800F002802D1A068A06119E08D
:1025D0003D48006B8007800F012802D12068A06170
:1025E00010E03948006B8007800F022802D1800379
:1025F000A06107E03448006B8007800F032801D1F9
:102600003248A0613048006B0321090408400028CB
:1026100002D1A068E06120E02B48006B032109048F
:10262000084001210904884202D12068E06114E0D9
:102630002548006B03210904084001214904884210
:1026400002D18010E06108E01F48006B03210904FB
:102650000840884201D11D48E0611B48006B0321FE
:1026600089040840002802D1A068206220E01648B2
:10267000006B03218904084001218904884202D1AA
:102680002068206214E01048006B03218904084090
:102690000121C904884202D10011206208E00A48E1
:1026A000006B032189040840884201D10748206259
:1026B0000548006B80210840802802D005486062F0
:1026C00000E06762FEBD00000010024000127A00C8
:1026D00000093D00006CDC0298010020809FD500BD
:1026E0001280000010B50246002100230020511185
:1026F000002902D10C4C23680BE0012902D10A4CBD
:10270000236A06E0022902D1074C636A01E0064C05
:10271000636BD106C90E01248C401C40002C01D0F3
:10272000012000E0002010BD001002400248406877
:102730000C2108407047000000100240002807D01C
:1027400007490968012212061143054A116006E093
:1027500003490968012212069143014A116070473A
:1027600000100240074A52687B23DB039A43054B63
:102770005A601A46526803460B431A43014B5A608B
:10278000704700000010024001460020044A5068D3
:102790008008800002460A431046014A5060704794
:1027A0000010024010B501460B460A460868084C66
:1027B000206004E00A46091D0868054C20600448B2
:1027C0000068401C0028F5D11068014C206010BD45
:1027D0009401002010B5FF20F5301B49086000204F
:1027E0001A490870FF20F53019490860002019497E
:1027F00008601949086019490860194908601248B9
:102800000168184800F042FB10480178164800F0B3
:102810003DFB0F480168154800F038FB0D48016882
:10282000134800F033FB0C480168124800F02EFBFF
:102830000A480168104800F029FB094801680F4860
:1028400000F024FB10BD0000980000208000002054
:1028500094000020C0000020A8000020B00000204C
:10286000B80000200054000800580008005C000870
:10287000006000080064000800680008006C0008A0
:1028800010B53A480078012837D1394939480068ED
:10289000FDF76CFD0AD83848007800F076F8012280
:1028A00008210920C006FEF7E3FE5DE0304931480B
:1028B0000068FDF751FD57D2304800883049884202
:1028C00013DB00202D49088008210920C006FEF7EF
:1028D000B8FE002801D1012000E000200446224675
:1028E00008210920C006FEF7C3FE002201210903CA
:1028F0000920C006FEF7BCFE36E01C480078002820
:1029000032D1204800688C280ADD1B48007800F08E
:102910003CF8012208210920C006FEF7A9FE23E0A9
:10292000184800688C281FDC144800881449884225
:1029300013DB00201149088008210920C006FEF79A
:1029400080FE002801D1012000E00020044622463C
:1029500008210920C006FEF78BFE00220121090391
:102960000920C006FEF784FE10BD0000C80000204C
:102970000000FA43EC000020480000202C01002059
:102980000410000014010020704710B50446012C0B
:1029900006D1012201030920C006FEF769FE06E008
:1029A0000022012109030920C006FEF761FE10BDC7
:1029B0000CB5002001900090314800680121090405
:1029C00008432F49086000BF2D48006801214904D1
:1029D000084000900198401C01900098002804D104
:1029E0000521090301988842EED12548006801219C
:1029F00049040840002802D00120009001E0002096
:102A000000900098012839D111201E4908601C4807
:102A100040681B494860084640684860084640686E
:102A20007F21C90388431649486008464068112140
:102A30000904084312494860084600680121090654
:102A400008430F49086000BF0D480068012149068E
:102A500008400028F8D00A484068800880000849EB
:102A6000486008464068022108430549486000BFA5
:102A7000034840680C2108400828F9D10CBD00002B
:102A800000100240002002407047000010B51B48B3
:102A90000068012108431949086008464068184940
:102AA000084016494860084600681649084013491E
:102AB0000860084600680121890488430F490860BE
:102AC000084640683F21090488430C49486008468D
:102AD000C06A00090001C8620846006BFF2154313A
:102AE0008843064908630846406B40084000486335
:102AF00000208860FFF75CFF10BD0000001002405E
:102B00000CB8FF08FFFFF6FE1FB501210802FFF712
:102B10005DFC114800F0D8F81321684601700121CE
:102B200081704170FFF7BEFB01A800F0A5F90021FC
:102B300068468181C1807D20C00002902F216846B7
:102B400081800021817301A9034800F057F9012118
:102B5000014800F0ABF81FBD0020004010B5012176
:102B6000144800F036F9002822D013480088401C91
:102B70001149088080210920C006FEF762FD002867
:102B800001D1012000E000200446224680210920D6
:102B9000C006FEF76DFD084800880A2804DB002007
:102BA0000549088000F076FA0121024800F07BF820
:102BB00010BD000000200040A400002010B501213D
:102BC000134800F006F9012803D10121104800F054
:102BD00067F802210E4800F0FCF8002803D002211B
:102BE0000B4800F05DF80421094800F0F2F80028D5
:102BF00003D00421064800F053F80821044800F0EF
:102C0000E8F8002803D00821014800F049F810BD79
:102C1000002C014010B50121880700F0DAF80028E7
:102C200003D00121880700F03BF810BD1FB501213A
:102C30000220FFF7CBFB1021684601700121817053
:102C400004214170FFF72EFB0D4800F03DF801A86C
:102C500000F012F9002168468181C1807D20C0000A
:102C600002902F21684681800021817301A90448C8
:102C700000F0C4F80121024800F018F81FBD000060
:102C80000004004010B50121044800F0A2F800281B
:102C900003D00121014800F006F810BD00040040F7
:102CA000CA4302827047CA4302827047002904D097
:102CB000028801231A43028003E00288014B1A4074
:102CC00002807047FEFF000010B50446374884427A
:102CD00008D10121C014FFF7A9FB0021E014FFF780
:102CE000A5FB62E001208007844208D1012108464B
:102CF000FFF77CFB00210120FFF778FB55E02C4813
:102D0000844208D101210220FFF770FB002102203C
:102D1000FFF76CFB49E02748844208D101211020CD
:102D2000FFF764FB00211020FFF760FB3DE0224825
:102D3000844208D101212020FFF758FB00212020E8
:102D4000FFF754FB31E01D48844208D10121801572
:102D5000FFF74CFB0021A015FFF748FB25E01848C2
:102D6000844209D101210804FFF760FB0021012002
:102D70000004FFF75BFB18E01248844209D10121EF
:102D80004804FFF753FB002101204004FFF74EFBEE
:102D90000BE00D48844208D101218804FFF746FB6F
:102DA000002101208004FFF741FB10BD002C0140F1
:102DB00000040040001000400014004000200040CB
:102DC0000040014000440140004801400146486A7B
:102DD000704730B50246002000230024158A0D40BC
:102DE0002B4695890D402C46002B03D0002C01D09A
:102DF000012000E0002030BD4162704700220288BF
:102E0000154B984206D001239B07984202D0134BE2
:102E1000984203D1124B1A404B881A43114B9842E7
:102E200003D0114B1A400B891A4302804B68C362CE
:102E30000B880385084B984208D00C4B984205D06C
:102E40000B4B984202D00B4B984201D18B7A0386F0
:102E50000123838270470000002C014000040040E1
:102E60008FFF000000100040FFFC00000040014008
:102E700000440140004801400021C9434160002155
:102E800001800181418081727047000070B5044665
:102E90000E46254620680C4908600BE0241D601B87
:102EA00001218902884202D92846FEF76FFC20687A
:102EB0000549086004480068401C0028EED13146EE
:102EC000204600F003F870BD9401002070B5044660
:102ED0000D46FEF72DFA3520FEF7A0F929462046CB
:102EE000FEF7F0F93520FEF799F9FEF7E1F970BD2C
:102EF00002E008C8121F08C1002AFAD170477047C3
:102F0000002001E001C1121F002AFBD17047000020
:102F100000B587B001214802FFF778FA1848FDF79D
:102F2000CDFA01A8FDF739FB00206946087205902B
:102F30000190069001A91248FDF706FB01211048F7
:102F4000FDF718FB012211460D48FDF78AFA0C48DF
:102F5000FDF7C4FA01210A48FDF78FFA00BF0949BD
:102F60000748FDF7D9FA0028F9D001210448FDF7F8
:102F700090FA02210248FDF798FA07B000BD000060
:102F8000002401400100000100B58DB00121084678
:102F9000FFF70CFA092168460171012181710021B6
:102FA000417101A8FFF77EF91748FDF7D7FF02A886
:102FB000FEF7CAF801200590002004900C901348F9
:102FC00003900120800209908020079020200A9021
:102FD0000F480290801508900020069001204003C1
:102FE0000B9002A90848FEF78FF80122022106483B
:102FF000FEF780F80220FDF793FF01210248FDF75C
:103000009FFF0DB000BD000008000240A801002095
:10301000402401401CB501214804FFF7C7F9684668
:10302000FEF71AFB01200090032168460171002180
:10303000817141710121C17169460920C006FEF705
:1030400080FA1CBD10B5FFF70BFAFEF738FAFDF752
:10305000ACFA0D48FFF722FA0C48FEF7D5F8FEF758
:1030600059FBFEF78BF90A490870084600780028DA
:1030700004D0FFF751F9FEF775F802E000E000BF59
:10308000FDE7002010BD0000B407002088130000F9
:103090001100002010B510210920C006FEF7C7FA64
:1030A000012805D118480088401C174908802AE0EB
:1030B00015480088642807DD134800781349087014
:1030C0000020114908801EE00F48008864280BDAB0
:1030D0000D480088322807DD0B4800780B4908703E
:1030E0000020094908800EE00748008832280ADAE3
:1030F00005480088022806DD034800780349087067
:1031000000200149088010BDA2000020A00000207E
:103110003031000800000020A80100002804000849
:1031200060310008A8010020A80A0000002F000854
:1031300001153AACF7FF1F43191019180275203317
:10314000F401032FF401025A01D3E8033232026979
:10315000121D01020304010203040607080900000E
:04000005080000B13E
:00000001FF
