:020000040800F2
:10000000700C0020C500000879250008D5170008ED
:1000100000000000000000000000000000000000E0
:10002000000000000000000000000000752C000827
:100030000000000000000000ED250008752D0008FC
:10004000F5000008F5000008F5000008F5000008BC
:10005000F5000008F5000008F5000008F5000008AC
:1000600000000000990F0008F5000008F5000008E6
:10007000F5000008A92E0008F5000008012F00086F
:10008000712F00080000000000000000492E000849
:1000900000000000F5000008F5000008F500000869
:1000A00000000000F500000800000000F500000856
:1000B0000348854600F0A6F90048004731330008A0
:1000C000700C00200C4880F308880C480168090E69
:1000D0000B4A914205D10B480B4901600B480C4972
:1000E00001600C4880470C480047FEE7FEE7FEE74A
:1000F000FEE7FEE7FEE70000700C002004000000B1
:100100001F00000018100240010000000000014024
:1001100000000000792D0008B100000830B50B4642
:10012000014600202022012409E00D46D5409D42D1
:1001300005D31D469540491B254695404019154657
:10014000521E002DF1DC30BDF8B502464A40D40FF6
:1001500042004B0052085B089A4202D2024608460F
:1001600011464A0023D0C30D4A00DDB2120EAD1A6B
:10017000202D35DA49020126490AF6058A19002C94
:1001800000D0524220214F1B1146B9402A4110187D
:10019000C20D9A4221D0002C17D0012D08DCDA05BF
:1001A000801AD20F8019D207DBB200F0F1F8F8BD47
:1001B000DA05801A012340001B06C01880185A4235
:1001C0008018CA0F1043490007E04908C2071143CD
:1001D000DA05801A80194008801800F0D1F8F8BDBF
:1001E00061000122511A001BF7E70122D20751409A
:1001F000AAE70122D2075040A6E7024670B54A405E
:10020000D30FDB0740002DD04A002AD0010E140E78
:10021000000212020919400A520A8418E501044634
:100220005443000A120A2E045043A4194219200C08
:10023000C543AA18120C0125AD03521C5219120411
:100240007F39240400D0521C104301D44000491EC1
:10025000C2B20C06C0092018401C4008802A02D0F7
:1002600003E0002070BD40084000002900DA0020B3
:10027000184370BD70B502464A40D50F40004A0091
:10028000ED0740085208002814D0002A12D0C40DEF
:10029000D30D41020120C0055202490A520AE41A54
:1002A000091812187D34914201D3641C00E0490002
:1002B000002C01DA002070BD0023914201D3891A7D
:1002C0000343400849000028F7D100290AD0914291
:1002D00002D10121C90705E0914201D2012101E0CB
:1002E0000121C943E005C018401900F049F870BD6C
:1002F00010B500229623114600F04AF810BDC20F37
:10030000410040020123400ADB05D207090EC01854
:100310007F2901DA00207047962903DC9623591AB9
:10032000C84001E096398840002AF4D04042704726
:10033000410040020122400AD205090E80187F299F
:1003400001DA00207047962903DC9622511AC84032
:1003500070479639884070470122D207002800DB99
:10036000101A002900DB511A814270470122D2077E
:10037000002800DB101A002900DB511A8842704760
:10038000002904DA401C490001D1400840007047B0
:1003900070B40024050C05D11024000402D10029FA
:1003A00021D01124050E01D100020834050F01D11E
:1003B0000001241D850F01D18000A41C002801DB51
:1003C0004000641C002908D020252E1B0D46F54056
:1003D000A14000D001212943084301061B1B000A4C
:1003E000DB1D02D5002070BC7047DB051818801893
:1003F0000029F8DA401C4900F5D170BC40084000E3
:1004000070470000064C0125064E05E0E36807CC66
:100410002B430C3C98471034B442F7D3FFF74CFE03
:10042000FC3300081C34000830B58C180278401CDE
:1004300013071B0F01D10378401C120906D1027863
:10044000401C03E005780D70401C491C5B1EF9D16F
:1004500001E00B70491C521EFBD1A142E6D30020E3
:1004600030BD10B50B460021846A1C43846200BF76
:100470000C4614432146416110BD002904D0826816
:1004800001231A43826003E0826802231A438260D8
:100490007047002904D0C26801231A43C26003E0F8
:1004A000C26852085200C2607047C26802239A4371
:1004B000C260C2680A43C2607047000010B50446BB
:1004C0000548844207D10121401502F01BF90021A3
:1004D000601502F017F910BD0024014030B5014647
:1004E0000020002200238C680125ED072C438C603E
:1004F00000BF8C68E30FDB07521C0F242403A242C9
:1005000001D0002BF5D18C68E40FE407002C01D159
:10051000086C00E0002030BD30B50246002000230A
:10052000012424060C40002C05D0946801252D06DA
:10053000AC43234600E013681C460C40002C01D05D
:10054000012000E0002030BD10B50022C268084B39
:100550001A400C7964030B6823438C682343CC68EE
:1005600023430C6923434C6923431A43C26010BDE3
:1005700003D2FFFF002905D0C26801231B031A43E1
:10058000C26004E0C26801231B039A43C260704743
:10059000816804221143816070470021016001716C
:1005A0008160C16001614161704710B502F0A8FE31
:1005B00002F024FE02F05EFE02F01CFC02F0ACFC35
:1005C00001F069F800F0C4FF10BD000070B500F044
:1005D00067FCFD4801780078401CFB4A1070480019
:1005E000FA49085EFA4909788900FA4A5050F648F3
:1005F00001780078401CF44A10704800F349085E06
:10060000F34909788900F44A5050EF48017800789E
:10061000401CED4A10704800EC49085EEC4909782E
:100620008900EE4A5050EA480078401CE8490870BA
:1006300008460078042806DA00BFE94802F03CFDCD
:100640005F28FAD33AE2E24800780328FADD002076
:10065000E4490870DE490870DB490870DD49096823
:10066000DC4A52688918DB4A92688918D94AD268EC
:1006700089188808FFF73CFEDB490860D6490968FD
:10068000D54A52688918D44A92688918D24AD268E1
:1006900089188808FFF72CFED4490860CF490968FB
:1006A000CE4A52688918CD4A92688918CB4AD268D6
:1006B00089188808FFF71CFECD490860CB480168FF
:1006C000C9480068FFF740FD0446C9480168204654
:1006D000FFF73AFDC7490860C34801688920C00593
:1006E000FFF78BFD0546C34801682846FFF7C2FDAA
:1006F0000446FFF704FEC0490860BC480168892031
:10070000C005FFF77AFD0546BA4801682846FFF79D
:10071000B1FD0446FFF7F3FDB8490860B44801682D
:100720008920C005FFF769FD0546B24801682846E3
:10073000FFF7A0FD0446FFF7E2FDB1490860B149AB
:100740000868FFF7D5FD0446AA4801682046FFF770
:1007500003FE0FD2AB490868FFF7CAFD0546A5485E
:1007600001682846FFF745FD0446FFF7C8FDA64986
:1007700008600EE0A3490868FFF7BAFD05469D48EA
:1007800001682846FFF731FD0446FFF7B8FD9E4992
:1007900008609E48006898490968884207D29B48CB
:1007A000006895490968081A9949086006E0974861
:1007B000006891490968401A9549086095480068A1
:1007C0008E490968884207D2924800688B490968B7
:1007D000081A9149086006E08E4800688749096850
:1007E000401A8D4908608D4800688549096888422B
:1007F00007D28A48006882490968081A884908604F
:1008000006E0864800687E490968401A8449086005
:100810007F48006880490968401881490968401884
:100820008049086078480068096840187D21C9003F
:10083000081A7D49086008460068002802DC00208C
:10084000086008E0784800687D21C900884202DB22
:100850000846754908607448006874490978890039
:10086000734A505071480078800011460858714909
:1008700000228A5E904207DD6C48007880006C4957
:10088000085A00B26B4908806848007880006849BF
:100890000858694900228A5E904207DA6348007866
:1008A00080006349085A00B2634908805F480078B5
:1008B000401C5E4908700846007807280FDD0020BC
:1008C00008705C49085E5C4900228A5E801A5B49B8
:1008D0000860002057490880594857490880524805
:1008E0000068584909788900574A5050554800789F
:1008F000800011460858554900228A5E904207DD63
:100900005048007880005049085A00B24F4908808A
:100910004C48007880004C4908584D4900228A5EB6
:10092000904207DA4748007880004749085A00B2E9
:100930004749088043480078401C424908700846EF
:10094000007803280FDD002008704049085E404908
:1009500000228A5E801A3F49086000203B490880D7
:1009600037483B49088035490868C10F09184910C4
:10097000394A12688918394A1160374800682F4986
:100980000968401A5A3836490860084600680A283B
:1009900001DA0A2008602448006830490968884262
:1009A00066DB00202F4908702F480078401C2E4934
:1009B000087008460078042870DB002008700120C9
:1009C0002A4908706AE053E040010020E80700204F
:1009D000410100200C0800201C0800202C080020E9
:1009E000000400400E000020E0000020E400002091
:1009F000E8000020EC000020040100200801002095
:100A00000C010020C0000020FC000020A8000020F5
:100A1000F0000020B0000020F4000020B80000200A
:100A2000F800002000010020100100202401002017
:100A30003C08002020010020220100202801002085
:100A4000FF0F0000300100205C0800202C01002076
:100A50002E01002034010020940000201C01002001
:100A6000180100204301002042010020480000201E
:100A7000134800681349096888420FDC00201249B6
:100A8000087012480078401C104908700846007829
:100A9000042803DB002008700D49087000F0BEFE3A
:100AA00002F05AF800F08EFE0A49087002F068FC65
:100AB00000BF094802F000FB5F28FAD370BD0000B8
:100AC00010010020180100204201002043010020F5
:100AD00048000020C800002000040040F8B50024B1
:100AE000002524E000F0DCF92846691CCDB2400066
:100AF000D149085EA100D14A50502846691CCDB2A8
:100B00004000CD49085EA100CD4A50502846691CDE
:100B1000CDB24000C849085EA100CA4A5050601CCE
:100B2000C4B200BFC84802F0C7FA5F28FAD3032C4A
:100B3000D8DB00F0B5F92846691CCDB24000BE49AB
:100B4000085EA100BD4A50502846691CCDB2400045
:100B5000B949085EA100BA4A50502846691CCDB276
:100B60004000B549085EA100B64A5050601CC4B2AE
:100B700000BFB54802F0A0FA5F28FAD30020B349BD
:100B8000087000240025AD490968AC4A52688918EC
:100B9000AA4A92688918A94AD26889188808FFF772
:100BA000A7FBAB4909788900AA4A5050A4490968B3
:100BB000A34A52688918A24A92688918A04AD26842
:100BC00089188808FFF794FBA14909788900A24A8F
:100BD00050509C4909689B4A52688918994A926802
:100BE0008918984AD26889188808FFF781FB9849C4
:100BF00009788900994A5050954A12789200964B8C
:100C00009958934A12789200924B9858FFF79CFAA1
:100C100007468F4800788000904A11583846FFF701
:100C200093FA0646FFF784FB8949097889008C4AC4
:100C300050508749097889005058FFF759FB0746FB
:100C4000834800788000834A11588920C005FFF747
:100C5000D4FA39460090FFF70DFB0646FFF768FB14
:100C60007B49097889007F4A505079490978890081
:100C70007B4A5058FFF73CFB0746754800788000D8
:100C8000754A11588920C005FFF7B7FA3946009018
:100C9000FFF7F0FA0646FFF74BFB6D49097889002C
:100CA000714A50506A49097889006D4A5058FFF7D7
:100CB0001FFB0746664800788000684A1158892063
:100CC000C005FFF79AFA39460090FFF7D3FA0646B7
:100CD000FFF72EFB5E4909788900644A50505C4852
:100CE0000078401C5A49087008460078022874DBD6
:100CF000002008705B4840685A490968884207D953
:100D00005848406857490968401A5949086006E040
:100D10005448006853494968401A55490860524888
:100D2000406851490968884207D94F4840684E4990
:100D30000968401A4F49086006E04B4800684A4974
:100D40004968401A4B490860484840684749096863
:100D5000884207D94548406844490968401A4649CD
:100D6000086006E04148006840494968401A424925
:100D700008603B4840683A490968884207D93848C2
:100D8000406837490968401A3C49086006E0344821
:100D9000006833494968401A384908603448006897
:100DA00034490968401834490968401881004018DE
:100DB00080083349086031480068096840184008D5
:100DC0007D21C900081A28382E49086008460068A5
:100DD000C82803DCC820086009E021E02948006831
:100DE0007D21C900884202DB0846264908601C486C
:100DF0000168254802F0C0F91A480168234802F04A
:100E0000BBF919480168224802F0B6F91748016891
:100E1000204802F0B1F91B4801681F4802F0ACF904
:100E200000201E49087002F0ABFA00BF064802F02D
:100E300043F95F28FAD3F8BDE80700200C0800202A
:100E40001C0800202C080020000400400E00002098
:100E5000A60000204C000020540000205C00002070
:100E6000C0000020A8000020B0000020B800002032
:100E7000CC000020D0000020D4000020D8000020AA
:100E8000DC000020940000200060000800640008DE
:100E900000680008006C0008005C0008A00000204A
:100EA00010B50021394802F01DF901220421092062
:100EB000C00600F03FFC012211020920C00600F02C
:100EC00039FC00BF314802F0F7F80028FAD00022C0
:100ED000FF2101310920C00600F02CFC00202C4924
:100EE00008702C48FFF754FB00BF29480078002801
:100EF000FBD0002026490870012251020920C006BB
:100F000000F018FC00BF214802F0D6F80228FAD3FE
:100F10000022012149020920C00600F00BFC00203C
:100F20001B4908701B48FFF733FB00BF18480078C7
:100F30000028FBD0002016490870012291020920E8
:100F4000C00600F0F7FB00BF104802F0B5F8032818
:100F5000FAD30022012189020920C00600F0EAFB31
:100F600000200B4908700B48FFF712FB00BF084830
:100F700000780028FBD000200549087000220421D9
:100F80000920C00600F0D6FB10BD000000040040A0
:100F9000100000200024014010B5022000F0F2F8FB
:100FA000002813D00A4800880A49081A01B20A48E2
:100FB00002780078401C084B18705000074A115204
:100FC000012007490870022000F00CF810BD000055
:100FD000B4010020FF0F00000E000020E8070020F1
:100FE00010000020012109070140002902D0034917
:100FF000486001E002494860704700000004024078
:1010000000000240002904D0026801231A43026054
:1010100003E00268014B1A4002607047FEFF0000C7
:101020000168554A11400160002101604160816002
:10103000C1605249884208D15049083949680F2295
:1010400011434E4A083A516094E04C4914318842A9
:1010500008D14A4908394968F0221143474A083AF9
:10106000516087E045492831884209D14349083910
:1010700049680F2212021143404A083A516079E050
:101080003E493C31884209D13C49083949680F2220
:1010900012031143394A083A51606BE03749503125
:1010A000884209D13549083949680F221204114391
:1010B000324A083A51605DE030496431884209D1D2
:1010C0002E49083949680F22120511432B4A083A64
:1010D00051604FE029497831884209D127490839C0
:1010E00049680F2212061143244A083A516041E030
:1010F0002349884208D12249083949680F221143FF
:101100001F4A083A516035E01D491431884208D120
:101110001B4908394968F0221143194A083A5160BD
:1011200028E017492831884209D11549083949680A
:101130000F2212021143124A083A51601AE0104974
:101140003C31884209D10E49083949680F221203FF
:1011500011430B4A083A51600CE00949503188426A
:1011600008D10749083949680F2212041143044A7B
:10117000083A516070470000FEFF0000080002407E
:101180000804024001460020002201231B070B40F7
:10119000002B02D0064B1A6801E0064B1A68134672
:1011A0000B40002B01D0012000E000207047000020
:1011B0000004024000000240002A03D003680B43F1
:1011C000036002E003688B430360704710B50022A0
:1011D00002680D4B1A400C6A8B6823430C69234349
:1011E0004C6923438C692343CC6923434C6A2343D2
:1011F0008C6A23431A430260CB6843600B688360A8
:101200004B68C36010BD00000F80FFFF002101602C
:1012100041608160C160016141618161C1610162C0
:10122000416281627047000000F08AFA002400E009
:10123000641C0A2CFCDB3DE01F48007801280DDA15
:101240001E480078012802D1FFF7C0F912E01B48C0
:10125000007800280ED100F00BFB0BE0FFF720FE1A
:1012600000F0DCFA02F08CF800BF154801F024FF12
:101270005F28FAD313480078002816DD01210903FE
:101280000920C00600F035FA05462A460121090367
:101290000920C00600F04EFA08480078002802D065
:1012A000FFF71CFC01E000F0EBFA07480088401C47
:1012B00005490880C0E70000A6000020C800002003
:1012C00000040040A00000203801002004E0411E7E
:1012D00008B2002800DC00E0F9E700BF704700001A
:1012E0000149C860704700000020024030B5044644
:1012F00004250B20000400F08FF80546042D17D1BB
:101300000C480069022108430A4908610846446103
:10131000006940210843074908610B20000400F0E0
:101320007BF80546034800690221884301490861AA
:10133000284630BD0020024004200D49C968C90775
:10134000C90F002901D0012010E00949C968102205
:101350001140002901D0022008E00549C968042293
:101360001140002901D0032000E004207047000054
:1013700000200240034800698021084301490861B8
:10138000704700000020024078B506460C46042550
:10139000002000900B20000400F03EF80546042DCC
:1013A00024D11348006901210843114908613480A0
:1013B0000B20000400F030F80546042D10D1B01CBD
:1013C0000090200C009908800B20000400F024F805
:1013D000054607480069400840000549086105E0E6
:1013E000034800694008400001490861284678BD6B
:1013F000002002400548006980210840002804D0F0
:101400000348024948600348486070470020024092
:1014100023016745AB89EFCD10B503460424FFF7E0
:101420008BFF044603E0FFF787FF04465B1E012C99
:1014300001D1002BF7D1002B00D10524204610BD8F
:1014400010B51149114800F029F80F4800780E49ED
:101450004978090240180C498978090440180A495A
:10146000C978090640180A4908600A4800680A490C
:1014700008600846006806490968884201D10124CD
:1014800000E00024204610BD2000002000080020BD
:101490002400002000700008280000202A4A12685A
:1014A00012790270284A1268127A4270264A12682B
:1014B00052788270244A1268D278C270224A126826
:1014C00012780271204A1268527942711E4A1268DB
:1014D000927A82711C4A1268D279C2711A4A1268D1
:1014E000527A0272184A126892784272164A126848
:1014F000D27A8272144A12689279C272134A1268BE
:10150000127803785A400A70104A12685278837928
:101510005A40C3795A40037A5A40437A5A40837AF0
:101520005A40C37A5A404A70084A1268927803793E
:101530005A408A70054A1268D27883785A404378B4
:101540005A40CA7070470000140000201C000020A0
:101550001CB501212320400401F094F8684600F0F6
:10156000DDF8802000900121684601710021817121
:1015700041710221C17169460920C00600F043F89B
:101580001CBD1CB501212320400401F07BF86846F6
:1015900000F0C4F8012000030090012168460171A9
:1015A000002181714171C17169460920C00600F0B6
:1015B0002AF80120C00200900021684601714171A3
:1015C0000221C17169460920C00600F01CF80820FC
:1015D0000090012168460171002141710221C17111
:1015E00069460920C00600F00EF810200090002186
:1015F0006846017141710221C17169460920C00626
:1016000000F001F81CBDF0B50A46002100230024BB
:1016100000BF3DE001258D402B4615681D402C463E
:101620009C4234D11579012D02D01579022D16D1A5
:1016300085684F000326BE40B543856055794E004E
:10164000B540866835438560858801268E40B54360
:101650008580858896798E40B6B235438580056849
:101660004F000326BE40B543056015794E00B540D6
:10167000066835430560C5684F000326BE40B54384
:10168000C560D5794E00B540C6683543C560491C74
:101690001029BFD3F0BD1CB50121480400F0F2FFB2
:1016A000FF20013000900121684601710021817105
:1016B0000121C1710321417169460920C006FFF76C
:1016C000A2FF01204002009069460920C006FFF7F2
:1016D0009AFF01208002009069460920C006FFF7AA
:1016E00092FF0420009069460920C006FFF78BFF97
:1016F0001CBD02460020138A0B40002B01D00120A4
:1017000000E00020704702460020938A0B40002B27
:1017100001D0012000E00020704700000449016072
:10172000002101710121417100218171C171704756
:10173000FFFF0000002A01D0816100E001857047B1
:1017400010B5124801F09AF911490860114801F0EA
:1017500095F911490870114801F090F91049086095
:10176000104801F08BF910490860104801F086F923
:101770000F4908600F4801F081F90F4908600F48D0
:1017800001F07CF90E49086010BD0000005400080B
:10179000980000200058000880000020005C00082D
:1017A0009400002000600008C000002000640008D1
:1017B000A800002000680008B0000020006C0008AD
:1017C000B800002010B50121C9020920C006FFF7AA
:1017D00090FF10BD00BFFEE710B55D2001F0EEF8F0
:1017E000002801D000F09EFF074800F02BF80420ED
:1017F00000F01CF87D20000100F01EF800F00EF84B
:1018000000F004F810BD00005555000001480249E1
:1018100008607047CCCC000000300040014802490D
:1018200008607047AAAA00000030004001494860E3
:101830007047000000300040014988607047000098
:10184000003000400149086070470000003000404F
:1018500010B50446FFF7CEFD3520FFF741FD2046C9
:10186000FFF744FD3520FFF73BFDFFF783FD10BD7B
:1018700010B50248007800F073F910BD8000002018
:1018800070B50024002524E0FFF70AFB2846691CF8
:10189000CDB240009F49085EA1009F4A50502846A3
:1018A000691CCDB240009B49085EA1009B4A505084
:1018B0002846691CCDB240009649085EA100984AAE
:1018C0005050601CC4B200BF964801F0F5FB5F2881
:1018D000FAD3032CD8DBFFF7E3FA2846691CCDB214
:1018E00040008C49085EA1008B4A50502846691C74
:1018F000CDB240008749085EA100884A5050284672
:10190000691CCDB240008349085EA100844A505052
:10191000601CC4B2002084490870002400257E4960
:1019200009687D4A526889187B4A926889187A4A00
:10193000D26889188808FEF7DBFC7C4909788900A1
:101940007B4A505075490968744A52688918734A2D
:1019500092688918714AD26889188808FEF7C8FC0D
:10196000724909788900734A50506D4909686C4A78
:10197000526889186A4A92688918694AD26889182F
:101980008808FEF7B5FC6949097889006A4A505011
:1019900066480078401C65490870084600780228AF
:1019A00075DB00200870624A51681068FEF7DEFCA3
:1019B00007D85F4A51681068FEF717FC5F49086056
:1019C00006E05B4A11685068FEF70FFC5B4908604F
:1019D000584A51681068FEF7C9FC07D8554A516843
:1019E0001068FEF702FC5649086006E0514A11688B
:1019F0005068FEF7FAFB524908604F4A5168106878
:101A0000FEF7B4FC07D84C4A51681068FEF7EDFBAE
:101A10004C49086006E0484A11685068FEF7E5FB4B
:101A2000484908604648016844480068FEF79EFC43
:101A300004D8424800684449086003E04048006810
:101A4000414908603F4801683F480068FEF784FC50
:101A500003D83C4800683C490860384801683A4867
:101A60000068FEF779FC13D131490868FEF747FC9E
:101A70003649086000203649087034480168354806
:101A800001F07AFB32480178334801F075FB34E00D
:101A90002B4801682C480068FEF75EFC13D12549ED
:101AA0000868FEF72CFC29490860012028490870C5
:101AB00026480168274801F05FFB25480178264841
:101AC00001F05AFB19E01F4801681F480068FEF743
:101AD00043FC12D118490868FEF711FC1B49086045
:101AE00002201B490870194801681A4801F044FB9C
:101AF00017480178184801F03FFB0020174908708B
:101B000001F03EFC00BF074801F0D6FA5F28FAD387
:101B100070BD0000E80700200C0800201C08002011
:101B20002C080020000400400E000020A600002029
:101B30004C000020540000205C00002064000020C5
:101B4000680000206C000020700000209800002039
:101B5000800000200054000800580008A000002069
:101B600070B50546002D7DD10021FE4801F0BAFA7E
:101B7000012204210920C006FFF7DCFD002201211B
:101B800049020920C006FFF7D5FD00220121890284
:101B90000920C006FFF7CEFD012211020920C00670
:101BA000FFF7C8FD00BFEF4801F086FA0028FAD021
:101BB0000022FF2101310920C006FFF7BBFD0020F4
:101BC000E9490870E948FEF7E3FC00BFE648007801
:101BD0000028FBD00020E449087000BFE14801F074
:101BE0006BFA1428FAD3002204210920C006FFF75B
:101BF000A1FDDF4801780078401CDD4A10704800E4
:101C0000DC49085EDC4909788900DC4A5050DA4832
:101C10000078401CD849087008460078042806DA85
:101C200000BFD04801F048FA5F28FAD3D4E2D24886
:101C300000780328FADD0020D1490870CE490870E9
:101C4000CB490870CD480068CC4949684018CB4959
:101C500089684018C949C96840188008C94908609E
:101C6000084600E003E100680A2801DA0A2008605B
:101C7000C4480068C449884202DB0846C14908607C
:101C8000C0480068C14909788900C14A5050BF481E
:101C90000078800011460858BE4900228A5E9042B2
:101CA00007DDBA4800788000B949085A00B2B9493E
:101CB0000880B64800788000B5490858B649002227
:101CC0008A5E904207DAB14800788000B049085A2D
:101CD00000B2B1490880AD480078401CAB4908709B
:101CE0000846007807280FDD00200870A949085E23
:101CF000A94900228A5E801AA84908600020A549E7
:101D00000880A148A44908809E480068A449097831
:101D10008900A44A5050A248007880001146085813
:101D2000A14900228A5E904207DD9D48007880002C
:101D30009C49085A00B29C49088099480078800064
:101D400098490858994900228A5E904207DA9448D7
:101D5000007880009349085A00B29449088090485E
:101D60000078401C8E4908700846007803280FDD73
:101D7000002008708C49085E8C4900228A5E801A17
:101D80008B4908600020884908807F48874908807F
:101D900088490968CA00501AC117490F0918C910A3
:101DA0007E4A1268891A0C46323C002C00DA002464
:101DB000804A1268D300991ACA17520F5218D210CB
:101DC000704B1B689A421DDA7A4A1268D300D01809
:101DD000C217520F1218D2106A4B1B689A4211DDBB
:101DE00000207549087075480078401C73490870D8
:101DF00008460078042829DB00200870012070497B
:101E0000087023E05F490968A1420FDD694909684C
:101E1000CA008818C117490F0918C9105F4A12680B
:101E200089183231574A126891420FDC0020634909
:101E3000087061480078401C5F49087008460078C7
:101E4000042803DB002008705D490870FFF7E6FCFA
:101E500000F082FEFFF7B6FC5A49087001F090FAD4
:101E600000BF404801F028F95F28FAD368E3012D4C
:101E700076D100213B4801F035F9012204210920E7
:101E8000C006FFF757FC002229020920C006FFF711
:101E900051FC0022A9020920C006FFF74BFC0122D9
:101EA00051020920C006FFF745FC00BF2D4801F094
:101EB00003F90028FAD00022012149020920C006B6
:101EC000FFF738FC0020284908702848FEF760FB1F
:101ED00000BF254800780028FBD000202249087068
:101EE00000BF204801F0E8F81428FAD300220421AA
:101EF0000920C006FFF71EFC1D4801780078401C31
:101F00001B4A107048001B49085E1B49097889006C
:101F10001A4A505018480078401C17490870084663
:101F20000078042806DA00BF0E4801F0C5F85F28E3
:101F3000FAD305E310480078032897DD0020104904
:101F400008700D4908700A4908700C4800680B4970
:101F5000496840180949896840180849C96833E048
:101F60003BE100000004004010000020002401407C
:101F700044010020E8070020450100200C08002053
:101F80000E00002014010020FF0F0000240100209B
:101F90003C08002020010020220100202801002010
:101FA000300100205C0800202C0100202E010020C0
:101FB000340100209800002043010020420100204D
:101FC00048000020C800002040188008FE49086032
:101FD000084600680A2801DA0A200860FA48006802
:101FE000FA49884202DB0846F7490860F64800686B
:101FF000F74909788900F74A5050F5480078800081
:1020000011460858F44900228A5E904207DDF048E4
:1020100000788000EF49085A00B2EF490880EC4888
:1020200000788000EB490858EC4900228A5E904213
:1020300007DAE74800788000E649085A00B2E74925
:102040000880E3480078401CE149087008460078A1
:1020500007280FDD00200870DF49085EDF490022F5
:102060008A5E801ADE4908600020DB490880D74874
:10207000DA490880D4480068DA4909788900DA4AE0
:102080005050D8480078800011460858D74900229F
:102090008A5E904207DDD34800788000D249085A12
:1020A00000B2D2490880CF4800788000CE49085855
:1020B000CF4900228A5E904207DACA480078800041
:1020C000C949085A00B2CA490880C6480078401C6D
:1020D000C44908700846007803280FDD0020087006
:1020E000C249085EC24900228A5E801AC14908605E
:1020F0000020BE490880B548BD490880BE4909682E
:10210000CA00501AC117490F0918C910B44A1268F9
:10211000891A0C46323C002C00DA0024B64A1268B8
:10212000D300991ACA17520F5218D210A64B1B6827
:102130009A421DDAB04A1268D300D018C217520F63
:102140001218D210A04B1B689A4211DD0020AB4937
:102150000870AB480078401CA94908700846007810
:10216000042829DB002008700120A649087023E01C
:1021700095490968A1420FDD9F490968CA0088187E
:10218000C117490F0918C910954A126889183231C8
:102190008D4A126891420FDC0020994908709748D7
:1021A0000078401C9549087008460078042803DB35
:1021B0000020087093490870FFF730FB00F0CCFC5A
:1021C000FFF700FB9049087001F0DAF800BF8F4874
:1021D00000F072FF5F28FAD3B2E1022DFCD100219A
:1021E0008A4800F07FFF012204210920C006FFF782
:1021F000A1FA0022E9010920C006FFF79BFA00229C
:1022000029020920C006FFF795FA01229102092050
:10221000C006FFF78FFA00BF7C4800F04DFF002892
:10222000FAD00022012189020920C006FFF782FAB4
:102230000020774908707748FEF7AAF900BF744874
:1022400000780028FBD000207149087000BF6F485B
:1022500000F032FF1428FAD3002204210920C0061E
:10226000FFF768FA6C4801780078401C6A4A1070E1
:1022700048006A49085E6A4909788900694A5050ED
:1022800067480078401C66490870084600780428B2
:1022900006DA00BF5D4800F00FFF5F28FAD34FE178
:1022A0005F480078032897DD00205F4908705C498B
:1022B0000870594908705B4800685A4949684018D5
:1022C0005849896840185749C968401880083E49EC
:1022D0000860084600680A2801DA0A2008603A48BF
:1022E00000683A49884202DB0846374908603648A8
:1022F0000068374909788900364A505034480078D8
:10230000800011460858344900228A5E904207DD59
:102310002F48007880002F49085A00B22E490880C3
:102320002B48007880002B4908582C4900228A5EEF
:10233000904207DA2648007880002649085A00B201
:102340002649088022480078401C21490870084628
:10235000007807280FDD002008701F49085E1F491C
:1023600000228A5E801A1E49086000201A490880EF
:1023700016481A490880144800681A4909788900E3
:10238000194A5050174800788000114608581749DC
:1023900000228A5E904207DD1248007880001249D0
:1023A000085A00B2114908800E48007880000E4992
:1023B00008580F4900228A5E90423ADA09480078AC
:1023C00080000949085A31E014010020FF0F000085
:1023D000240100203C0800202001002022010020D0
:1023E00028010020300100205C0800202C01002082
:1023F0002E0100203401002098000020430100201D
:102400004201002048000020C800002000040040D5
:10241000100000200024014044010020E8070020B3
:10242000450100200C0800200E00002000B24549A4
:10243000088045480078401C4349087008460078E9
:1024400003280FDD002008704049085E3D49002246
:102450008A5E801A3E49086000203C4908803D4859
:10246000384908803C490968CA00501AC117490F09
:102470000918C910394A1268891A0C46323C002CD6
:1024800000DA0024344A1268D300991ACA17520F8E
:102490005218D210324B1B689A421DDA2E4A12682B
:1024A000D300D018C217520F1218D2102C4B1B6831
:1024B0009A4211DD00202B4908702B480078401CFF
:1024C0002949087008460078042829DB0020087094
:1024D00001202649087023E021490968A1420FDD47
:1024E0001D490968CA008818C117490F0918C91081
:1024F0001A4A126889183231194A126891420FDC5F
:1025000000201949087017480078401C15490870C8
:1025100008460078042803DB00200870134908707F
:10252000FFF77CF900F018FBFFF74CF91049087031
:1025300000F026FF00BF0F4800F0BEFD5F28FAD371
:1025400070BD00002E010020300100202C01002071
:1025500034010020FF0F0000980000202801002017
:102560001401002043010020420100204800002007
:10257000C80000200004004070470000002182785D
:10258000002A27D0184A03231B02D21803789B1075
:102590009B00D15802789207D30EFF229A400B4637
:1025A0009343194642789207120E03789B07DB0E7D
:1025B0009A4011430C4A03231B02D21803789B1044
:1025C0009B00D1500278D306DB0E01229A40064BC5
:1025D0001A6007E00278D306DB0E01229A40024B14
:1025E00080331A607047000000E100E0704700008F
:1025F00010B5134800F042FA124908600846006816
:102600001149884203DC0F480068002804DA0020E2
:102610000C49086000F04AFA0A480068401C094961
:10262000086008460168064800F0A6FD3220FEF763
:102630004DFE04480068012801DC00F037FA10BDA7
:102640000050000830000020FFFF00000C494968DE
:102650000122920391430A4A51601146496882B2AD
:102660001143074A51601146096B92159143044A80
:1026700011631146096B020C1143014A1163704743
:1026800000100240002905D0054A52690243044B5C
:102690005A6104E0024A52698243014B5A61704711
:1026A00000100240002905D0054AD2690243044BBC
:1026B000DA6104E0024AD2698243014BDA61704771
:1026C00000100240002905D0054A12690243044B5C
:1026D0001A6104E0024A12698243014B1A61704791
:1026E00000100240002905D0054A92690243044BBC
:1026F0009A6104E0024A92698243014B9A617047F1
:1027000000100240002905D0054AD2680243044B5C
:10271000DA6004E0024AD2688243014BDA60704713
:10272000001002400348406A01210906084301499C
:10273000486270470010024010B50521C90401200D
:10274000C00300F07BF9012000F064F90848FFF7AE
:102750007DFF00BF192000F031F90028FAD00220D7
:1027600000F07EF900BF00F04DF90828FBD110BD44
:1027700000400001FEB5044600250026002002901E
:10278000019000900027864840680C2108400546CB
:10279000002D06D0042D07D0082D08D00C2D2CD1EB
:1027A00028E0804820602BE07E48206028E07C48BC
:1027B00040680F2189040840064679484068032193
:1027C000C90308400290B00C861C0298002803D16F
:1027D0007548374647430BE07148C06A0007000F51
:1027E000401C01906F480199FDF798FC7043074623
:1027F000276005E06D48206002E06A48206000BF65
:1028000000BF67484068F021084005462D09684828
:10281000405D009020680099C84060606048406852
:1028200007210902084005462D0A6148405D0090D5
:1028300061680098C140A1605948006BFF210131D7
:102840000840884202D05B48E0600DE05448406890
:10285000012189030840884203D0A0684008E06055
:1028600002E0A0688008E0604D48006B402108400D
:10287000402802D05048206102E00120C0032061BE
:102880004748006B10210840102802D0454860617D
:1028900001E0206860614248006B8007800F0028DB
:1028A00002D1A068A06119E03D48006B8007800F4D
:1028B000012802D12068A06110E03948006B800730
:1028C000800F022802D18003A06107E03448006B2A
:1028D0008007800F032801D13248A0613048006B87
:1028E000032109040840002802D1A068E06120E02B
:1028F0002B48006B03210904084001210904884288
:1029000002D12068E06114E02548006B032109042E
:10291000084001214904884202D18010E06108E0AA
:102920001F48006B032109040840884201D11D485B
:10293000E0611B48006B032189040840002802D194
:10294000A068206220E01648006B0321890408403B
:1029500001218904884202D12068206214E01048D5
:10296000006B0321890408400121C904884202D177
:102970000011206208E00A48006B03218904084026
:10298000884201D1074820620548006B8021084039
:10299000802802D00548606200E06762FEBD00004A
:1029A0000010024000127A0000093D00006CDC02B9
:1029B000A4010020809FD5001280000010B50246BF
:1029C0000021002300205111002902D10C4C236862
:1029D0000BE0012902D10A4C236A06E0022902D148
:1029E000074C636A01E0064C636BD106C90E0124F3
:1029F0008C401C40002C01D0012000E0002010BDC4
:102A000000100240024840680C2108407047000056
:102A100000100240002807D0074909680122120669
:102A20001143054A116006E00349096801221206B4
:102A30009143014A1160704700100240074A5268F2
:102A40007B23DB039A43054B5A601A4652680346C0
:102A50000B431A43014B5A607047000000100240BC
:102A600001460020044A50688008800002460A435C
:102A70001046014A506070470010024010B50146F0
:102A80000B460A460868084C206004E00A46091D07
:102A90000868054C206004480068401C0028F5D1F7
:102AA0001068014C206010BDA001002010B5FF206F
:102AB000F5301B49086000201A490870FF20F530E6
:102AC0001949086000201949086019490860194926
:102AD00008601949086012480168184800F04CFB6A
:102AE00010480178164800F047FB0F480168154868
:102AF00000F042FB0D480168134800F03DFB0C4814
:102B00000168124800F038FB0A480168104800F0DC
:102B100033FB094801680F4800F02EFB10BD000090
:102B2000980000208000002094000020C0000020B9
:102B3000A8000020B0000020B800002000540008C9
:102B400000580008005C00080060000800640008ED
:102B500000680008006C000810B53E4800780128A5
:102B60003BD13D480068502872DC3C493C48006835
:102B7000FDF7FCFB0AD83B48007800F07CF8012206
:102B800008210920C006FEF7D5FD61E0334934482D
:102B90000068FDF7E1FB5BD2334800883349884287
:102BA00013DB00203049088008210920C006FEF709
:102BB000AAFD002801D1012000E0002004462246A1
:102BC00008210920C006FEF7B5FD002201210903F6
:102BD0000920C006FEF7AEFD3AE01E480078002846
:102BE00036D11D480068502832DC214800688C2806
:102BF0000ADD1C48007800F03EF801220821092077
:102C0000C006FEF797FD23E0194800688C281FDCFA
:102C1000154800881549884213DB002012490880B6
:102C200008210920C006FEF76EFD002801D1012011
:102C300000E000200446224608210920C006FEF7D5
:102C400079FD0022012109030920C006FEF772FD6B
:102C500010BD0000C8000020340100200000FA432D
:102C6000EC00002048000020380100200410000083
:102C700014010020704710B50446012C06D1012232
:102C800001030920C006FEF755FD06E000220121E0
:102C900009030920C006FEF74DFD10BD0CB500204C
:102CA00001900090314800680121090408432F4930
:102CB000086000BF2D4800680121490408400090C9
:102CC0000198401C01900098002804D105210903B7
:102CD00001988842EED12548006801214904084046
:102CE000002802D00120009001E000200090009810
:102CF000012839D111201E4908601C4840681B4931
:102D00004860084640684860084640687F21C9031B
:102D10008843164948600846406811210904084361
:102D200012494860084600680121090608430F4916
:102D3000086000BF0D4800680121490608400028CE
:102D4000F8D00A4840688008800008494860084672
:102D50004068022108430549486000BF03484068B5
:102D60000C2108400828F9D10CBD000000100240D9
:102D7000002002407047000010B51B480068012188
:102D80000843194908600846406818490840164930
:102D9000486008460068164908401349086008461C
:102DA00000680121890488430F490860084640688B
:102DB0003F21090488430C4948600846C06A00095D
:102DC0000001C8620846006BFF2154318843064960
:102DD00008630846406B4008400048630020886054
:102DE000FFF75CFF10BD0000001002400CB8FF08A8
:102DF000FFFFF6FE1FB501210802FFF753FC114843
:102E000000F0D8F8132168460170012181704170EB
:102E1000FFF7B4FB01A800F0A5F900216846818105
:102E2000C1807D20C00002902F2168468180002152
:102E3000817301A9034800F057F90121014800F00E
:102E4000ABF81FBD0020004010B50121144800F070
:102E500036F9002822D013480088401C1149088008
:102E600080210920C006FEF74EFC002801D1012078
:102E700000E000200446224680210920C006FEF71B
:102E800059FC084800880A2804DB0020054908800E
:102E900000F076FA0121024800F07BF810BD000036
:102EA00000200040A400002010B50121134800F0CC
:102EB00006F9012803D10121104800F067F802212A
:102EC0000E4800F0FCF8002803D002210B4800F067
:102ED0005DF80421094800F0F2F8002803D004212D
:102EE000064800F053F80821044800F0E8F80028EC
:102EF00003D00821014800F049F810BD002C014022
:102F000010B50121880700F0DAF8002803D001216C
:102F1000880700F03BF810BD1FB501210220FFF724
:102F2000C1FB1021684601700121817004214170AC
:102F3000FFF724FB0D4800F03DF801A800F012F95E
:102F4000002168468181C1807D20C00002902F2130
:102F5000684681800021817301A9044800F0C4F80B
:102F60000121024800F018F81FBD000000040040D5
:102F700010B50121044800F0A2F8002803D0012177
:102F8000014800F006F810BD00040040CA43028268
:102F90007047CA4302827047002904D00288012387
:102FA0001A43028003E00288014B1A4002807047F6
:102FB000FEFF000010B504463748844208D10121C5
:102FC000C014FFF79FFB0021E014FFF79BFB62E0BA
:102FD00001208007844208D101210846FFF772FBD7
:102FE00000210120FFF76EFB55E02C48844208D1F8
:102FF00001210220FFF766FB00210220FFF762FBA0
:1030000049E02748844208D101211020FFF75AFBEC
:1030100000211020FFF756FB3DE02248844208D1F2
:1030200001212020FFF74EFB00212020FFF74AFB63
:1030300031E01D48844208D101218015FFF742FB91
:103040000021A015FFF73EFB25E01848844209D176
:1030500001210804FFF756FB002101200004FFF7BF
:1030600051FB18E01248844209D101214804FFF7BE
:1030700049FB002101204004FFF744FB0BE00D4811
:10308000844208D101218804FFF73CFB0021012084
:103090008004FFF737FB10BD002C01400004004006
:1030A000001000400014004000200040004001409B
:1030B00000440140004801400146486A704730B56D
:1030C0000246002000230024158A0D402B469589D6
:1030D0000D402C46002B03D0002C01D0012000E035
:1030E000002030BD4162704700220288154B984293
:1030F00006D001239B07984202D0134B984203D17C
:10310000124B1A404B881A43114B984203D0114B73
:103110001A400B891A4302804B68C3620B880385EF
:10312000084B984208D00C4B984205D00B4B984264
:1031300002D00B4B984201D18B7A03860123838204
:1031400070470000002C0140000400408FFF000089
:1031500000100040FFFC000000400140004401401E
:10316000004801400021C9434160002101800181E4
:10317000418081727047000070B504460E462546B6
:1031800020680C4908600BE0241D601B01218902A6
:10319000884202D92846FEF75BFB20680549086093
:1031A00004480068401C0028EED13146204600F05B
:1031B00003F870BDA001002070B504460D46FEF76F
:1031C00019F93520FEF78CF829462046FEF7DCF881
:1031D0003520FEF785F8FEF7CDF870BD02E008C88F
:1031E000121F08C1002AFAD170477047002001E081
:1031F00001C1121F002AFBD17047000000B587B043
:1032000001214802FFF76EFA1848FDF757F901A8A7
:10321000FDF7C3F9002069460872059001900690F9
:1032200001A91248FDF790F901211048FDF7A2F914
:10323000012211460D48FDF714F90C48FDF74EF92F
:1032400001210A48FDF719F900BF09490748FDF7B0
:1032500063F90028F9D001210448FDF71AF9022189
:103260000248FDF722F907B000BD0000002401402C
:103270000100000100B58DB001210846FFF702FAF8
:10328000092168460171012181710021417101A864
:10329000FFF774F91748FDF7C3FE02A8FDF7B6FF64
:1032A00001200590002004900C9013480390012009
:1032B000800209908020079020200A900F480290F9
:1032C0008015089000200690012040030B9002A971
:1032D0000848FDF77BFF012202210648FDF76CFF3D
:1032E0000220FDF77FFE01210248FDF78BFE0DB0A5
:1032F00000BD000008000240B4010020402401404D
:103300001CB501214804FFF7BDF96846FEF706FA2F
:1033100001200090032168460171002181714171F3
:103320000121C17169460920C006FEF76CF91CBD78
:1033300010B5FFF701FAFEF724F9FDF736F90D484D
:10334000FFF718FA0C48FDF7C1FFFEF745FAFEF744
:1033500077F80A49087008460078002804D0FFF77B
:1033600047F9FDF761FF02E000E000BFFDE7002044
:1033700010BD0000C00700208813000011000020CD
:1033800010B510210920C006FEF7B3F9012805D1B8
:1033900018480088401C174908802AE01548008812
:1033A000642807DD1348007813490870002011498C
:1033B00008801EE00F48008864280BDA0D4800885A
:1033C000322807DD0B4800780B49087000200949B6
:1033D00008800EE00748008832280ADA054800888D
:1033E000022806DD034800780349087000200149DF
:1033F000088010BDA2000020A00000201C3400089E
:1034000000000020B4010000280400085034000827
:10341000B4010020BC0A0000EC31000801153AACF0
:10342000F7FF1F431910191802752033F401032FF9
:10343000F401025A01B3FF0FD3FF0F3232026912B7
:103440001D0102030401020304060708090000002D
:04000005080000B13E
:00000001FF
