:020000040800F2
:10000000700C0020C50000084D290008051C0008E0
:1000100000000000000000000000000000000000E0
:10002000000000000000000000000000F52F0008A4
:100030000000000000000000C12900083D31000858
:10004000F5000008F5000008F5000008F5000008BC
:10005000F5000008F5000008F5000008F5000008AC
:1000600000000000B9130008F5000008F5000008C2
:10007000F500000871320008F5000008C9320008D8
:1000800039330008000000000000000011320008B1
:1000900000000000F5000008F5000008F500000869
:1000A00000000000F500000800000000F500000856
:1000B0000348854600F08CFB0048004725370008C0
:1000C000700C00200C4880F308880C480168090E69
:1000D0000B4A914205D10B480B4901600B480C4972
:1000E00001600C4880470C480047FEE7FEE7FEE74A
:1000F000FEE7FEE7FEE70000700C002004000000B1
:100100001F00000018100240010000000000014024
:100110000000000041310008B100000830B50B4676
:10012000014600202022012409E00D46D5409D42D1
:1001300005D31D469540491B254695404019154657
:10014000521E002DF1DC30BDF8B502464A40D40FF6
:1001500042004B0052085B089A4202D2024608460F
:1001600011464A0023D0C30D4A00DDB2120EAD1A6B
:10017000202D35DA49020126490AF6058A19002C94
:1001800000D0524220214F1B1146B9402A4110187D
:10019000C20D9A4221D0002C17D0012D08DCDA05BF
:1001A000801AD20F8019D207DBB200F079FAF8BDBD
:1001B000DA05801A012340001B06C01880185A4235
:1001C0008018CA0F1043490007E04908C2071143CD
:1001D000DA05801A80194008801800F059FAF8BD35
:1001E00061000122511A001BF7E70122D20751409A
:1001F000AAE70122D2075040A6E7024670B54A405E
:10020000D30FDB0740002DD04A002AD0010E140E78
:10021000000212020919400A520A8418E501044634
:100220005443000A120A2E045043A4194219200C08
:10023000C543AA18120C0125AD03521C5219120411
:100240007F39240400D0521C104301D44000491EC1
:10025000C2B20C06C0092018401C4008802A02D0F7
:1002600003E0002070BD40084000002900DA0020B3
:10027000184370BD70B502464A40D50F40004A0091
:10028000ED0740085208002814D0002A12D0C40DEF
:10029000D30D41020120C0055202490A520AE41A54
:1002A000091812187D34914201D3641C00E0490002
:1002B000002C01DA002070BD0023914201D3891A7D
:1002C0000343400849000028F7D100290AD0914291
:1002D00002D10121C90705E0914201D2012101E0CB
:1002E0000121C943E005C018401900F0D1F970BDE3
:1002F000F0B507460846584087B0C00F0490480044
:100300000E46590040084908BC1A884105D23846B3
:1003100031461E4617460B46024658004008104319
:100320004CD0300D039040055900400D490D05900B
:10033000401A0290402872DA18030121000B0905C7
:100340000843019004980092002805D00199524278
:100350000020884100920190029840210A1A0199D8
:10036000009800F061F905460C466B4607CB00F09B
:100370007CF9C0197141039A0E0D0023D71756401E
:100380001A467A40164344D0049A002A2DD0029A85
:10039000012A039A15DC1205C01A9141012636057F
:1003A000001C7141D20F059ED20700930192029664
:1003B0002A46234600F0BAF907B0F0BD3846314668
:1003C000FAE71605224A0F46B218C01AB7410121B2
:1003D0000905001C4F4100187F411146181879414A
:1003E000E20F10436D19644113E0E2076D081543F5
:1003F0006408C2071443039A01261205C01A9141EA
:100400003605001C7141CE07400830434908C0182A
:1004100051412A46234600F07CF9CDE7FFE70498D6
:1004200001224000C117121A00238B410498314663
:10043000C417381AA141EEE730B40124E407634041
:1004400030BC55E730B40124E407614030BC4FE7CD
:100450000000E0FFF0B51FB488B00B9909980024A4
:1004600048400999C00F490049080991C0070B99F4
:100470000090490049080B9109990898A64608433D
:100480001CD00B990A98084318D009980124400001
:10049000420D4800410D099824050003000B20433C
:1004A00009900B980003000B20430B9050181C4937
:1004B0004018002201901446104605E00020014635
:1004C0000DB0F0BD032801DA034600E003239C468B
:1004D000C11A0AAE0AE05F0008ADED5B4F00F75BA2
:1004E0007D430027AA187C41491C5B1E6145F2DD53
:1004F000410004AB5A522104120C0A43240C401C44
:100500000828DFDB01980290009970460191009065
:10051000059B049A0799069800F008F9D0E70000B7
:100520000DFCFFFF10B500229623114600F0B8F82D
:1005300010BD00000EB5C217C10F5040CA074018C9
:100540000021054B0293019200910A460B4600F0F0
:10055000EDF803B000BD000033040000C20F4100FD
:1005600040020123400ADB05D207090EC0187F298B
:1005700001DA00207047962903DC9623591AC840F7
:1005800001E096398840002AF4D04042704741008B
:1005900040020122400AD205090E80187F2901DAA3
:1005A00000207047962903DC9622511AC8407047F4
:1005B000963988407047000070B5CD0F4A00090396
:1005C0000123090B1B0519430B4BED070024520DAA
:1005D0009A4201DA002070BD074B34339A4203DCA3
:1005E0009A1A00F031F802E00449511888402C436F
:1005F000F1D0404270BD0000FF030000CDFBFFFFC3
:100600000122D207002800DB101A002900DB511A52
:10061000814270470122D207002800DB101A00290E
:1006200000DB511A8842704710B5202A04DB0146CE
:10063000203A9140002010BD914020239C1A03468F
:10064000E3401943904010BD10B5202A04DB084652
:10065000203AD040002110BD0B46D340D04020248A
:10066000A21A91400843194610BD10B5202A06DB96
:10067000CB170846203A1041C1170B4306E00B4642
:100680001341D0402024A21A91400843194610BDBE
:10069000002904DA401C490001D14008400070479D
:1006A00070B40024050C05D11024000402D10029E7
:1006B00021D01124050E01D100020834050F01D10B
:1006C0000001241D850F01D18000A41C002801DB3E
:1006D0004000641C002908D020252E1B0D46F54043
:1006E000A14000D001212943084301061B1B000A39
:1006F000DB1D02D5002070BC7047DB051818801880
:100700000029F8DA401C4900F5D170BC40084000CF
:10071000704710B5002B08DA0024401C6141921884
:100720005B411A4301D14008400010BDF0B51FB431
:1007300082B005460C0003D0084602F033FF02E009
:1007400002F030FF20300246009021462846FFF795
:100750006BFF049B059A04460F4618431143084358
:1007600014D0184610431BD0009840210A1A18468E
:100770000599FFF769FF05460E46009A059904980A
:10078000FFF752FF084305D0012004E02046394618
:1007900007B0F0BD0020C11705430E432C4337437B
:1007A00000990E986305401A7905E40A00220C436B
:1007B000FD0A0A3002D500200146E9E701051019BB
:1007C00069410C9C0D9D00196941FFF7A2FFDFE70D
:1007D000064C0125064E05E0E36807CC2B430C3C94
:1007E00098471034B442F7D3FFF766FCF03700089F
:1007F0001038000830B58C180278401C13071B0F06
:1008000001D10378401C120906D10278401C03E094
:1008100005780D70401C491C5B1EF9D101E00B707E
:10082000491C521EFBD1A142E6D3002030BD10B5B9
:100830000B460021846A1C43846200BF0C461443AB
:100840002146416110BD002904D0826801231A436A
:10085000826003E0826802231A43826070470029A5
:1008600004D0C26801231A43C26003E0C268520880
:100870005200C2607047C26802239A43C260C268D5
:100880000A43C2607047000010B504460548844220
:1008900007D10121401502F01FF90021601502F077
:1008A0001BF910BD0024014030B501460020002294
:1008B00000238C680125ED072C438C6000BF8C68F9
:1008C000E30FDB07521C0F242403A24201D0002BAC
:1008D000F5D18C68E40FE407002C01D1086C00E02E
:1008E000002030BD30B5024600200023012424063C
:1008F0000C40002C05D0946801252D06AC432346FE
:1009000000E013681C460C40002C01D0012000E0E0
:10091000002030BD10B50022C268084B1A400C7987
:1009200064030B6823438C682343CC6823430C691E
:1009300023434C6923431A43C26010BD03D2FFFF17
:10094000002905D0C26801231B031A43C26004E0DA
:10095000C26801231B039A43C26070478168042266
:100960001143816070470021016001718160C160A5
:1009700001614161704710B502F0BCFE02F038FE23
:1009800002F072FE02F01AFC02F0AAFC01F099F8E3
:1009900000F0F4FF10BD0000F0B585B000F08AFC57
:1009A000FE4801780078401CFC4A10704800FC4961
:1009B000085EFC4909788900FB4A5050F7480178E5
:1009C0000078401CF54A10704800F549085EF5496A
:1009D00009788900F54A5050F04801780078401CA9
:1009E000EE4A10704800EE49085EEE490978890029
:1009F000EF4A5050EB480078401CEA49087008461E
:100A00000078042806DA00BFEA4802F039FD6428BD
:100A1000FAD354E2E34800780328FADD0020E649DF
:100A20000870E0490870DD490870DF490968DE4A4E
:100A300052688918DC4A92688918DB4AD26889189A
:100A40008808FFF76FFDDD490860D8490968D74A73
:100A500052688918D54A92688918D44AD268891888
:100A60008808FFF75FFDD6490860D1490968D04A78
:100A700052688918CE4A92688918CD4AD268891876
:100A80008808FFF74FFDCF490860CD480168CB4883
:100A90000068FFF759FB0446CA4801682046FFF783
:100AA00053FBC9490860C54801688B20C005FFF7A2
:100AB000A4FB0546C44801682846FFF7DBFB044653
:100AC000FFF74CFDC1490860BD4801688B20C00597
:100AD000FFF793FB0546BC4801682846FFF7CAFBB1
:100AE0000446FFF73BFDBA490860B64801688B2011
:100AF000C005FFF782FB0546B34801682846FFF7AB
:100B0000B9FB0446FFF72AFDB2490860B2490868FC
:100B1000FFF708FD0446AC4801682046FFF770FD6A
:100B20000FD2AD490868FFF7FDFC0546A6480168ED
:100B30002846FFF75EFB0446FFF710FDA749086053
:100B40000EE0A5490868FFF7EDFC05469E480168E0
:100B50002846FFF74AFB0446FFF700FD9F4908605F
:100B60009F48006899490968884207D29C480068F4
:100B700096490968081A9B49086006E09848006889
:100B800092490968401A9749086097480068904957
:100B90000968884207D2944800688D490968081A94
:100BA0009249086006E09048006889490968401A3F
:100BB0008E4908608E48006886490968884207D2D5
:100BC0008B48006883490968081A8A49086006E06A
:100BD000874800687F490968401A864908607F494C
:100BE0000868C117890F091889107C4A11607D496E
:100BF00009687E4A126889187E4A126889184A0074
:100C00008818C10F091849107B4A116073480068A1
:100C10001146096840187D21C900081A7749086003
:100C200008460068002802DC0020086008E07348DD
:100C300000687D21C900884202DB08466F490860D0
:100C40006E4800686E49097889006E4A50506C48B9
:100C500000788000114608586B4900228A5E904255
:100C600007DD6748007880006649085A00B2664987
:100C70000880634800788000624908586349002270
:100C80008A5E904207DA5E48007880005D49085A23
:100C900000B25E4908805A480078401C58490870E4
:100CA0000846007807280FDD002008705649085EC6
:100CB000564900228A5E801A554908600020524930
:100CC00008805448514908804C48006852490978C6
:100CD0008900524A50505048007880001146085808
:100CE0004F4900228A5E904207DD4B480078800021
:100CF0004A49085A00B24A490880474800788000AB
:100D000046490858474900228A5E904207DA42481D
:100D1000007880004149085A00B2424908803E48A4
:100D20000078401C3C4908700846007803280FDD15
:100D3000002008703A49085E3A4900228A5E801A0B
:100D40003949086000203649088032483549088012
:100D50002F480068FFF7EEFB04460022334BFFF7F5
:100D600079FB0191009032480068FFF7E3FB0646EB
:100D7000019B009AFFF7BCFA03910290FFF71CFC5D
:100D80002C4908602A48006821490968401A5038EF
:100D900029490860084600680A284FE04001002001
:100DA000E8070020410100200C0800201C0800205A
:100DB0002C080020000400400E000020E00000206D
:100DC000E4000020E8000020EC00002004010020E6
:100DD000080100200C010020C0000020FC000020C1
:100DE000A8000020F0000020B0000020F400002047
:100DF000B8000020F80000200001002010010020B1
:100E0000240100203C0800202001002022010020B5
:100E100028010020FF0F0000300100205C080020A6
:100E20002C0100202E010020340100200000D03FC2
:100E3000940000201C0100201801002001DA0A2083
:100E400008602048006820490968884211DB0020BA
:100E50001E4908701E480078401C1D49087008464D
:100E6000007804281BDB0020087001201949087055
:100E700015E0144800681849096888420FDC002012
:100E80001349087011480078401C10490870084642
:100E90000078042803DB002008700E49087000F079
:100EA000D5FE02F043F800F0A3FE0C49087002F0F2
:100EB00061FC00BF0A4802F0E3FA6428FAD305B0E7
:100EC000F0BD0000100100201C01002043010020A3
:100ED000420100204800002018010020C800002026
:100EE00000040040F8B50024002524E000F0E2F9F9
:100EF0002846691CCDB24000D449085EA100D44AFE
:100F000050502846691CCDB24000D049085EA1006F
:100F1000D04A50502846691CCDB24000CB49085EEB
:100F2000A100CD4A5050601CC4B200BFCB4802F0B3
:100F3000A7FA6428FAD3032CD8DB00F0BBF92846C3
:100F4000691CCDB24000C149085EA100C04A5050A2
:100F50002846691CCDB24000BC49085EA100BD4ACC
:100F600050502846691CCDB24000B849085EA10027
:100F7000B94A5050601CC4B200BFB84802F080FAB1
:100F80006428FAD30020B649087000240025B0492F
:100F90000968AF4A52688918AD4A92688918AC4A04
:100FA000D26889188808FFF7BDFAAE490978890028
:100FB000AD4A5050A7490968A64A52688918A54AFF
:100FC00092688918A34AD26889188808FFF7AAFA94
:100FD000A44909788900A54A50509F4909689E4A4A
:100FE000526889189C4A926889189B4AD268891865
:100FF0008808FFF797FA9B49097889009C4A505066
:10100000984A12789200994B9958964A1278920011
:10101000954B9858FFF798F807469248007880005B
:10102000934A11583846FFF78FF80646FFF7AFFA94
:101030008C49097889008F4A50508A49097889007B
:101040005058FFF76FFA0746864800788000864AB6
:1010500011588B20C005FFF7D0F839460090FFF7F4
:1010600009F90646FFF793FA7E4909788900824A12
:1010700050507C49097889007E4A5058FFF752FA4F
:101080000746784800788000784A11588B20C005C0
:10109000FFF7B3F839460090FFF7ECF80646FFF784
:1010A00076FA704909788900744A50506D49097878
:1010B0008900704A5058FFF735FA074669480078AA
:1010C00080006B4A11588B20C005FFF796F839460F
:1010D0000090FFF7CFF80646FFF759FA6149097803
:1010E0008900674A50505F480078401C5D4908708D
:1010F00008460078022879DB002008705E484068C6
:101100005D490968884207D95B4840685A490968BF
:10111000401A5C49086006E057480068564949682B
:10112000401A58490860554840685449096888423F
:1011300007D95248406851490968401A5249086025
:1011400006E04E4800684D494968401A4E4908601B
:101150004B4840684A490968884207D9484840686E
:1011600047490968401A4949086006E04448006850
:1011700043494968401A454908603E4840683D492E
:101180000968884207D93B4840683A490968401ACB
:101190003F49086006E03748006836494968401A08
:1011A0003B4908603A48006880083949086035487A
:1011B00000683549096840183449096840184100F9
:1011C00040184008334908603148006809684018F1
:1011D00040087D21C900081A28382F4908600846B0
:1011E0000068642803DC6420086009E021E02A48E4
:1011F00000687D21C900884202DB08462649086054
:101200001C480168254802F09BF91B4801682448E6
:1012100002F096F919480168224802F091F918483D
:101220000168214802F08CF91B4801681F4802F050
:1012300087F900201E49087002F09CFA00BF074899
:1012400002F01EF96428FAD3F8BD0000E807002078
:101250000C0800201C0800202C080020000400407E
:101260000E000020A60000204C00002054000020AA
:101270005C000020C0000020A8000020B00000207A
:10128000B8000020CC000020D0000020D4000020B6
:10129000D8000020DC00002094000020006000083E
:1012A0000064000800680008006C0008005C00088A
:1012B000A000002010B500213C4802F0F7F800BF64
:1012C0003A4802F0DDF80028FAD001220421092072
:1012D000C00600F045FC012211020920C00600F002
:1012E0003FFC00BF314802F0CBF80028FAD00022C2
:1012F000FF2101310920C00600F032FC00202C49FA
:1013000008702C48FFF72AFB00BF29480078002806
:10131000FBD0002026490870012251020920C00696
:1013200000F01EFC00BF214802F0AAF80228FAD300
:101330000022012149020920C00600F011FC002012
:101340001B4908701B48FFF709FB00BF18480078CD
:101350000028FBD0002016490870012291020920C4
:10136000C00600F0FDFB00BF104802F089F803281A
:10137000FAD30022012189020920C00600F0F0FB07
:1013800000200B4908700B48FFF7E8FA00BF084837
:1013900000780028FBD000200549087000220421B5
:1013A0000920C00600F0DCFB10BD00000004004076
:1013B000100000200024014010B5022000F0F2F8D7
:1013C000002813D00A4800880A49081A01B20A48BE
:1013D00002780078401C084B18705000074A1152E0
:1013E000012007490870022000F00CF810BD000031
:1013F000B4010020FF0F00000E000020E8070020CD
:1014000010000020012109070140002902D00349F2
:10141000486001E002494860704700000004024053
:1014200000000240002904D0026801231A43026030
:1014300003E00268014B1A4002607047FEFF0000A3
:101440000168554A114001600021016041608160DE
:10145000C1605249884208D15049083949680F2271
:1014600011434E4A083A516094E04C491431884285
:1014700008D14A4908394968F0221143474A083AD5
:10148000516087E045492831884209D143490839EC
:1014900049680F2212021143404A083A516079E02C
:1014A0003E493C31884209D13C49083949680F22FC
:1014B00012031143394A083A51606BE03749503101
:1014C000884209D13549083949680F22120411436D
:1014D000324A083A51605DE030496431884209D1AE
:1014E0002E49083949680F22120511432B4A083A40
:1014F00051604FE029497831884209D1274908399C
:1015000049680F2212061143244A083A516041E00B
:101510002349884208D12249083949680F221143DA
:101520001F4A083A516035E01D491431884208D1FC
:101530001B4908394968F0221143194A083A516099
:1015400028E017492831884209D1154908394968E6
:101550000F2212021143124A083A51601AE0104950
:101560003C31884209D10E49083949680F221203DB
:1015700011430B4A083A51600CE009495031884246
:1015800008D10749083949680F2212041143044A57
:10159000083A516070470000FEFF0000080002405A
:1015A0000804024001460020002201231B070B40D3
:1015B000002B02D0064B1A6801E0064B1A6813464E
:1015C0000B40002B01D0012000E0002070470000FC
:1015D0000004024000000240002A03D003680B43CD
:1015E000036002E003688B430360704710B500227C
:1015F00002680D4B1A400C6A8B6823430C69234325
:101600004C6923438C692343CC6923434C6A2343AD
:101610008C6A23431A430260CB6843600B68836083
:101620004B68C36010BD00000F80FFFF0021016008
:1016300041608160C160016141618161C16101629C
:10164000416281627047000000F090FA002400E0DF
:10165000641C0A2CFCDB41E021480078012811DAE7
:101660002048007800280DDC1F480078012802D1AE
:10167000FFF792F932E01C48007800282ED100F0E4
:101680000FFB2BE0FFF716FE00F0E0FA02F072F815
:10169000164800881649884213DB00201349088049
:1016A00008210920C00600F044FA002801D10120D9
:1016B00000E0002005462A4608210920C00600F067
:1016C0004FFA0A480088401C0849088000BF0948B2
:1016D00001F0D6FE6428FAD301F08EFCBCE70000CE
:1016E000A6000020A0000020C80000203801002033
:1016F000041000000004004004E0411E08B200286D
:1017000000DC00E0F9E700BF704700000149C86055
:10171000704700000020024030B5044604250B202D
:10172000000400F08FF80546042D17D10C4800691D
:10173000022108430A4908610846446100694021C2
:101740000843074908610B20000400F07BF80546B8
:10175000034800690221884301490861284630BDD9
:101760000020024004200D49C968C907C90F00299B
:1017700001D0012010E00949C96810221140002958
:1017800001D0022008E00549C9680422114000295F
:1017900001D0032000E00420704700000020024038
:1017A000034800698021084301490861704700002F
:1017B0000020024078B506460C4604250020009023
:1017C0000B20000400F03EF80546042D24D11348F8
:1017D0000069012108431149086134800B2000048D
:1017E00000F030F80546042D10D1B01C0090200CFC
:1017F000009908800B20000400F024F805460748F3
:101800000069400840000549086105E00348006997
:101810004008400001490861284678BD0020024088
:101820000548006980210840002804D00348024987
:101830004860034848607047002002402301674524
:10184000AB89EFCD10B503460424FFF78BFF0446A8
:1018500003E0FFF787FF04465B1E012C01D1002B3C
:10186000F7D1002B00D10524204610BD10B5114939
:10187000114800F029F80F4800780E49497809020C
:1018800040180C498978090440180A49C9780906A2
:1018900040180A4908600A4800680A490860084672
:1018A000006806490968884201D1012400E000244B
:1018B000204610BD20000020000800202400002049
:1018C00000700008280000202A4A1268127902706D
:1018D000284A1268127A4270264A12685278827038
:1018E000244A1268D278C270224A126812780271B1
:1018F000204A1268527942711E4A1268927A8271A5
:101900001C4A1268D279C2711A4A1268527A02725B
:10191000184A126892784272164A1268D27A827213
:10192000144A12689279C272134A126812780378C4
:101930005A400A70104A1268527883795A40C37923
:101940005A40037A5A40437A5A40837A5A40C37ABB
:101950005A404A70084A1268927803795A408A704D
:10196000054A1268D27883785A4043785A40CA7040
:1019700070470000140000201C0000201CB501214D
:101980002320400401F068F8684600F0DDF880206C
:10199000009001216846017100218171417102218D
:1019A000C17169460920C00600F043F81CBD1CB592
:1019B00001212320400401F04FF8684600F0C4F8EC
:1019C000012000030090012168460171002181710E
:1019D0004171C17169460920C00600F02AF8012052
:1019E000C002009000216846017141710221C1715D
:1019F00069460920C00600F01CF80820009001216B
:101A000068460171002141710221C17169460920B6
:101A1000C00600F00EF81020009000216846017109
:101A200041710221C17169460920C00600F001F828
:101A30001CBDF0B50A4600210023002400BF3DE094
:101A400001258D402B4615681D402C469C4234D103
:101A50001579012D02D01579022D16D185684F0018
:101A60000326BE40B543856055794E00B540866873
:101A700035438560858801268E40B54385808588FD
:101A800096798E40B6B23543858005684F000326AF
:101A9000BE40B543056015794E00B5400668354334
:101AA0000560C5684F000326BE40B543C560D579C3
:101AB0004E00B540C6683543C560491C1029BFD3E8
:101AC000F0BD1CB50121480400F0C6FFFF20013025
:101AD0000090012168460171002181710121C171CD
:101AE0000321417169460920C006FFF7A2FF0120CA
:101AF0004002009069460920C006FFF79AFF0120C6
:101B00008002009069460920C006FFF792FF04207A
:101B1000009069460920C006FFF78BFF1CBD0246F6
:101B20000020138A0B40002B01D0012000E0002090
:101B3000704702460020938A0B40002B01D0012001
:101B400000E000207047000004490160002101719D
:101B50000121417100218171C1717047FFFF0000B7
:101B6000002A01D0816100E00185704710B512485C
:101B700001F06EF911490860114801F069F9114945
:101B80000870114801F064F910490860104801F02C
:101B90005FF910490860104801F05AF90F490860D0
:101BA0000F4801F055F90F4908600F4801F050F94E
:101BB0000E49086010BD0000005400089800002085
:101BC0000058000880000020005C000894000020FD
:101BD00000600008C000002000640008A800002089
:101BE00000680008B0000020006C0008B800002069
:101BF00010B50121C9020920C006FFF790FF044675
:101C0000204610BD00BFFEE710B55D2001F0C0F812
:101C1000002801D000F070FF074800F02BF80420E6
:101C200000F01CF87D20000100F01EF800F00EF816
:101C300000F004F810BD00005555000001480249AD
:101C400008607047CCCC00000030004001480249D9
:101C500008607047AAAA00000030004001494860AF
:101C60007047000000300040014988607047000064
:101C7000003000400149086070470000003000401B
:101C800010B50446FFF7CCFD3520FFF73FFD204699
:101C9000FFF742FD3520FFF739FDFFF781FD10BD4D
:101CA00010B50248007800F073F910BD80000020E4
:101CB00070B50024002524E0FFF7FCFA2846691CD3
:101CC000CDB240009F49085EA1009F4A505028466F
:101CD000691CCDB240009B49085EA1009B4A505050
:101CE0002846691CCDB240009649085EA100984A7A
:101CF0005050601CC4B200BF964801F0C1FB64287C
:101D0000FAD3032CD8DBFFF7D5FA2846691CCDB2ED
:101D100040008C49085EA1008B4A50502846691C3F
:101D2000CDB240008749085EA100884A505028463D
:101D3000691CCDB240008349085EA100844A50501E
:101D4000601CC4B2002084490870002400257E492C
:101D500009687D4A526889187B4A926889187A4ACC
:101D6000D26889188808FEF7DDFB7C49097889006C
:101D70007B4A505075490968744A52688918734AF9
:101D800092688918714AD26889188808FEF7CAFBD8
:101D9000724909788900734A50506D4909686C4A44
:101DA000526889186A4A92688918694AD2688918FB
:101DB0008808FEF7B7FB6949097889006A4A5050DC
:101DC00066480078401C654908700846007802287B
:101DD00075DB00200870624A51681068FEF71AFC33
:101DE00007D85F4A51681068FEF7FFF95F4908603D
:101DF00006E05B4A11685068FEF7F7F95B49086036
:101E0000584A51681068FEF705FC07D8554A5168D2
:101E10001068FEF7EAF95649086006E0514A116871
:101E20005068FEF7E2F9524908604F4A516810685D
:101E3000FEF7F0FB07D84C4A51681068FEF7D5F959
:101E40004C49086006E0484A11685068FEF7CDF931
:101E5000484908604648016844480068FEF7DAFBD4
:101E600004D8424800684449086003E040480068DC
:101E7000414908603F4801683F480068FEF7C0FBE1
:101E800003D83C4800683C490860384801683A4833
:101E90000068FEF7B5FB13D131490868FEF75EFB19
:101EA00036490860002036490870344801683548D2
:101EB00001F046FB32480178334801F041FB34E041
:101EC0002B4801682C480068FEF79AFB13D125497E
:101ED0000868FEF743FB294908600120284908707B
:101EE00026480168274801F02BFB25480178264841
:101EF00001F026FB19E01F4801681F480068FEF743
:101F00007FFB12D118490868FEF728FB1B490860BF
:101F100002201B490870194801681A4801F010FB9B
:101F200017480178184801F00BFB0020174908708A
:101F300001F020FC00BF074801F0A2FA6428FAD3A0
:101F400070BD0000E80700200C0800201C080020DD
:101F50002C080020000400400E000020A6000020F5
:101F60004C000020540000205C0000206400002091
:101F7000680000206C000020700000209800002005
:101F8000800000200054000800580008A000002035
:101F900070B50546002D7DD10021FC4801F086FA80
:101FA000012204210920C006FFF7DAFD00220121E9
:101FB00049020920C006FFF7D3FD00220121890252
:101FC0000920C006FFF7CCFD012211020920C0063E
:101FD000FFF7C6FD00BFED4801F052FA0028FAD025
:101FE0000022FF2101310920C006FFF7B9FD0020C2
:101FF000E7490870E748FEF7B1FC00BFE448007805
:102000000028FBD00020E249087000BFDF4801F043
:1020100037FA1428FAD3002204210920C006FFF75A
:102020009FFDDD4801780078401CDB4A10704800B5
:10203000DA49085EDA4909788900DA4A5050D84806
:102040000078401CD649087008460078042806DA53
:1020500000BFCE4801F014FA6428FAD3BCE2D0489D
:1020600000780328FADD0020CF490870CC490870B9
:10207000C9490870CB480068CA4949684018C9492D
:1020800089684018C749C96840188008C74908606E
:10209000084600E0F7E00068C54909788900C54AAC
:1020A0005050C3480078800011460858C2490022A9
:1020B0008A5E904207DDBE4800788000BD49085A1C
:1020C00000B2BD490880BA4800788000B949085874
:1020D000BA4900228A5E904207DAB548007880004B
:1020E000B449085A00B2B5490880B1480078401C8C
:1020F000AF4908700846007807280FDD00200870F7
:10210000AD49085EAD4900228A5E801AAC4908607C
:102110000020A9490880AB48A8490880A348006866
:10212000A94909788900A94A5050A7480078800039
:1021300011460858A64900228A5E904207DDA2484F
:1021400000788000A149085A00B2A14908809E4841
:10215000007880009D4908589E4900228A5E90427E
:1021600007DA9948007880009849085A00B29949DE
:10217000088095480078401C93490870084600780C
:1021800003280FDD002008709149085E9149002264
:102190008A5E801A9049086000208D49088089482D
:1021A0008C4908808D490968062251430846C917A1
:1021B000490F0918C910824A1268891A0C46283C2E
:1021C000052C00DA0524854A126806235A43114675
:1021D000D217520F5218D210744B1B689A421DDA54
:1021E0007E4A0A2310685843C217520F1218D210A1
:1021F0006E4B1B689A4211DD0020794908707948BE
:102200000078401C7749087008460078042829DBCC
:102210000020087001207449087023E063490968B0
:10222000A1420FDD6D490A2208685043C117490FCA
:102230000918C910624A1268891828315B4A126865
:1022400091420FDC00206749087065480078401C07
:102250006349087008460078042803DB00200870F2
:1022600061490870FFF7F2FC00F060FEFFF7C0FC68
:102270005E49087001F07EFA00BF444801F000F9A1
:102280006428FAD350E3012D7ED100213F4801F0AC
:102290000DF9012204210920C006FFF761FC00228C
:1022A00029020920C006FFF75BFC0022A9020920D1
:1022B000C006FFF755FC012251020920C006FFF7B6
:1022C0004FFC00BF314801F0DBF80028FAD00022B3
:1022D000012149020920C006FFF742FC00202C49D9
:1022E00008702C48FEF73AFB00BF29480078002808
:1022F000FBD000202649087000BF244801F0C0F838
:102300001428FAD3002204210920C006FFF728FC74
:10231000214801780078401C1F4A107048001F496E
:10232000085E1F49097889001E4A50501C480078F1
:10233000401C1B49087008460078042806DA00BFD4
:10234000124801F09DF86428FAD3EDE214480078B1
:10235000032897DD002014490870114908700E49C0
:102360000870104800680F49496840180D4989688D
:1023700040180C49C968401880080C490860084694
:1023800000680B49097833E027E1000000040040B1
:10239000100000200024014044010020E807002034
:1023A000450100200C0800200E0000201401002030
:1023B000240100203C0800202001002022010020F0
:1023C00028010020FF0F0000300100205C080020E1
:1023D0002C0100202E010020340100209800002054
:1023E000430100204201002048000020C8000020D6
:1023F0008900FE4A5050FE48007880001146085877
:10240000FC4900228A5E904207DDF948007880008E
:10241000F649085A00B2F7490880F548007880006C
:10242000F2490858F44900228A5E904207DAF048DF
:1024300000788000ED49085A00B2EF490880EC4866
:102440000078401CEA4908700846007807280FDD2C
:1024500000200870E749085EE74900228A5E801A7A
:10246000E64908600020E3490880E548E249088021
:10247000E4480068E44909788900E44A5050E24899
:102480000078800011460858E14900228A5E904297
:1024900007DDDD4800788000DC49085A00B2DC49DD
:1024A0000880D94800788000D8490858D9490022C6
:1024B0008A5E904207DAD44800788000D349085AEF
:1024C00000B2D4490880D0480078401CCE4908703A
:1024D0000846007803280FDD00200870CC49085E0C
:1024E000CC4900228A5E801ACB4908600020C84986
:1024F0000880C348C7490880C84909680622514373
:102500000846C917490F0918C910BC4A1268891A28
:102510000C46283C052C00DA0524C04A1268062324
:102520005A431146D217520F5218D210B54B1B689E
:102530009A421DDAB94A0A2310685843C217520F4B
:102540001218D210AF4B1B689A4211DD0020B4491B
:102550000870B4480078401CB249087008460078FA
:10256000042829DB002008700120AF49087023E00F
:10257000A4490968A1420FDDA8490A22086850430E
:10258000C117490F0918C9109C4A126889182831C7
:102590009C4A126891420FDC0020A2490870A048B2
:1025A0000078401C9E49087008460078042803DB28
:1025B000002008709C490870FFF748FB00F0B6FC4B
:1025C000FFF716FB9949087001F0D4F800BF98484E
:1025D00000F056FF6428FAD3A6E1022DFCD10021B9
:1025E000934800F063FF012204210920C006FFF791
:1025F000B7FA0022E9010920C006FFF7B1FA00226C
:1026000029020920C006FFF7ABFA01229102092036
:10261000C006FFF7A5FA00BF854800F031FF00288B
:10262000FAD00022012189020920C006FFF798FA9A
:102630000020804908708048FEF790F900BF7D486F
:1026400000780028FBD000207A49087000BF784845
:1026500000F016FF1428FAD3002204210920C00636
:10266000FFF77EFA754801780078401C734A1070B5
:1026700048007349085E734909788900724A5050CE
:1026800070480078401C6F4908700846007804289C
:1026900006DA00BF664800F0F3FE6428FAD343E18F
:1026A00068480078032897DD00206849087065496C
:1026B00008706249087064480068634949684018B6
:1026C0006149896840186049C968401880084D49C7
:1026D000086008460068464909788900434A505016
:1026E00043480078800011460858424900228A5E1B
:1026F000904207DD3E48007880003C49085A00B20D
:102700003C4908803A4800788000384908583A49DE
:1027100000228A5E904207DA35480078800033490B
:10272000085A00B23449088031480078401C3049CA
:1027300008700846007807280FDD002008702D4932
:10274000085E2D4900228A5E801A2C49086000200C
:10275000284908802A48284908802A4800682A49C8
:1027600009788900294A505027480078800011468E
:102770000858274900228A5E904207DD22480078E7
:1027800080002249085A00B2214908801E4800787A
:1027900080001E4908581F4900228A5E904207DACD
:1027A0001948007880001949085A00B21949088070
:1027B00015480078401C1449087008460078032822
:1027C0000FDD002008701249085E124900228A5E5F
:1027D000801A1149086000200D49088008480D49F9
:1027E00008800E4909680622514331E03C08002068
:1027F00024010020200100202201002028010020C7
:10280000FF0F000014010020300100205C080020B0
:102810002C0100202E01002034010020980000200F
:10282000430100204201002048000020C800002091
:10283000000400401000002000240140440100205A
:10284000E8070020450100200C0800200E000020B1
:102850000846C917490F0918C910344A1268891A5D
:102860000C46283C052C00DA0524314A1268062360
:102870005A431146D217520F5218D2102D4B1B68D3
:102880009A421DDA2A4A0A2310685843C217520F87
:102890001218D210274B1B689A4211DD00202649DE
:1028A000087026480078401C2449087008460078C3
:1028B000042829DB0020087001202149087023E04A
:1028C0001C490968A1420FDD19490A2208685043D2
:1028D000C117490F0918C910144A126889182831FC
:1028E000144A126891420FDC002014490870124803
:1028F0000078401C1049087008460078042803DB63
:10290000002008700E490870FFF7A0F900F00EFBD8
:10291000FFF76EF90B49087000F02CFF00BF0A4862
:1029200000F0AEFD6428FAD370BD0000280100203D
:1029300098000020140100204301002042010020E3
:1029400048000020C800002000040040704700003C
:1029500000218278002A27D0184A03231B02D218AC
:1029600003789B109B00D15802789207D30EFF2268
:102970009A400B469343194642789207120E037809
:102980009B07DB0E9A4011430C4A03231B02D2180B
:1029900003789B109B00D1500278D306DB0E0122F6
:1029A0009A40064B1A6007E00278D306DB0E01223C
:1029B0009A40024B80331A607047000000E100E04B
:1029C0007047000010B5134800F042FA1249086041
:1029D000084600681149884203DC0F480068002857
:1029E00004DA00200C49086000F04AFA0A4800683E
:1029F000401C0949086008460168064800F0A0FD2F
:102A00003220FEF779FE04480068012801DC00F05E
:102A100037FA10BD0050000830000020FFFF000012
:102A20000C4949680122920391430A4A51601146B8
:102A3000496882B21143074A51601146096B9215E9
:102A40009143044A11631146096B020C1143014A78
:102A50001163704700100240002905D0054A5269F1
:102A60000243044B5A6104E0024A52698243014B1B
:102A70005A61704700100240002905D0054AD2690A
:102A80000243044BDA6104E0024AD2698243014BFB
:102A9000DA61704700100240002905D0054A12692A
:102AA0000243044B1A6104E0024A12698243014B5B
:102AB0001A61704700100240002905D0054A92694A
:102AC0000243044B9A6104E0024A92698243014B3B
:102AD0009A61704700100240002905D0054AD2686B
:102AE0000243044BDA6004E0024AD2688243014B9D
:102AF000DA607047001002400348406A012109066D
:102B000008430149486270470010024010B5052192
:102B1000C9040120C00300F07BF9012000F064F932
:102B20000848FFF77DFF00BF192000F031F90028A9
:102B3000FAD0022000F07EF900BF00F04DF908281D
:102B4000FBD110BD00400001FEB504460025002663
:102B500000200290019000900027864840680C21D8
:102B600008400546002D06D0042D07D0082D08D0BA
:102B70000C2D2CD128E0804820602BE07E4820607E
:102B800028E07C4840680F218904084006467948BF
:102B900040680321C90308400290B00C861C0298CB
:102BA000002803D17548374647430BE07148C06A97
:102BB0000007000F401C01906F480199FDF7AEFA25
:102BC00070430746276005E06D48206002E06A48D0
:102BD000206000BF00BF67484068F02108400546FC
:102BE0002D096848405D009020680099C8406060E9
:102BF0006048406807210902084005462D0A6148DF
:102C0000405D009061680098C140A1605948006B28
:102C1000FF2101310840884202D05B48E0600DE0AE
:102C200054484068012189030840884203D0A068C5
:102C30004008E06002E0A0688008E0604D48006B5A
:102C400040210840402802D05048206102E0012085
:102C5000C00320614748006B10210840102802D0B3
:102C60004548606101E0206860614248006B800770
:102C7000800F002802D1A068A06119E03D48006BD8
:102C80008007800F012802D12068A06110E0394838
:102C9000006B8007800F022802D18003A06107E04B
:102CA0003448006B8007800F032801D13248A061AF
:102CB0003048006B032109040840002802D1A068B5
:102CC000E06120E02B48006B03210904084001214A
:102CD0000904884202D12068E06114E02548006BB5
:102CE00003210904084001214904884202D18010CF
:102CF000E06108E01F48006B032109040840884296
:102D000001D11D48E0611B48006B03218904084084
:102D1000002802D1A068206220E01648006B032141
:102D20008904084001218904884202D12068206278
:102D300014E01048006B0321890408400121C904F4
:102D4000884202D10011206208E00A48006B03218A
:102D500089040840884201D1074820620548006B79
:102D600080210840802802D00548606200E0676248
:102D7000FEBD00000010024000127A0000093D0074
:102D8000006CDC02A4010020809FD50012800000AE
:102D900010B502460021002300205111002902D164
:102DA0000C4C23680BE0012902D10A4C236A06E08F
:102DB000022902D1074C636A01E0064C636BD1061D
:102DC000C90E01248C401C40002C01D0012000E0E1
:102DD000002010BD00100240024840680C2108404D
:102DE0007047000000100240002807D0074909681A
:102DF000012212061143054A116006E003490968E1
:102E0000012212069143014A1160704700100240EE
:102E1000074A52687B23DB039A43054B5A601A46E4
:102E2000526803460B431A43014B5A607047000037
:102E30000010024001460020044A506880088000CB
:102E400002460A431046014A506070470010024093
:102E500010B501460B460A460868084C206004E09D
:102E60000A46091D0868054C206004480068401C9B
:102E70000028F5D11068014C206010BDA001002091
:102E800010B5FF20F5301B49086000201A49087072
:102E9000FF20F530194908600020194908601949D8
:102EA0000860194908601949086012480168184803
:102EB00000F046FB10480178164800F041FB0F482F
:102EC0000168154800F03CFB0D480168134800F00C
:102ED00037FB0C480168124800F032FB0A480168D1
:102EE000104800F02DFB094801680F4800F028FB4E
:102EF00010BD0000980000208000002094000020F9
:102F0000C0000020A8000020B0000020B800002071
:102F10000054000800580008005C00080060000829
:102F20000064000800680008006C000810B52B4819
:102F30000078012828D12A48006850284CDC29490B
:102F400029480068FDF766FB0AD22848007800F09F
:102F500075F8012208210920C006FEF701FE3BE0BA
:102F6000204921480068FDF74BFB35D80022082195
:102F70000920C006FEF7F4FD002201210903092003
:102F8000C006FEF7EDFD27E014480078002823D1A5
:102F90001348006850281FDC154800681E280ADD09
:102FA0001248007800F04AF8012208210920C006E2
:102FB000FEF7D6FD10E00E4800681E280CDC00224B
:102FC00008210920C006FEF7CBFD002201210903DC
:102FD0000920C006FEF7C4FD10BD0000C800002097
:102FE000340100200000FA43EC00002048000020DB
:102FF000140100207047000010B50E48007800282A
:1030000016DD012109030920C006FEF788FD0446EC
:103010002246012109030920C006FEF7A1FD06484A
:103020000078002802D0FDF75DFF01E0FEF740FECA
:1030300010BD0000A0000020C800002010B504460C
:10304000012C06D1012201030920C006FEF788FDEC
:1030500006E00022012109030920C006FEF780FDD9
:1030600010BD00000CB500200190009031480068B0
:103070000121090408432F49086000BF2D4800685A
:1030800001214904084000900198401C01900098DB
:10309000002804D10521090301988842EED1254872
:1030A0000068012149040840002802D00120009056
:1030B00001E0002000900098012839D111201E491C
:1030C00008601C4840681B494860084640684860E2
:1030D000084640687F21C90388431649486008466E
:1030E00040681121090408431249486008460068F5
:1030F0000121090608430F49086000BF0D48006818
:103100000121490608400028F8D00A484068800894
:103110008000084948600846406802210843054984
:10312000486000BF034840680C2108400828F9D1D6
:103130000CBD00000010024000200240704700005B
:1031400010B51B480068012108431949086008466A
:103150004068184908401649486008460068164902
:103160000840134908600846006801218904884323
:103170000F490860084640683F21090488430C490C
:1031800048600846C06A00090001C8620846006B32
:10319000FF2154318843064908630846406B4008C4
:1031A0004000486300208860FFF75CFF10BD00000E
:1031B000001002400CB8FF08FFFFF6FE1FB501210A
:1031C0000802FFF759FC114800F0D8F813216846AF
:1031D0000170012181704170FFF7BAFB01A800F076
:1031E000A5F9002168468181C1807D20C000029040
:1031F0002F21684681800021817301A9034800F0D6
:1032000057F90121014800F0ABF81FBD0020004034
:1032100010B50121144800F036F9002822D01348D7
:103220000088401C1149088080210920C006FEF753
:1032300080FC002801D1012000E000200446224645
:1032400080210920C006FEF78BFC084800880A2868
:1032500004DB00200549088000F08CFA01210248B7
:1032600000F07BF810BD000000200040A40000200A
:1032700010B50121134800F006F9012803D10121FE
:10328000104800F067F802210E4800F0FCF8002812
:1032900003D002210B4800F05DF80421094800F03A
:1032A000F2F8002803D00421064800F053F8082162
:1032B000044800F0E8F8002803D00821014800F095
:1032C00049F810BD002C014010B50121880700F01D
:1032D000DAF8002803D00121880700F03BF810BD80
:1032E0001FB501210220FFF7C7FB102168460170BE
:1032F0000121817004214170FFF72AFB0D4800F085
:103300003DF801A800F012F9002168468181C180D2
:103310007D20C00002902F216846818000218173AA
:1033200001A9044800F0C4F80121024800F018F88F
:103330001FBD00000004004010B50121044800F04A
:10334000A2F8002803D00121014800F006F810BDC2
:1033500000040040CA4302827047CA430282704799
:10336000002904D0028801231A43028003E0028866
:10337000014B1A4002807047FEFF000010B5044662
:103380003748844208D10121C014FFF7A5FB002172
:10339000E014FFF7A1FB62E001208007844208D11E
:1033A00001210846FFF778FB00210120FFF774FB9D
:1033B00055E02C48844208D101210220FFF76CFB24
:1033C00000210220FFF768FB49E02748844208D12A
:1033D00001211020FFF760FB00211020FFF75CFBAC
:1033E0003DE02248844208D101212020FFF754FB10
:1033F00000212020FFF750FB31E01D48844208D116
:1034000001218015FFF748FB0021A015FFF744FBC1
:1034100025E01848844209D101210804FFF75CFB2C
:10342000002101200004FFF757FB18E012488442F6
:1034300009D101214804FFF74FFB0021012040047E
:10344000FFF74AFB0BE00D48844208D101218804B4
:10345000FFF742FB002101208004FFF73DFB10BD78
:10346000002C014000040040001000400014004007
:10347000002000400040014000440140004801405D
:103480000146486A704730B50246002000230024F8
:10349000158A0D402B4695890D402C46002B03D0F4
:1034A000002C01D0012000E0002030BD41627047B7
:1034B00000220288154B984206D001239B079842B0
:1034C00002D0134B984203D1124B1A404B881A4337
:1034D000114B984203D0114B1A400B891A430280BA
:1034E0004B68C3620B880385084B984208D00C4B8D
:1034F000984205D00B4B984202D00B4B984201D119
:103500008B7A03860123838270470000002C0140E0
:10351000000400408FFF000000100040FFFC00008E
:103520000040014000440140004801400021C943DF
:10353000416000210180018141808172704700005B
:1035400070B504460E46254620680C4908600BE01D
:10355000241D601B01218902884202D92846FEF7FA
:103560008FFB20680549086004480068401C00285B
:10357000EED13146204600F003F870BDA0010020D6
:1035800070B504460D46FEF74BF93520FEF7BEF840
:1035900029462046FEF70EF93520FEF7B7F8FEF76C
:1035A000FFF870BD2021020C01D010211046020A44
:1035B00001D010460839020901D01046091F8208BF
:1035C00001D01046891E420801D0881E7047081A93
:1035D000704702E008C8121F08C1002AFAD17047DC
:1035E0007047002001E001C1121F002AFBD1704783
:1035F00000B587B001214802FFF75EFA1848FDF7D1
:1036000043F901A8FDF7AFF900206946087205905B
:103610000190069001A91248FDF77CF9012110489C
:10362000FDF78EF9012211460D48FDF700F90C480F
:10363000FDF73AF901210A48FDF705F900BF0949EC
:103640000748FDF74FF90028F9D001210448FDF79C
:1036500006F902210248FDF70EF907B000BD00008F
:10366000002401400100000100B58DB00121084691
:10367000FFF7F2F9092168460171012181710021EA
:10368000417101A8FFF764F91748FDF7D9FE02A8B8
:10369000FDF7CCFF01200590002004900C9013480A
:1036A00003900120800209908020079020200A903A
:1036B0000F480290801508900020069001204003DA
:1036C0000B9002A90848FDF791FF0122022106484C
:1036D000FDF782FF0220FDF795FE01210248FDF76C
:1036E000A1FE0DB000BD000008000240B4010020A2
:1036F000402401401CB501214804FFF7ADF968469C
:10370000FEF722FA01200090032168460171002192
:10371000817141710121C17169460920C006FEF71E
:1037200088F91CBD10B5FFF7F1F9FEF740F9FDF778
:1037300022F90D48FFF708FA0C48FDF7DDFFFEF708
:1037400063FAFEF793F80A490870084600780028E3
:1037500004D0FFF737F9FDF777FF02E000E000BF84
:10376000FDE7002010BD0000C00700208813000006
:103770001100002010B510210920C006FEF7CFF976
:10378000012805D118480088401C174908802AE004
:1037900015480088642807DD13480078134908702D
:1037A0000020114908801EE00F48008864280BDAC9
:1037B0000D480088322807DD0B4800780B49087057
:1037C0000020094908800EE00748008832280ADAFC
:1037D00005480088022806DD034800780349087080
:1037E00000200149088010BDA2000020A000002098
:1037F0001038000800000020B4010000F4070008A1
:1038000044380008B4010020BC0A0000E23500087A
:1038100001153AACF7FF1F43191019180275203330
:10382000F401032FF401025A01B3FF0FD3FF0F324B
:10383000320269121D010203040102030406070893
:04384000090000007B
:04000005080000B13E
:00000001FF
